{
  "_format": "hh-sol-artifact-1",
  "contractName": "ETHFaucet",
  "sourceName": "contracts/ETHFaucet.sol",
  "abi": [
    {
      "inputs": [
        {
          "internalType": "address",
          "name": "_whitelistCA",
          "type": "address"
        }
      ],
      "stateMutability": "nonpayable",
      "type": "constructor"
    },
    {
      "anonymous": false,
      "inputs": [
        {
          "indexed": true,
          "internalType": "address",
          "name": "user",
          "type": "address"
        },
        {
          "indexed": false,
          "internalType": "uint256",
          "name": "amount",
          "type": "uint256"
        }
      ],
      "name": "ETHGrabbed",
      "type": "event"
    },
    {
      "anonymous": false,
      "inputs": [
        {
          "indexed": true,
          "internalType": "address",
          "name": "owner",
          "type": "address"
        },
        {
          "indexed": false,
          "internalType": "uint256",
          "name": "amount",
          "type": "uint256"
        }
      ],
      "name": "EmergencyWithdraw",
      "type": "event"
    },
    {
      "anonymous": false,
      "inputs": [
        {
          "indexed": true,
          "internalType": "address",
          "name": "funder",
          "type": "address"
        },
        {
          "indexed": false,
          "internalType": "uint256",
          "name": "amount",
          "type": "uint256"
        }
      ],
      "name": "FaucetFunded",
      "type": "event"
    },
    {
      "anonymous": false,
      "inputs": [
        {
          "indexed": true,
          "internalType": "address",
          "name": "owner",
          "type": "address"
        },
        {
          "indexed": false,
          "internalType": "uint256",
          "name": "amount",
          "type": "uint256"
        }
      ],
      "name": "FaucetWithdrawn",
      "type": "event"
    },
    {
      "anonymous": false,
      "inputs": [
        {
          "indexed": false,
          "internalType": "uint256",
          "name": "newAmount",
          "type": "uint256"
        }
      ],
      "name": "GrabETHSet",
      "type": "event"
    },
    {
      "anonymous": false,
      "inputs": [
        {
          "indexed": false,
          "internalType": "uint256",
          "name": "newTimeLimit",
          "type": "uint256"
        }
      ],
      "name": "GrabTimeLimitSet",
      "type": "event"
    },
    {
      "anonymous": false,
      "inputs": [
        {
          "indexed": true,
          "internalType": "address",
          "name": "previousOwner",
          "type": "address"
        },
        {
          "indexed": true,
          "internalType": "address",
          "name": "newOwner",
          "type": "address"
        }
      ],
      "name": "OwnershipTransferred",
      "type": "event"
    },
    {
      "anonymous": false,
      "inputs": [
        {
          "indexed": true,
          "internalType": "address",
          "name": "newWhitelistCA",
          "type": "address"
        }
      ],
      "name": "WhitelistCASet",
      "type": "event"
    },
    {
      "stateMutability": "payable",
      "type": "fallback"
    },
    {
      "inputs": [],
      "name": "activeUsers",
      "outputs": [
        {
          "internalType": "uint256",
          "name": "",
          "type": "uint256"
        }
      ],
      "stateMutability": "view",
      "type": "function"
    },
    {
      "inputs": [
        {
          "internalType": "address[]",
          "name": "_users",
          "type": "address[]"
        }
      ],
      "name": "batchCheckUsers",
      "outputs": [
        {
          "internalType": "bool[]",
          "name": "eligible",
          "type": "bool[]"
        },
        {
          "internalType": "uint256[]",
          "name": "timeLeft",
          "type": "uint256[]"
        }
      ],
      "stateMutability": "view",
      "type": "function"
    },
    {
      "inputs": [
        {
          "internalType": "address[]",
          "name": "_recipients",
          "type": "address[]"
        },
        {
          "internalType": "uint256[]",
          "name": "_amounts",
          "type": "uint256[]"
        }
      ],
      "name": "batchTransferETH",
      "outputs": [],
      "stateMutability": "nonpayable",
      "type": "function"
    },
    {
      "inputs": [
        {
          "internalType": "address",
          "name": "_user",
          "type": "address"
        }
      ],
      "name": "canUserGrab",
      "outputs": [
        {
          "internalType": "bool",
          "name": "canGrab",
          "type": "bool"
        },
        {
          "internalType": "uint256",
          "name": "timeUntilNextGrab",
          "type": "uint256"
        },
        {
          "internalType": "uint256",
          "name": "nextGrabAmount",
          "type": "uint256"
        }
      ],
      "stateMutability": "view",
      "type": "function"
    },
    {
      "inputs": [],
      "name": "emergencyWithdrawAll",
      "outputs": [],
      "stateMutability": "nonpayable",
      "type": "function"
    },
    {
      "inputs": [],
      "name": "fundFaucet",
      "outputs": [],
      "stateMutability": "payable",
      "type": "function"
    },
    {
      "inputs": [],
      "name": "getBalance",
      "outputs": [
        {
          "internalType": "uint256",
          "name": "",
          "type": "uint256"
        }
      ],
      "stateMutability": "view",
      "type": "function"
    },
    {
      "inputs": [],
      "name": "getFaucetStats",
      "outputs": [
        {
          "internalType": "uint256",
          "name": "balance",
          "type": "uint256"
        },
        {
          "internalType": "uint256",
          "name": "totalDistributed",
          "type": "uint256"
        },
        {
          "internalType": "uint256",
          "name": "totalRequests",
          "type": "uint256"
        },
        {
          "internalType": "uint256",
          "name": "users",
          "type": "uint256"
        },
        {
          "internalType": "uint256",
          "name": "currentGrabAmount",
          "type": "uint256"
        },
        {
          "internalType": "uint256",
          "name": "currentTimeLimit",
          "type": "uint256"
        }
      ],
      "stateMutability": "view",
      "type": "function"
    },
    {
      "inputs": [],
      "name": "getMaxPossibleGrabs",
      "outputs": [
        {
          "internalType": "uint256",
          "name": "",
          "type": "uint256"
        }
      ],
      "stateMutability": "view",
      "type": "function"
    },
    {
      "inputs": [
        {
          "internalType": "address",
          "name": "_user",
          "type": "address"
        }
      ],
      "name": "getUserGrabStats",
      "outputs": [
        {
          "internalType": "uint256",
          "name": "lastGrab",
          "type": "uint256"
        },
        {
          "internalType": "uint256",
          "name": "totalGrabbed",
          "type": "uint256"
        },
        {
          "internalType": "uint256",
          "name": "grabCount",
          "type": "uint256"
        }
      ],
      "stateMutability": "view",
      "type": "function"
    },
    {
      "inputs": [],
      "name": "grabETH",
      "outputs": [],
      "stateMutability": "nonpayable",
      "type": "function"
    },
    {
      "inputs": [],
      "name": "grabETHAmount",
      "outputs": [
        {
          "internalType": "uint256",
          "name": "",
          "type": "uint256"
        }
      ],
      "stateMutability": "view",
      "type": "function"
    },
    {
      "inputs": [],
      "name": "grabTimeLimit",
      "outputs": [
        {
          "internalType": "uint256",
          "name": "",
          "type": "uint256"
        }
      ],
      "stateMutability": "view",
      "type": "function"
    },
    {
      "inputs": [
        {
          "internalType": "address",
          "name": "",
          "type": "address"
        }
      ],
      "name": "lastGrabTime",
      "outputs": [
        {
          "internalType": "uint256",
          "name": "",
          "type": "uint256"
        }
      ],
      "stateMutability": "view",
      "type": "function"
    },
    {
      "inputs": [],
      "name": "owner",
      "outputs": [
        {
          "internalType": "address",
          "name": "",
          "type": "address"
        }
      ],
      "stateMutability": "view",
      "type": "function"
    },
    {
      "inputs": [],
      "name": "renounceOwnership",
      "outputs": [],
      "stateMutability": "nonpayable",
      "type": "function"
    },
    {
      "inputs": [
        {
          "internalType": "uint256",
          "name": "_grabETHAmount",
          "type": "uint256"
        }
      ],
      "name": "setGrabETH",
      "outputs": [],
      "stateMutability": "nonpayable",
      "type": "function"
    },
    {
      "inputs": [
        {
          "internalType": "uint256",
          "name": "_hours",
          "type": "uint256"
        }
      ],
      "name": "setGrabTimeLimit",
      "outputs": [],
      "stateMutability": "nonpayable",
      "type": "function"
    },
    {
      "inputs": [
        {
          "internalType": "address",
          "name": "_whitelistCA",
          "type": "address"
        }
      ],
      "name": "setWhitelistCA",
      "outputs": [],
      "stateMutability": "nonpayable",
      "type": "function"
    },
    {
      "inputs": [],
      "name": "totalDistributedETH",
      "outputs": [
        {
          "internalType": "uint256",
          "name": "",
          "type": "uint256"
        }
      ],
      "stateMutability": "view",
      "type": "function"
    },
    {
      "inputs": [],
      "name": "totalGrabRequests",
      "outputs": [
        {
          "internalType": "uint256",
          "name": "",
          "type": "uint256"
        }
      ],
      "stateMutability": "view",
      "type": "function"
    },
    {
      "inputs": [
        {
          "internalType": "address",
          "name": "",
          "type": "address"
        }
      ],
      "name": "totalGrabbedETH",
      "outputs": [
        {
          "internalType": "uint256",
          "name": "",
          "type": "uint256"
        }
      ],
      "stateMutability": "view",
      "type": "function"
    },
    {
      "inputs": [
        {
          "internalType": "address",
          "name": "_to",
          "type": "address"
        },
        {
          "internalType": "uint256",
          "name": "_amount",
          "type": "uint256"
        }
      ],
      "name": "transferETH",
      "outputs": [],
      "stateMutability": "nonpayable",
      "type": "function"
    },
    {
      "inputs": [
        {
          "internalType": "address",
          "name": "newOwner",
          "type": "address"
        }
      ],
      "name": "transferOwnership",
      "outputs": [],
      "stateMutability": "nonpayable",
      "type": "function"
    },
    {
      "inputs": [],
      "name": "whitelistCA",
      "outputs": [
        {
          "internalType": "contract Whitelist",
          "name": "",
          "type": "address"
        }
      ],
      "stateMutability": "view",
      "type": "function"
    },
    {
      "inputs": [
        {
          "internalType": "uint256",
          "name": "_amount",
          "type": "uint256"
        }
      ],
      "name": "withdrawETH",
      "outputs": [],
      "stateMutability": "nonpayable",
      "type": "function"
    },
    {
      "stateMutability": "payable",
      "type": "receive"
    }
  ],
  "bytecode": "0x608060405266b1a2bc2ec50000600355620151806004556000600755600060085560006009553480156200003257600080fd5b5060405162001cc138038062001cc1833981016040819052620000559162000135565b6200006033620000e5565b600180556001600160a01b038116620000bf5760405162461bcd60e51b815260206004820152601960248201527f496e76616c69642077686974656c697374206164647265737300000000000000604482015260640160405180910390fd5b600280546001600160a01b0319166001600160a01b039290921691909117905562000167565b600080546001600160a01b038381166001600160a01b0319831681178455604051919092169283917f8be0079c531659141344cd1fd0a4f28419497f9722a3daafe3b4186f6b6457e09190a35050565b6000602082840312156200014857600080fd5b81516001600160a01b03811681146200016057600080fd5b9392505050565b611b4a80620001776000396000f3fe6080604052600436106101855760003560e01c80639fcfdf5a116100d1578063c13463c91161008a578063ee3f94cc11610064578063ee3f94cc146104f2578063f14210a614610508578063f2fde38b14610528578063f5183d9414610548576101c2565b8063c13463c91461046d578063d10ce221146104bd578063dd191719146104dd576101c2565b80639fcfdf5a1461038a578063a0ce91d8146103c5578063ae6c9349146103e5578063b8003b4f146103fa578063b82bf87414610410578063bc244ce51461044d576101c2565b80635e90d8521161013e57806374aa34de1161011857806374aa34de146102f45780637b1a49091461030a5780638da5cb5b1461032a57806393949c5f1461035c576101c2565b80635e90d852146102c15780636a211d6a146102d7578063715018a6146102df576101c2565b806303a85a5c146101f45780630d0710fb1461023457806312065fe01461025657806323b3b6111461026957806338c24b2e1461027f5780633bbff7c5146102ac576101c2565b366101c25760405134815233907f7a5b46da290ee3d909b4070dcddb80b741e0365f2deb452791308c5c079fc573906020015b60405180910390a2005b60405134815233907f7a5b46da290ee3d909b4070dcddb80b741e0365f2deb452791308c5c079fc573906020016101b8565b34801561020057600080fd5b5061022161020f3660046117f9565b60056020526000908152604090205481565b6040519081526020015b60405180910390f35b34801561024057600080fd5b5061025461024f36600461181b565b610568565b005b34801561026257600080fd5b5047610221565b34801561027557600080fd5b5061022160045481565b34801561028b57600080fd5b5061022161029a3660046117f9565b60066020526000908152604090205481565b3480156102b857600080fd5b50610254610664565b3480156102cd57600080fd5b5061022160075481565b610254610908565b3480156102eb57600080fd5b50610254610987565b34801561030057600080fd5b5061022160095481565b34801561031657600080fd5b50610254610325366004611834565b610999565b34801561033657600080fd5b506000546001600160a01b03165b6040516001600160a01b03909116815260200161022b565b34801561036857600080fd5b5061037c6103773660046118a3565b610b15565b60405161022b9291906118e5565b34801561039657600080fd5b506103aa6103a53660046117f9565b610dd3565b6040805193845260208401929092529082015260600161022b565b3480156103d157600080fd5b506102546103e0366004611962565b610e1c565b3480156103f157600080fd5b50610221611162565b34801561040657600080fd5b5061022160085481565b34801561041c57600080fd5b5061043061042b3660046117f9565b611186565b60408051931515845260208401929092529082015260600161022b565b34801561045957600080fd5b506102546104683660046117f9565b61128d565b34801561047957600080fd5b506104906007546008546009546003546004544795565b604080519687526020870195909552938501929092526060840152608083015260a082015260c00161022b565b3480156104c957600080fd5b50600254610344906001600160a01b031681565b3480156104e957600080fd5b50610254611335565b3480156104fe57600080fd5b5061022160035481565b34801561051457600080fd5b5061025461052336600461181b565b611445565b34801561053457600080fd5b506102546105433660046117f9565b61156d565b34801561055457600080fd5b5061025461056336600461181b565b6115e6565b6105706116da565b600081116105d05760405162461bcd60e51b815260206004820152602260248201527f4772616220616d6f756e74206d7573742062652067726561746572207468616e604482015261020360f41b60648201526084015b60405180910390fd5b670de0b6b3a76400008111156106285760405162461bcd60e51b815260206004820152601f60248201527f4772616220616d6f756e7420746f6f206869676820666f72207361666574790060448201526064016105c7565b60038190556040518181527fd65f04a738a1552cb7729fb905a611d155f15797f8e82ea4aab3bfee1cea8737906020015b60405180910390a150565b60025460405163032a184360e31b81523360048201526001600160a01b0390911690631950c21890602401602060405180830381865afa1580156106ac573d6000803e3d6000fd5b505050506040513d601f19601f820116820180604052508101906106d091906119ce565b61070e5760405162461bcd60e51b815260206004820152600f60248201526e139bdd081dda1a5d195b1a5cdd1959608a1b60448201526064016105c7565b610716611734565b6003544710156107685760405162461bcd60e51b815260206004820152601b60248201527f496e73756666696369656e74206661756365742062616c616e6365000000000060448201526064016105c7565b600454336000908152600560205260409020546107859190611a06565b4210156107cb5760405162461bcd60e51b81526020600482015260146024820152734772616220636f6f6c646f776e2061637469766560601b60448201526064016105c7565b3360009081526005602052604081205490036107f757600980549060006107f183611a1f565b91905055505b33600090815260056020908152604080832042905560035460069092528220805491929091610827908490611a06565b909155505060035460078054600090610841908490611a06565b90915550506008805490600061085683611a1f565b909155505060035460405160009133918381818185875af1925050503d806000811461089e576040519150601f19603f3d011682016040523d82523d6000602084013e6108a3565b606091505b50509050806108c45760405162461bcd60e51b81526004016105c790611a38565b60035460405190815233907fcd067095e1bd1c1973aab8bb6180b94dc7b0710d2ba4384d7bb5de2776ccd72a9060200160405180910390a25061090660018055565b565b600034116109505760405162461bcd60e51b8152602060048201526015602482015274135d5cdd081cd95b9908115512081d1bc8199d5b99605a1b60448201526064016105c7565b60405134815233907f7a5b46da290ee3d909b4070dcddb80b741e0365f2deb452791308c5c079fc5739060200160405180910390a2565b61098f6116da565b610906600061178d565b6109a16116da565b6001600160a01b0382166109f35760405162461bcd60e51b8152602060048201526019602482015278496e76616c696420726563697069656e74206164647265737360381b60448201526064016105c7565b60008111610a135760405162461bcd60e51b81526004016105c790611a65565b80471015610a5a5760405162461bcd60e51b8152602060048201526014602482015273496e73756666696369656e742062616c616e636560601b60448201526064016105c7565b6000826001600160a01b03168260405160006040518083038185875af1925050503d8060008114610aa7576040519150601f19603f3d011682016040523d82523d6000602084013e610aac565b606091505b5050905080610acd5760405162461bcd60e51b81526004016105c790611a38565b826001600160a01b03167f02ff6a9b09a2eb772b863fe63d1cb4c8c68c97fac9f6e84b1c80a5305a3a149b83604051610b0891815260200190565b60405180910390a2505050565b6060808267ffffffffffffffff811115610b3157610b31611a9c565b604051908082528060200260200182016040528015610b5a578160200160208202803683370190505b5091508267ffffffffffffffff811115610b7657610b76611a9c565b604051908082528060200260200182016040528015610b9f578160200160208202803683370190505b50905060005b83811015610dca576002546001600160a01b0316631950c218868684818110610bd057610bd0611ab2565b9050602002016020810190610be591906117f9565b6040516001600160e01b031960e084901b1681526001600160a01b039091166004820152602401602060405180830381865afa158015610c29573d6000803e3d6000fd5b505050506040513d601f19601f82011682018060405250810190610c4d91906119ce565b610c9c576000838281518110610c6557610c65611ab2565b6020026020010190151590811515815250506000828281518110610c8b57610c8b611ab2565b602002602001018181525050610db8565b600060045460056000888886818110610cb757610cb7611ab2565b9050602002016020810190610ccc91906117f9565b6001600160a01b03166001600160a01b0316815260200190815260200160002054610cf79190611a06565b9050804210158015610d0b57506003544710155b15610d5b576001848381518110610d2457610d24611ab2565b6020026020010190151590811515815250506000838381518110610d4a57610d4a611ab2565b602002602001018181525050610db6565b6000848381518110610d6f57610d6f611ab2565b91151560209283029190910190910152428111610d8d576000610d97565b610d974282611ac8565b838381518110610da957610da9611ab2565b6020026020010181815250505b505b80610dc281611a1f565b915050610ba5565b505b9250929050565b6001600160a01b0381166000908152600560209081526040808320546006909252822054909181610e05576000610e12565b600354610e129083611adb565b90505b9193909250565b610e246116da565b828114610e6c5760405162461bcd60e51b8152602060048201526016602482015275082e4e4c2f2e640d8cadccee8d040dad2e6dac2e8c6d60531b60448201526064016105c7565b82610eb25760405162461bcd60e51b8152602060048201526016602482015275139bc81c9958da5c1a595b9d1cc81c1c9bdd9a59195960521b60448201526064016105c7565b6000805b82811015610ef657838382818110610ed057610ed0611ab2565b9050602002013582610ee29190611a06565b915080610eee81611a1f565b915050610eb6565b5080471015610f575760405162461bcd60e51b815260206004820152602760248201527f496e73756666696369656e742062616c616e636520666f7220626174636820746044820152663930b739b332b960c91b60648201526084016105c7565b60005b8481101561115a576000868683818110610f7657610f76611ab2565b9050602002016020810190610f8b91906117f9565b6001600160a01b031603610fdd5760405162461bcd60e51b8152602060048201526019602482015278496e76616c696420726563697069656e74206164647265737360381b60448201526064016105c7565b6000848483818110610ff157610ff1611ab2565b90506020020135116110155760405162461bcd60e51b81526004016105c790611a65565b600086868381811061102957611029611ab2565b905060200201602081019061103e91906117f9565b6001600160a01b031685858481811061105957611059611ab2565b9050602002013560405160006040518083038185875af1925050503d80600081146110a0576040519150601f19603f3d011682016040523d82523d6000602084013e6110a5565b606091505b50509050806110c65760405162461bcd60e51b81526004016105c790611a38565b8686838181106110d8576110d8611ab2565b90506020020160208101906110ed91906117f9565b6001600160a01b03167f02ff6a9b09a2eb772b863fe63d1cb4c8c68c97fac9f6e84b1c80a5305a3a149b86868581811061112957611129611ab2565b9050602002013560405161113f91815260200190565b60405180910390a2508061115281611a1f565b915050610f5a565b505050505050565b60006003546000036111745750600090565b6003546111819047611adb565b905090565b60025460405163032a184360e31b81526001600160a01b0383811660048301526000928392839290911690631950c21890602401602060405180830381865afa1580156111d7573d6000803e3d6000fd5b505050506040513d601f19601f820116820180604052508101906111fb91906119ce565b61120d57506000915081905080610e15565b6004546001600160a01b038516600090815260056020526040812054909161123491611a06565b905080421015801561124857506003544710155b1561125f5750506003546001925060009150610e15565b600042821161126f576000611279565b6112794283611ac8565b600354600096509094509250610e15915050565b6112956116da565b6001600160a01b0381166112eb5760405162461bcd60e51b815260206004820152601960248201527f496e76616c69642077686974656c69737420616464726573730000000000000060448201526064016105c7565b600280546001600160a01b0319166001600160a01b0383169081179091556040517fec3341a60a6759db781da27d2e6adbcaa885c0b9e1a973a23e973bbb0d6d405f90600090a250565b61133d6116da565b47806113805760405162461bcd60e51b81526020600482015260126024820152714e6f2045544820746f20776974686472617760701b60448201526064016105c7565b600080546040516001600160a01b039091169083908381818185875af1925050503d80600081146113cd576040519150601f19603f3d011682016040523d82523d6000602084013e6113d2565b606091505b50509050806113f35760405162461bcd60e51b81526004016105c790611a38565b6000546001600160a01b03166001600160a01b03167f5fafa99d0643513820be26656b45130b01e1c03062e1266bf36f88cbd3bd96958360405161143991815260200190565b60405180910390a25050565b61144d6116da565b6000811161146d5760405162461bcd60e51b81526004016105c790611a65565b804710156114b45760405162461bcd60e51b8152602060048201526014602482015273496e73756666696369656e742062616c616e636560601b60448201526064016105c7565b600080546040516001600160a01b039091169083908381818185875af1925050503d8060008114611501576040519150601f19603f3d011682016040523d82523d6000602084013e611506565b606091505b50509050806115275760405162461bcd60e51b81526004016105c790611a38565b6000546001600160a01b03166001600160a01b03167f02ff6a9b09a2eb772b863fe63d1cb4c8c68c97fac9f6e84b1c80a5305a3a149b8360405161143991815260200190565b6115756116da565b6001600160a01b0381166115da5760405162461bcd60e51b815260206004820152602660248201527f4f776e61626c653a206e6577206f776e657220697320746865207a65726f206160448201526564647265737360d01b60648201526084016105c7565b6115e38161178d565b50565b6115ee6116da565b600081116116485760405162461bcd60e51b815260206004820152602160248201527f54696d65206c696d6974206d7573742062652067726561746572207468616e206044820152600360fc1b60648201526084016105c7565b60a88111156116995760405162461bcd60e51b815260206004820152601f60248201527f54696d65206c696d69742063616e6e6f74206578636565642031207765656b0060448201526064016105c7565b6116a581610e10611afd565b60048190556040519081527fc4ff2709ff540d35074c0224ddf28806c8318a3901414fb63c0c5d8289520a0190602001610659565b6000546001600160a01b031633146109065760405162461bcd60e51b815260206004820181905260248201527f4f776e61626c653a2063616c6c6572206973206e6f7420746865206f776e657260448201526064016105c7565b6002600154036117865760405162461bcd60e51b815260206004820152601f60248201527f5265656e7472616e637947756172643a207265656e7472616e742063616c6c0060448201526064016105c7565b6002600155565b600080546001600160a01b038381166001600160a01b0319831681178455604051919092169283917f8be0079c531659141344cd1fd0a4f28419497f9722a3daafe3b4186f6b6457e09190a35050565b80356001600160a01b03811681146117f457600080fd5b919050565b60006020828403121561180b57600080fd5b611814826117dd565b9392505050565b60006020828403121561182d57600080fd5b5035919050565b6000806040838503121561184757600080fd5b611850836117dd565b946020939093013593505050565b60008083601f84011261187057600080fd5b50813567ffffffffffffffff81111561188857600080fd5b6020830191508360208260051b8501011115610dcc57600080fd5b600080602083850312156118b657600080fd5b823567ffffffffffffffff8111156118cd57600080fd5b6118d98582860161185e565b90969095509350505050565b604080825283519082018190526000906020906060840190828701845b82811015611920578151151584529284019290840190600101611902565b5050508381038285015284518082528583019183019060005b8181101561195557835183529284019291840191600101611939565b5090979650505050505050565b6000806000806040858703121561197857600080fd5b843567ffffffffffffffff8082111561199057600080fd5b61199c8883890161185e565b909650945060208701359150808211156119b557600080fd5b506119c28782880161185e565b95989497509550505050565b6000602082840312156119e057600080fd5b8151801515811461181457600080fd5b634e487b7160e01b600052601160045260246000fd5b80820180821115611a1957611a196119f0565b92915050565b600060018201611a3157611a316119f0565b5060010190565b602080825260139082015272115512081d1c985b9cd9995c8819985a5b1959606a1b604082015260600190565b6020808252601d908201527f416d6f756e74206d7573742062652067726561746572207468616e2030000000604082015260600190565b634e487b7160e01b600052604160045260246000fd5b634e487b7160e01b600052603260045260246000fd5b81810381811115611a1957611a196119f0565b600082611af857634e487b7160e01b600052601260045260246000fd5b500490565b8082028115828204841417611a1957611a196119f056fea2646970667358221220bcda16066c9629db7c245336df4a972105c77229e3541323c5258af61e65127964736f6c63430008130033",
  "linkReferences": {},
  "deployedLinkReferences": {}
}