{
  "_format": "hh-sol-artifact-1",
  "contractName": "GameToken",
  "sourceName": "contracts/GameToken.sol",
  "abi": [
    {
      "inputs": [
        {
          "internalType": "string",
          "name": "_name",
          "type": "string"
        },
        {
          "internalType": "string",
          "name": "_symbol",
          "type": "string"
        },
        {
          "internalType": "uint256",
          "name": "_tokenPrice",
          "type": "uint256"
        },
        {
          "internalType": "address",
          "name": "_whitelistAddress",
          "type": "address"
        }
      ],
      "stateMutability": "nonpayable",
      "type": "constructor"
    },
    {
      "anonymous": false,
      "inputs": [
        {
          "indexed": true,
          "internalType": "address",
          "name": "owner",
          "type": "address"
        },
        {
          "indexed": true,
          "internalType": "address",
          "name": "spender",
          "type": "address"
        },
        {
          "indexed": false,
          "internalType": "uint256",
          "name": "value",
          "type": "uint256"
        }
      ],
      "name": "Approval",
      "type": "event"
    },
    {
      "anonymous": false,
      "inputs": [
        {
          "indexed": false,
          "internalType": "uint256",
          "name": "newLimit",
          "type": "uint256"
        }
      ],
      "name": "BuyLimitChanged",
      "type": "event"
    },
    {
      "anonymous": false,
      "inputs": [
        {
          "indexed": false,
          "internalType": "uint256",
          "name": "newLimit",
          "type": "uint256"
        }
      ],
      "name": "MaxTokensPer24HoursChanged",
      "type": "event"
    },
    {
      "anonymous": false,
      "inputs": [
        {
          "indexed": false,
          "internalType": "uint256",
          "name": "newLimit",
          "type": "uint256"
        }
      ],
      "name": "MaxTokensPerPurchaseChanged",
      "type": "event"
    },
    {
      "anonymous": false,
      "inputs": [
        {
          "indexed": true,
          "internalType": "address",
          "name": "previousOwner",
          "type": "address"
        },
        {
          "indexed": true,
          "internalType": "address",
          "name": "newOwner",
          "type": "address"
        }
      ],
      "name": "OwnershipTransferred",
      "type": "event"
    },
    {
      "anonymous": false,
      "inputs": [
        {
          "indexed": false,
          "internalType": "uint256",
          "name": "newPrice",
          "type": "uint256"
        }
      ],
      "name": "TokenPriceChanged",
      "type": "event"
    },
    {
      "anonymous": false,
      "inputs": [
        {
          "indexed": true,
          "internalType": "address",
          "name": "buyer",
          "type": "address"
        },
        {
          "indexed": false,
          "internalType": "uint256",
          "name": "amount",
          "type": "uint256"
        },
        {
          "indexed": false,
          "internalType": "uint256",
          "name": "totalCost",
          "type": "uint256"
        }
      ],
      "name": "TokensBought",
      "type": "event"
    },
    {
      "anonymous": false,
      "inputs": [
        {
          "indexed": true,
          "internalType": "address",
          "name": "from",
          "type": "address"
        },
        {
          "indexed": true,
          "internalType": "address",
          "name": "to",
          "type": "address"
        },
        {
          "indexed": false,
          "internalType": "uint256",
          "name": "value",
          "type": "uint256"
        }
      ],
      "name": "Transfer",
      "type": "event"
    },
    {
      "anonymous": false,
      "inputs": [
        {
          "indexed": false,
          "internalType": "address",
          "name": "newAddress",
          "type": "address"
        }
      ],
      "name": "WhitelistAddressChanged",
      "type": "event"
    },
    {
      "inputs": [],
      "name": "BUY_PERIOD",
      "outputs": [
        {
          "internalType": "uint256",
          "name": "",
          "type": "uint256"
        }
      ],
      "stateMutability": "view",
      "type": "function"
    },
    {
      "inputs": [
        {
          "internalType": "address",
          "name": "owner",
          "type": "address"
        },
        {
          "internalType": "address",
          "name": "spender",
          "type": "address"
        }
      ],
      "name": "allowance",
      "outputs": [
        {
          "internalType": "uint256",
          "name": "",
          "type": "uint256"
        }
      ],
      "stateMutability": "view",
      "type": "function"
    },
    {
      "inputs": [
        {
          "internalType": "address",
          "name": "spender",
          "type": "address"
        },
        {
          "internalType": "uint256",
          "name": "amount",
          "type": "uint256"
        }
      ],
      "name": "approve",
      "outputs": [
        {
          "internalType": "bool",
          "name": "",
          "type": "bool"
        }
      ],
      "stateMutability": "nonpayable",
      "type": "function"
    },
    {
      "inputs": [
        {
          "internalType": "address",
          "name": "account",
          "type": "address"
        }
      ],
      "name": "balanceOf",
      "outputs": [
        {
          "internalType": "uint256",
          "name": "",
          "type": "uint256"
        }
      ],
      "stateMutability": "view",
      "type": "function"
    },
    {
      "inputs": [],
      "name": "buyPer24Hours",
      "outputs": [
        {
          "internalType": "uint256",
          "name": "",
          "type": "uint256"
        }
      ],
      "stateMutability": "view",
      "type": "function"
    },
    {
      "inputs": [
        {
          "internalType": "uint256",
          "name": "_amount",
          "type": "uint256"
        }
      ],
      "name": "buyTokens",
      "outputs": [],
      "stateMutability": "payable",
      "type": "function"
    },
    {
      "inputs": [
        {
          "internalType": "uint256",
          "name": "_amount",
          "type": "uint256"
        }
      ],
      "name": "calculateCost",
      "outputs": [
        {
          "internalType": "uint256",
          "name": "cost",
          "type": "uint256"
        }
      ],
      "stateMutability": "view",
      "type": "function"
    },
    {
      "inputs": [
        {
          "internalType": "address",
          "name": "_user",
          "type": "address"
        },
        {
          "internalType": "uint256",
          "name": "_amount",
          "type": "uint256"
        }
      ],
      "name": "canUserBuy",
      "outputs": [
        {
          "internalType": "bool",
          "name": "canBuy",
          "type": "bool"
        },
        {
          "internalType": "uint256",
          "name": "reason",
          "type": "uint256"
        }
      ],
      "stateMutability": "view",
      "type": "function"
    },
    {
      "inputs": [],
      "name": "decimals",
      "outputs": [
        {
          "internalType": "uint8",
          "name": "",
          "type": "uint8"
        }
      ],
      "stateMutability": "view",
      "type": "function"
    },
    {
      "inputs": [
        {
          "internalType": "address",
          "name": "spender",
          "type": "address"
        },
        {
          "internalType": "uint256",
          "name": "subtractedValue",
          "type": "uint256"
        }
      ],
      "name": "decreaseAllowance",
      "outputs": [
        {
          "internalType": "bool",
          "name": "",
          "type": "bool"
        }
      ],
      "stateMutability": "nonpayable",
      "type": "function"
    },
    {
      "inputs": [
        {
          "internalType": "uint256",
          "name": "_amount",
          "type": "uint256"
        }
      ],
      "name": "emergencyWithdrawTokens",
      "outputs": [],
      "stateMutability": "nonpayable",
      "type": "function"
    },
    {
      "inputs": [
        {
          "internalType": "address",
          "name": "user",
          "type": "address"
        }
      ],
      "name": "getBuyInfo",
      "outputs": [
        {
          "internalType": "uint256",
          "name": "count",
          "type": "uint256"
        },
        {
          "internalType": "uint256",
          "name": "lastTime",
          "type": "uint256"
        },
        {
          "internalType": "uint256",
          "name": "limit",
          "type": "uint256"
        }
      ],
      "stateMutability": "view",
      "type": "function"
    },
    {
      "inputs": [],
      "name": "getContractInfo",
      "outputs": [
        {
          "internalType": "string",
          "name": "contractName",
          "type": "string"
        },
        {
          "internalType": "string",
          "name": "tokenSymbol",
          "type": "string"
        },
        {
          "internalType": "uint256",
          "name": "totalTokenSupply",
          "type": "uint256"
        },
        {
          "internalType": "uint256",
          "name": "contractBalance",
          "type": "uint256"
        }
      ],
      "stateMutability": "view",
      "type": "function"
    },
    {
      "inputs": [],
      "name": "getContractTokenBalance",
      "outputs": [
        {
          "internalType": "uint256",
          "name": "",
          "type": "uint256"
        }
      ],
      "stateMutability": "view",
      "type": "function"
    },
    {
      "inputs": [],
      "name": "getSalesStatistics",
      "outputs": [
        {
          "internalType": "uint256",
          "name": "totalSales",
          "type": "uint256"
        },
        {
          "internalType": "uint256",
          "name": "tokensSold",
          "type": "uint256"
        },
        {
          "internalType": "uint256",
          "name": "transactions",
          "type": "uint256"
        },
        {
          "internalType": "uint256",
          "name": "currentPrice",
          "type": "uint256"
        },
        {
          "internalType": "uint256",
          "name": "remainingSupply",
          "type": "uint256"
        }
      ],
      "stateMutability": "view",
      "type": "function"
    },
    {
      "inputs": [],
      "name": "getTotalSalesETH",
      "outputs": [
        {
          "internalType": "uint256",
          "name": "",
          "type": "uint256"
        }
      ],
      "stateMutability": "view",
      "type": "function"
    },
    {
      "inputs": [
        {
          "internalType": "address",
          "name": "_user",
          "type": "address"
        }
      ],
      "name": "getUserPurchaseStats",
      "outputs": [
        {
          "internalType": "uint256",
          "name": "purchaseCount",
          "type": "uint256"
        },
        {
          "internalType": "uint256",
          "name": "lastPurchaseTime",
          "type": "uint256"
        },
        {
          "internalType": "uint256",
          "name": "remainingPurchases",
          "type": "uint256"
        },
        {
          "internalType": "uint256",
          "name": "tokensBoughtToday",
          "type": "uint256"
        },
        {
          "internalType": "uint256",
          "name": "remainingTokens",
          "type": "uint256"
        }
      ],
      "stateMutability": "view",
      "type": "function"
    },
    {
      "inputs": [
        {
          "internalType": "address",
          "name": "spender",
          "type": "address"
        },
        {
          "internalType": "uint256",
          "name": "addedValue",
          "type": "uint256"
        }
      ],
      "name": "increaseAllowance",
      "outputs": [
        {
          "internalType": "bool",
          "name": "",
          "type": "bool"
        }
      ],
      "stateMutability": "nonpayable",
      "type": "function"
    },
    {
      "inputs": [],
      "name": "maxTokensPer24Hours",
      "outputs": [
        {
          "internalType": "uint256",
          "name": "",
          "type": "uint256"
        }
      ],
      "stateMutability": "view",
      "type": "function"
    },
    {
      "inputs": [],
      "name": "maxTokensPerPurchase",
      "outputs": [
        {
          "internalType": "uint256",
          "name": "",
          "type": "uint256"
        }
      ],
      "stateMutability": "view",
      "type": "function"
    },
    {
      "inputs": [
        {
          "internalType": "uint256",
          "name": "_amount",
          "type": "uint256"
        }
      ],
      "name": "mintToContract",
      "outputs": [],
      "stateMutability": "nonpayable",
      "type": "function"
    },
    {
      "inputs": [],
      "name": "name",
      "outputs": [
        {
          "internalType": "string",
          "name": "",
          "type": "string"
        }
      ],
      "stateMutability": "view",
      "type": "function"
    },
    {
      "inputs": [],
      "name": "owner",
      "outputs": [
        {
          "internalType": "address",
          "name": "",
          "type": "address"
        }
      ],
      "stateMutability": "view",
      "type": "function"
    },
    {
      "inputs": [],
      "name": "renounceOwnership",
      "outputs": [],
      "stateMutability": "nonpayable",
      "type": "function"
    },
    {
      "inputs": [
        {
          "internalType": "uint256",
          "name": "_newLimit",
          "type": "uint256"
        }
      ],
      "name": "setBuyPer24Hours",
      "outputs": [],
      "stateMutability": "nonpayable",
      "type": "function"
    },
    {
      "inputs": [
        {
          "internalType": "uint256",
          "name": "_newLimit",
          "type": "uint256"
        }
      ],
      "name": "setMaxTokensPer24Hours",
      "outputs": [],
      "stateMutability": "nonpayable",
      "type": "function"
    },
    {
      "inputs": [
        {
          "internalType": "uint256",
          "name": "_newLimit",
          "type": "uint256"
        }
      ],
      "name": "setMaxTokensPerPurchase",
      "outputs": [],
      "stateMutability": "nonpayable",
      "type": "function"
    },
    {
      "inputs": [
        {
          "internalType": "uint256",
          "name": "_newPrice",
          "type": "uint256"
        }
      ],
      "name": "setTokenPrice",
      "outputs": [],
      "stateMutability": "nonpayable",
      "type": "function"
    },
    {
      "inputs": [
        {
          "internalType": "address",
          "name": "_newAddress",
          "type": "address"
        }
      ],
      "name": "setWhitelistAddress",
      "outputs": [],
      "stateMutability": "nonpayable",
      "type": "function"
    },
    {
      "inputs": [],
      "name": "symbol",
      "outputs": [
        {
          "internalType": "string",
          "name": "",
          "type": "string"
        }
      ],
      "stateMutability": "view",
      "type": "function"
    },
    {
      "inputs": [],
      "name": "tokenPrice",
      "outputs": [
        {
          "internalType": "uint256",
          "name": "",
          "type": "uint256"
        }
      ],
      "stateMutability": "view",
      "type": "function"
    },
    {
      "inputs": [],
      "name": "totalSalesETH",
      "outputs": [
        {
          "internalType": "uint256",
          "name": "",
          "type": "uint256"
        }
      ],
      "stateMutability": "view",
      "type": "function"
    },
    {
      "inputs": [],
      "name": "totalSupply",
      "outputs": [
        {
          "internalType": "uint256",
          "name": "",
          "type": "uint256"
        }
      ],
      "stateMutability": "view",
      "type": "function"
    },
    {
      "inputs": [],
      "name": "totalTokensSold",
      "outputs": [
        {
          "internalType": "uint256",
          "name": "",
          "type": "uint256"
        }
      ],
      "stateMutability": "view",
      "type": "function"
    },
    {
      "inputs": [],
      "name": "totalTransactions",
      "outputs": [
        {
          "internalType": "uint256",
          "name": "",
          "type": "uint256"
        }
      ],
      "stateMutability": "view",
      "type": "function"
    },
    {
      "inputs": [
        {
          "internalType": "address",
          "name": "to",
          "type": "address"
        },
        {
          "internalType": "uint256",
          "name": "amount",
          "type": "uint256"
        }
      ],
      "name": "transfer",
      "outputs": [
        {
          "internalType": "bool",
          "name": "",
          "type": "bool"
        }
      ],
      "stateMutability": "nonpayable",
      "type": "function"
    },
    {
      "inputs": [
        {
          "internalType": "address",
          "name": "from",
          "type": "address"
        },
        {
          "internalType": "address",
          "name": "to",
          "type": "address"
        },
        {
          "internalType": "uint256",
          "name": "amount",
          "type": "uint256"
        }
      ],
      "name": "transferFrom",
      "outputs": [
        {
          "internalType": "bool",
          "name": "",
          "type": "bool"
        }
      ],
      "stateMutability": "nonpayable",
      "type": "function"
    },
    {
      "inputs": [
        {
          "internalType": "address",
          "name": "newOwner",
          "type": "address"
        }
      ],
      "name": "transferOwnership",
      "outputs": [],
      "stateMutability": "nonpayable",
      "type": "function"
    },
    {
      "inputs": [],
      "name": "whitelist",
      "outputs": [
        {
          "internalType": "contract Whitelist",
          "name": "",
          "type": "address"
        }
      ],
      "stateMutability": "view",
      "type": "function"
    },
    {
      "inputs": [],
      "name": "withdraw",
      "outputs": [],
      "stateMutability": "nonpayable",
      "type": "function"
    }
  ],
  "bytecode": "0x608060405260036009556003600a556003600b556000600f55600060105560006011553480156200002f57600080fd5b50604051620025143803806200251483398101604081905262000052916200032c565b838360036200006283826200044f565b5060046200007182826200044f565b5050506200008e620000886200014960201b60201c565b6200014d565b60016006556001600160a01b038116620000ef5760405162461bcd60e51b815260206004820152601960248201527f496e76616c69642077686974656c69737420616464726573730000000000000060448201526064015b60405180910390fd5b600780546001600160a01b0319166001600160a01b03831617905560088290556200013f306200011d601290565b6200012a90600a62000630565b6200013990620f424062000648565b6200019f565b5050505062000678565b3390565b600580546001600160a01b038381166001600160a01b0319831681179093556040519116919082907f8be0079c531659141344cd1fd0a4f28419497f9722a3daafe3b4186f6b6457e090600090a35050565b6001600160a01b038216620001f75760405162461bcd60e51b815260206004820152601f60248201527f45524332303a206d696e7420746f20746865207a65726f2061646472657373006044820152606401620000e6565b80600260008282546200020b919062000662565b90915550506001600160a01b038216600081815260208181526040808320805486019055518481527fddf252ad1be2c89b69c2b068fc378daa952ba7f163c4a11628f55a4df523b3ef910160405180910390a35050565b505050565b634e487b7160e01b600052604160045260246000fd5b600082601f8301126200028f57600080fd5b81516001600160401b0380821115620002ac57620002ac62000267565b604051601f8301601f19908116603f01168101908282118183101715620002d757620002d762000267565b81604052838152602092508683858801011115620002f457600080fd5b600091505b83821015620003185785820183015181830184015290820190620002f9565b600093810190920192909252949350505050565b600080600080608085870312156200034357600080fd5b84516001600160401b03808211156200035b57600080fd5b62000369888389016200027d565b955060208701519150808211156200038057600080fd5b506200038f878288016200027d565b60408701516060880151919550935090506001600160a01b0381168114620003b657600080fd5b939692955090935050565b600181811c90821680620003d657607f821691505b602082108103620003f757634e487b7160e01b600052602260045260246000fd5b50919050565b601f8211156200026257600081815260208120601f850160051c81016020861015620004265750805b601f850160051c820191505b81811015620004475782815560010162000432565b505050505050565b81516001600160401b038111156200046b576200046b62000267565b62000483816200047c8454620003c1565b84620003fd565b602080601f831160018114620004bb5760008415620004a25750858301515b600019600386901b1c1916600185901b17855562000447565b600085815260208120601f198616915b82811015620004ec57888601518255948401946001909101908401620004cb565b50858210156200050b5787850151600019600388901b60f8161c191681555b5050505050600190811b01905550565b634e487b7160e01b600052601160045260246000fd5b600181815b80851115620005725781600019048211156200055657620005566200051b565b808516156200056457918102915b93841c939080029062000536565b509250929050565b6000826200058b575060016200062a565b816200059a575060006200062a565b8160018114620005b35760028114620005be57620005de565b60019150506200062a565b60ff841115620005d257620005d26200051b565b50506001821b6200062a565b5060208310610133831016604e8410600b841016171562000603575081810a6200062a565b6200060f838362000531565b80600019048211156200062657620006266200051b565b0290505b92915050565b60006200064160ff8416836200057a565b9392505050565b80820281158282048414176200062a576200062a6200051b565b808201808211156200062a576200062a6200051b565b611e8c80620006886000396000f3fe60806040526004361061023b5760003560e01c8063715018a61161012e578063b9a60038116100ab578063dd62ed3e1161006f578063dd62ed3e146106d3578063e2756ea1146106f3578063f2fde38b14610709578063f30f8b5414610729578063f36b55411461073f57600080fd5b8063b9a6003814610630578063be0c4e8714610646578063c0a398c114610666578063c4d5890f14610686578063c5b3d5d71461069c57600080fd5b806393e59dc1116100f257806393e59dc11461059b57806395d89b41146105bb578063a224c745146105d0578063a457c2d7146105f0578063a9059cbb1461061057600080fd5b8063715018a6146104f95780637cc1f8671461050e5780637ff9b596146105335780638da5cb5b146105495780639177045e1461057b57600080fd5b806339509351116101bc5780634f42a167116101805780634f42a16714610476578063577152071461048d57806363b20117146104a35780636a61e5fc146104b957806370a08231146104d957600080fd5b806339509351146103e15780633ccfd60b146104015780633e6df504146104165780634156f553146104365780634af18f4f1461045657600080fd5b806323b872dd1161020357806323b872dd14610319578063313ce56714610339578063317d9453146103555780633610724e1461036a578063390adde51461037d57600080fd5b806306fdde0314610240578063095ea7b31461026b57806309fefdfc1461029b57806318160ddd146102d85780631b326fad146102f7575b600080fd5b34801561024c57600080fd5b50610255610754565b6040516102629190611aa3565b60405180910390f35b34801561027757600080fd5b5061028b610286366004611ad9565b6107e6565b6040519015158152602001610262565b3480156102a757600080fd5b506102b0610800565b604080519586526020860194909452928401919091526060830152608082015260a001610262565b3480156102e457600080fd5b506002545b604051908152602001610262565b34801561030357600080fd5b50610317610312366004611b03565b61082e565b005b34801561032557600080fd5b5061028b610334366004611b1c565b61089b565b34801561034557600080fd5b5060405160128152602001610262565b34801561036157600080fd5b506102e96108bf565b610317610378366004611b03565b6108cf565b34801561038957600080fd5b506103c6610398366004611b58565b6001600160a01b03166000908152600c6020908152604080832054600d909252909120546009549192909190565b60408051938452602084019290925290820152606001610262565b3480156103ed57600080fd5b5061028b6103fc366004611ad9565b610d36565b34801561040d57600080fd5b50610317610d58565b34801561042257600080fd5b50610317610431366004611b03565b610de3565b34801561044257600080fd5b506102b0610451366004611b58565b610e7f565b34801561046257600080fd5b506102e9610471366004611b03565b610f2e565b34801561048257600080fd5b506102e96201518081565b34801561049957600080fd5b506102e9600a5481565b3480156104af57600080fd5b506102e960105481565b3480156104c557600080fd5b506103176104d4366004611b03565b610f3e565b3480156104e557600080fd5b506102e96104f4366004611b58565b610fcb565b34801561050557600080fd5b50610317610fe6565b34801561051a57600080fd5b50610523610ffa565b6040516102629493929190611b73565b34801561053f57600080fd5b506102e960085481565b34801561055557600080fd5b506005546001600160a01b03165b6040516001600160a01b039091168152602001610262565b34801561058757600080fd5b50610317610596366004611b03565b61103a565b3480156105a757600080fd5b50600754610563906001600160a01b031681565b3480156105c757600080fd5b50610255611097565b3480156105dc57600080fd5b506103176105eb366004611b58565b6110a6565b3480156105fc57600080fd5b5061028b61060b366004611ad9565b611152565b34801561061c57600080fd5b5061028b61062b366004611ad9565b6111cd565b34801561063c57600080fd5b506102e960115481565b34801561065257600080fd5b50610317610661366004611b03565b6111db565b34801561067257600080fd5b50610317610681366004611b03565b611238565b34801561069257600080fd5b506102e9600b5481565b3480156106a857600080fd5b506106bc6106b7366004611ad9565b61126a565b604080519215158352602083019190915201610262565b3480156106df57600080fd5b506102e96106ee366004611bac565b6113e5565b3480156106ff57600080fd5b506102e960095481565b34801561071557600080fd5b50610317610724366004611b58565b611410565b34801561073557600080fd5b506102e9600f5481565b34801561074b57600080fd5b50600f546102e9565b60606003805461076390611bdf565b80601f016020809104026020016040519081016040528092919081815260200182805461078f90611bdf565b80156107dc5780601f106107b1576101008083540402835291602001916107dc565b820191906000526020600020905b8154815290600101906020018083116107bf57829003601f168201915b5050505050905090565b6000336107f4818585611486565b60019150505b92915050565b6000806000806000600f5460105460115460085461081d30610fcb565b945094509450945094509091929394565b6108366115aa565b6000811161085f5760405162461bcd60e51b815260040161085690611c19565b60405180910390fd5b600a8190556040518181527feda4946ffee5551bc8efd0a63469083c91478a050da9e8b6a23de0ba261a132c906020015b60405180910390a150565b6000336108a9858285611604565b6108b485858561167e565b506001949350505050565b60006108ca30610fcb565b905090565b60075460405163032a184360e31b81523360048201526001600160a01b0390911690631950c21890602401602060405180830381865afa158015610917573d6000803e3d6000fd5b505050506040513d601f19601f8201168201806040525081019061093b9190611c50565b6109795760405162461bcd60e51b815260206004820152600f60248201526e139bdd081dda1a5d195b1a5cdd1959608a1b6044820152606401610856565b610981611822565b600081116109a15760405162461bcd60e51b815260040161085690611c72565b60006109af6012600a611da3565b6109b99083611db2565b905060008111610a1b5760405162461bcd60e51b815260206004820152602760248201527f4d696e696d756d20312077686f6c6520746f6b656e2070757263686173652072604482015266195c5d5a5c995960ca1b6064820152608401610856565b600a54811115610a6d5760405162461bcd60e51b815260206004820152601f60248201527f45786365656473206d617820746f6b656e7320706572207075726368617365006044820152606401610856565b336000908152600d6020526040902054610a8b906201518090611dd4565b421115610aa357336000908152600e60205260408120555b600b54336000908152600e6020526040902054610ac1908390611dd4565b1115610b0f5760405162461bcd60e51b815260206004820152601960248201527f45786365656473206461696c7920746f6b656e206c696d6974000000000000006044820152606401610856565b81610b1930610fcb565b1015610b675760405162461bcd60e51b815260206004820152601960248201527f496e73756666696369656e7420746f6b656e20737570706c79000000000000006044820152606401610856565b6000610b756012600a611da3565b600854610b829085611de7565b610b8c9190611db2565b905080341015610bd65760405162461bcd60e51b8152602060048201526015602482015274125b9cdd59999a58da595b9d08115512081cd95b9d605a1b6044820152606401610856565b610bde61187b565b336000908152600e602052604081208054849290610bfd908490611dd4565b90915550610c0e905030338561167e565b80600f6000828254610c209190611dd4565b925050819055508160106000828254610c399190611dd4565b909155505060118054906000610c4e83611dfe565b919050555080341115610cec57600033610c688334611e17565b604051600081818185875af1925050503d8060008114610ca4576040519150601f19603f3d011682016040523d82523d6000602084013e610ca9565b606091505b5050905080610cea5760405162461bcd60e51b815260206004820152600d60248201526c1499599d5b990819985a5b1959609a1b6044820152606401610856565b505b604080518481526020810183905233917f8442948036198f1146d3a63c3db355d7e0295c2cc5676c755990445da4fdc1c9910160405180910390a25050610d336001600655565b50565b6000336107f4818585610d4983836113e5565b610d539190611dd4565b611486565b610d606115aa565b4780610da55760405162461bcd60e51b81526020600482015260146024820152734e6f2066756e647320746f20776974686472617760601b6044820152606401610856565b6005546040516001600160a01b039091169082156108fc029083906000818181858888f19350505050158015610ddf573d6000803e3d6000fd5b5050565b610deb6115aa565b60008111610e0b5760405162461bcd60e51b815260040161085690611c72565b80610e1530610fcb565b1015610e635760405162461bcd60e51b815260206004820152601a60248201527f496e73756666696369656e7420746f6b656e2062616c616e63650000000000006044820152606401610856565b610d3330610e796005546001600160a01b031690565b8361167e565b6001600160a01b0381166000908152600c6020908152604080832054600d835281842054600e909352908320548392839283928392908380610ec46201518085611dd4565b421115610edc575050600954600b5460009250610f1d565b8460095411610eec576000610efa565b84600954610efa9190611e17565b915082600b5411610f0c576000610f1a565b82600b54610f1a9190611e17565b90505b939a92995097509550909350915050565b6000600854826107fa9190611de7565b610f466115aa565b60008111610f965760405162461bcd60e51b815260206004820152601c60248201527f5072696365206d7573742062652067726561746572207468616e2030000000006044820152606401610856565b60088190556040518181527fac21bacd333b316c6640fca5086322638b0a7aa4367179afd5dfcbe0a5427bc790602001610890565b6001600160a01b031660009081526020819052604090205490565b610fee6115aa565b610ff8600061194c565b565b606080600080611008611097565b60025461101430610fcb565b6040518060600160405280602c8152602001611e2b602c91399792965090945092509050565b6110426115aa565b600081116110625760405162461bcd60e51b815260040161085690611c19565b600b8190556040518181527fa0e28a1d1ca473a527bbdf2605aa7b481a9c5e38b55fd87d8fce02182aad038e90602001610890565b60606004805461076390611bdf565b6110ae6115aa565b6001600160a01b0381166111045760405162461bcd60e51b815260206004820152601960248201527f496e76616c69642077686974656c6973742061646472657373000000000000006044820152606401610856565b600780546001600160a01b0319166001600160a01b0383169081179091556040519081527f7d6c324a6caac2b03df779ee40edbef0a5410a7eec60184b142c1d4283f50ce190602001610890565b6000338161116082866113e5565b9050838110156111c05760405162461bcd60e51b815260206004820152602560248201527f45524332303a2064656372656173656420616c6c6f77616e63652062656c6f77604482015264207a65726f60d81b6064820152608401610856565b6108b48286868403611486565b6000336107f481858561167e565b6111e36115aa565b600081116112035760405162461bcd60e51b815260040161085690611c19565b60098190556040518181527fda507447cb23104470557e2e8e3107a058b12fb5998b407bf1cb705d838ac12e90602001610890565b6112406115aa565b600081116112605760405162461bcd60e51b815260040161085690611c72565b610d33308261199e565b60075460405163032a184360e31b81526001600160a01b0384811660048301526000928392911690631950c21890602401602060405180830381865afa1580156112b8573d6000803e3d6000fd5b505050506040513d601f19601f820116820180604052508101906112dc9190611c50565b6112ec57506000905060016113de565b600a5483111561130257506000905060056113de565b6001600160a01b0384166000908152600c6020908152604080832054600d90925290912054611335906201518090611dd4565b421115801561134657506009548110155b15611359576000600292509250506113de565b6001600160a01b0385166000908152600e6020908152604080832054600d9092529091205461138c906201518090611dd4565b42116113b457600b5461139f8683611dd4565b11156113b457600060039350935050506113de565b846113be30610fcb565b10156113d357600060049350935050506113de565b600160009350935050505b9250929050565b6001600160a01b03918216600090815260016020908152604080832093909416825291909152205490565b6114186115aa565b6001600160a01b03811661147d5760405162461bcd60e51b815260206004820152602660248201527f4f776e61626c653a206e6577206f776e657220697320746865207a65726f206160448201526564647265737360d01b6064820152608401610856565b610d338161194c565b6001600160a01b0383166114e85760405162461bcd60e51b8152602060048201526024808201527f45524332303a20617070726f76652066726f6d20746865207a65726f206164646044820152637265737360e01b6064820152608401610856565b6001600160a01b0382166115495760405162461bcd60e51b815260206004820152602260248201527f45524332303a20617070726f766520746f20746865207a65726f206164647265604482015261737360f01b6064820152608401610856565b6001600160a01b0383811660008181526001602090815260408083209487168084529482529182902085905590518481527f8c5be1e5ebec7d5bd14f71427d1e84f3dd0314c0f7b2291e5b200ac8c7c3b925910160405180910390a3505050565b6005546001600160a01b03163314610ff85760405162461bcd60e51b815260206004820181905260248201527f4f776e61626c653a2063616c6c6572206973206e6f7420746865206f776e65726044820152606401610856565b600061161084846113e5565b90506000198114611678578181101561166b5760405162461bcd60e51b815260206004820152601d60248201527f45524332303a20696e73756666696369656e7420616c6c6f77616e63650000006044820152606401610856565b6116788484848403611486565b50505050565b6001600160a01b0383166116e25760405162461bcd60e51b815260206004820152602560248201527f45524332303a207472616e736665722066726f6d20746865207a65726f206164604482015264647265737360d81b6064820152608401610856565b6001600160a01b0382166117445760405162461bcd60e51b815260206004820152602360248201527f45524332303a207472616e7366657220746f20746865207a65726f206164647260448201526265737360e81b6064820152608401610856565b6001600160a01b038316600090815260208190526040902054818110156117bc5760405162461bcd60e51b815260206004820152602660248201527f45524332303a207472616e7366657220616d6f756e7420657863656564732062604482015265616c616e636560d01b6064820152608401610856565b6001600160a01b03848116600081815260208181526040808320878703905593871680835291849020805487019055925185815290927fddf252ad1be2c89b69c2b068fc378daa952ba7f163c4a11628f55a4df523b3ef910160405180910390a3611678565b6002600654036118745760405162461bcd60e51b815260206004820152601f60248201527f5265656e7472616e637947756172643a207265656e7472616e742063616c6c006044820152606401610856565b6002600655565b336000908152600d6020526040902054611899906201518090611dd4565b4211156118ca57336000908152600c6020908152604080832060019055600d8252808320429055600e909152812055565b600954336000908152600c60205260409020541061192a5760405162461bcd60e51b815260206004820152601760248201527f4461696c7920627579206c696d697420726561636865640000000000000000006044820152606401610856565b336000908152600c6020526040812080549161194583611dfe565b9190505550565b600580546001600160a01b038381166001600160a01b0319831681179093556040519116919082907f8be0079c531659141344cd1fd0a4f28419497f9722a3daafe3b4186f6b6457e090600090a35050565b6001600160a01b0382166119f45760405162461bcd60e51b815260206004820152601f60248201527f45524332303a206d696e7420746f20746865207a65726f2061646472657373006044820152606401610856565b8060026000828254611a069190611dd4565b90915550506001600160a01b038216600081815260208181526040808320805486019055518481527fddf252ad1be2c89b69c2b068fc378daa952ba7f163c4a11628f55a4df523b3ef910160405180910390a35050565b6000815180845260005b81811015611a8357602081850181015186830182015201611a67565b506000602082860101526020601f19601f83011685010191505092915050565b602081526000611ab66020830184611a5d565b9392505050565b80356001600160a01b0381168114611ad457600080fd5b919050565b60008060408385031215611aec57600080fd5b611af583611abd565b946020939093013593505050565b600060208284031215611b1557600080fd5b5035919050565b600080600060608486031215611b3157600080fd5b611b3a84611abd565b9250611b4860208501611abd565b9150604084013590509250925092565b600060208284031215611b6a57600080fd5b611ab682611abd565b608081526000611b866080830187611a5d565b8281036020840152611b988187611a5d565b604084019590955250506060015292915050565b60008060408385031215611bbf57600080fd5b611bc883611abd565b9150611bd660208401611abd565b90509250929050565b600181811c90821680611bf357607f821691505b602082108103611c1357634e487b7160e01b600052602260045260246000fd5b50919050565b6020808252601c908201527f4c696d6974206d7573742062652067726561746572207468616e203000000000604082015260600190565b600060208284031215611c6257600080fd5b81518015158114611ab657600080fd5b6020808252601d908201527f416d6f756e74206d7573742062652067726561746572207468616e2030000000604082015260600190565b634e487b7160e01b600052601160045260246000fd5b600181815b80851115611cfa578160001904821115611ce057611ce0611ca9565b80851615611ced57918102915b93841c9390800290611cc4565b509250929050565b600082611d11575060016107fa565b81611d1e575060006107fa565b8160018114611d345760028114611d3e57611d5a565b60019150506107fa565b60ff841115611d4f57611d4f611ca9565b50506001821b6107fa565b5060208310610133831016604e8410600b8410161715611d7d575081810a6107fa565b611d878383611cbf565b8060001904821115611d9b57611d9b611ca9565b029392505050565b6000611ab660ff841683611d02565b600082611dcf57634e487b7160e01b600052601260045260246000fd5b500490565b808201808211156107fa576107fa611ca9565b80820281158282048414176107fa576107fa611ca9565b600060018201611e1057611e10611ca9565b5060010190565b818103818111156107fa576107fa611ca956fe47616d65546f6b656e202d20455243323020546f6b656e2077697468205075726368617365204c696d697473a26469706673582212202159cc0b0417c3d070def4519fc57cd117754b9c4d3c589bfaf2f3f7a77fcde364736f6c63430008130033",
  "linkReferences": {},
  "deployedLinkReferences": {}
}