{
  "_format": "hh-sol-artifact-1",
  "contractName": "GameNFTCustom",
  "sourceName": "contracts/GameNFTCustom.sol",
  "abi": [
    {
      "inputs": [
        {
          "internalType": "string",
          "name": "_name",
          "type": "string"
        },
        {
          "internalType": "string",
          "name": "_symbol",
          "type": "string"
        },
        {
          "internalType": "uint256",
          "name": "_mintPrice",
          "type": "uint256"
        },
        {
          "internalType": "address",
          "name": "_whitelistAddress",
          "type": "address"
        }
      ],
      "stateMutability": "nonpayable",
      "type": "constructor"
    },
    {
      "anonymous": false,
      "inputs": [
        {
          "indexed": true,
          "internalType": "address",
          "name": "owner",
          "type": "address"
        },
        {
          "indexed": true,
          "internalType": "address",
          "name": "approved",
          "type": "address"
        },
        {
          "indexed": true,
          "internalType": "uint256",
          "name": "tokenId",
          "type": "uint256"
        }
      ],
      "name": "Approval",
      "type": "event"
    },
    {
      "anonymous": false,
      "inputs": [
        {
          "indexed": true,
          "internalType": "address",
          "name": "owner",
          "type": "address"
        },
        {
          "indexed": true,
          "internalType": "address",
          "name": "operator",
          "type": "address"
        },
        {
          "indexed": false,
          "internalType": "bool",
          "name": "approved",
          "type": "bool"
        }
      ],
      "name": "ApprovalForAll",
      "type": "event"
    },
    {
      "anonymous": false,
      "inputs": [
        {
          "indexed": false,
          "internalType": "uint256",
          "name": "_fromTokenId",
          "type": "uint256"
        },
        {
          "indexed": false,
          "internalType": "uint256",
          "name": "_toTokenId",
          "type": "uint256"
        }
      ],
      "name": "BatchMetadataUpdate",
      "type": "event"
    },
    {
      "anonymous": false,
      "inputs": [
        {
          "indexed": false,
          "internalType": "uint256",
          "name": "newLimit",
          "type": "uint256"
        }
      ],
      "name": "BatchMintAddressLimitChanged",
      "type": "event"
    },
    {
      "anonymous": false,
      "inputs": [
        {
          "indexed": false,
          "internalType": "uint256",
          "name": "newPrice",
          "type": "uint256"
        }
      ],
      "name": "BatchMintPriceChanged",
      "type": "event"
    },
    {
      "anonymous": false,
      "inputs": [
        {
          "indexed": true,
          "internalType": "address",
          "name": "minter",
          "type": "address"
        },
        {
          "indexed": false,
          "internalType": "address[]",
          "name": "recipients",
          "type": "address[]"
        },
        {
          "indexed": false,
          "internalType": "uint256[]",
          "name": "tokenIds",
          "type": "uint256[]"
        }
      ],
      "name": "BatchNFTMinted",
      "type": "event"
    },
    {
      "anonymous": false,
      "inputs": [
        {
          "indexed": true,
          "internalType": "address",
          "name": "tokenAddress",
          "type": "address"
        }
      ],
      "name": "ERC20TokenSet",
      "type": "event"
    },
    {
      "anonymous": false,
      "inputs": [
        {
          "indexed": false,
          "internalType": "uint256",
          "name": "_tokenId",
          "type": "uint256"
        }
      ],
      "name": "MetadataUpdate",
      "type": "event"
    },
    {
      "anonymous": false,
      "inputs": [
        {
          "indexed": false,
          "internalType": "uint256",
          "name": "newLimit",
          "type": "uint256"
        }
      ],
      "name": "MintLimitChanged",
      "type": "event"
    },
    {
      "anonymous": false,
      "inputs": [
        {
          "indexed": false,
          "internalType": "uint256",
          "name": "newPrice",
          "type": "uint256"
        }
      ],
      "name": "MintPriceChanged",
      "type": "event"
    },
    {
      "anonymous": false,
      "inputs": [
        {
          "indexed": true,
          "internalType": "address",
          "name": "to",
          "type": "address"
        },
        {
          "indexed": true,
          "internalType": "uint256",
          "name": "tokenId",
          "type": "uint256"
        },
        {
          "indexed": false,
          "internalType": "string",
          "name": "tokenURI",
          "type": "string"
        }
      ],
      "name": "NFTMinted",
      "type": "event"
    },
    {
      "anonymous": false,
      "inputs": [
        {
          "indexed": true,
          "internalType": "address",
          "name": "previousOwner",
          "type": "address"
        },
        {
          "indexed": true,
          "internalType": "address",
          "name": "newOwner",
          "type": "address"
        }
      ],
      "name": "OwnershipTransferred",
      "type": "event"
    },
    {
      "anonymous": false,
      "inputs": [
        {
          "indexed": true,
          "internalType": "address",
          "name": "from",
          "type": "address"
        },
        {
          "indexed": true,
          "internalType": "address",
          "name": "to",
          "type": "address"
        },
        {
          "indexed": true,
          "internalType": "uint256",
          "name": "tokenId",
          "type": "uint256"
        }
      ],
      "name": "Transfer",
      "type": "event"
    },
    {
      "anonymous": false,
      "inputs": [
        {
          "indexed": false,
          "internalType": "bool",
          "name": "enabled",
          "type": "bool"
        }
      ],
      "name": "TransfersToggled",
      "type": "event"
    },
    {
      "anonymous": false,
      "inputs": [
        {
          "indexed": false,
          "internalType": "address",
          "name": "newAddress",
          "type": "address"
        }
      ],
      "name": "WhitelistAddressChanged",
      "type": "event"
    },
    {
      "inputs": [],
      "name": "MINT_PERIOD",
      "outputs": [
        {
          "internalType": "uint256",
          "name": "",
          "type": "uint256"
        }
      ],
      "stateMutability": "view",
      "type": "function"
    },
    {
      "inputs": [
        {
          "internalType": "address",
          "name": "to",
          "type": "address"
        },
        {
          "internalType": "uint256",
          "name": "tokenId",
          "type": "uint256"
        }
      ],
      "name": "approve",
      "outputs": [],
      "stateMutability": "nonpayable",
      "type": "function"
    },
    {
      "inputs": [
        {
          "internalType": "address",
          "name": "owner",
          "type": "address"
        }
      ],
      "name": "balanceOf",
      "outputs": [
        {
          "internalType": "uint256",
          "name": "",
          "type": "uint256"
        }
      ],
      "stateMutability": "view",
      "type": "function"
    },
    {
      "inputs": [],
      "name": "batchMintPriceWithERC20",
      "outputs": [
        {
          "internalType": "uint256",
          "name": "",
          "type": "uint256"
        }
      ],
      "stateMutability": "view",
      "type": "function"
    },
    {
      "inputs": [
        {
          "internalType": "address[]",
          "name": "_recipients",
          "type": "address[]"
        }
      ],
      "name": "batchMintWithERC20",
      "outputs": [],
      "stateMutability": "nonpayable",
      "type": "function"
    },
    {
      "inputs": [],
      "name": "erc20ContractAddress",
      "outputs": [
        {
          "internalType": "address",
          "name": "",
          "type": "address"
        }
      ],
      "stateMutability": "view",
      "type": "function"
    },
    {
      "inputs": [],
      "name": "erc20Token",
      "outputs": [
        {
          "internalType": "contract IERC20",
          "name": "",
          "type": "address"
        }
      ],
      "stateMutability": "view",
      "type": "function"
    },
    {
      "inputs": [
        {
          "internalType": "uint256",
          "name": "tokenId",
          "type": "uint256"
        }
      ],
      "name": "getApproved",
      "outputs": [
        {
          "internalType": "address",
          "name": "",
          "type": "address"
        }
      ],
      "stateMutability": "view",
      "type": "function"
    },
    {
      "inputs": [
        {
          "internalType": "address",
          "name": "_address",
          "type": "address"
        }
      ],
      "name": "getMintStats",
      "outputs": [
        {
          "internalType": "uint256",
          "name": "",
          "type": "uint256"
        },
        {
          "internalType": "uint256",
          "name": "",
          "type": "uint256"
        },
        {
          "internalType": "uint256",
          "name": "",
          "type": "uint256"
        }
      ],
      "stateMutability": "view",
      "type": "function"
    },
    {
      "inputs": [],
      "name": "getSalesStatistics",
      "outputs": [
        {
          "internalType": "uint256",
          "name": "totalETHSales",
          "type": "uint256"
        },
        {
          "internalType": "uint256",
          "name": "totalERC20Sales",
          "type": "uint256"
        },
        {
          "internalType": "uint256",
          "name": "nftsMintedWithETH",
          "type": "uint256"
        },
        {
          "internalType": "uint256",
          "name": "nftsMintedWithERC20",
          "type": "uint256"
        },
        {
          "internalType": "uint256",
          "name": "ethTransactions",
          "type": "uint256"
        },
        {
          "internalType": "uint256",
          "name": "batchTransactions",
          "type": "uint256"
        },
        {
          "internalType": "uint256",
          "name": "currentPrice",
          "type": "uint256"
        },
        {
          "internalType": "uint256",
          "name": "batchPrice",
          "type": "uint256"
        }
      ],
      "stateMutability": "view",
      "type": "function"
    },
    {
      "inputs": [],
      "name": "getTotalSalesETH",
      "outputs": [
        {
          "internalType": "uint256",
          "name": "",
          "type": "uint256"
        }
      ],
      "stateMutability": "view",
      "type": "function"
    },
    {
      "inputs": [
        {
          "internalType": "address",
          "name": "owner",
          "type": "address"
        },
        {
          "internalType": "address",
          "name": "operator",
          "type": "address"
        }
      ],
      "name": "isApprovedForAll",
      "outputs": [
        {
          "internalType": "bool",
          "name": "",
          "type": "bool"
        }
      ],
      "stateMutability": "view",
      "type": "function"
    },
    {
      "inputs": [
        {
          "internalType": "address",
          "name": "_to",
          "type": "address"
        },
        {
          "internalType": "string",
          "name": "_tokenURI",
          "type": "string"
        }
      ],
      "name": "mintNFT",
      "outputs": [],
      "stateMutability": "payable",
      "type": "function"
    },
    {
      "inputs": [],
      "name": "mintPer24Hours",
      "outputs": [
        {
          "internalType": "uint256",
          "name": "",
          "type": "uint256"
        }
      ],
      "stateMutability": "view",
      "type": "function"
    },
    {
      "inputs": [],
      "name": "mintPrice",
      "outputs": [
        {
          "internalType": "uint256",
          "name": "",
          "type": "uint256"
        }
      ],
      "stateMutability": "view",
      "type": "function"
    },
    {
      "inputs": [],
      "name": "name",
      "outputs": [
        {
          "internalType": "string",
          "name": "",
          "type": "string"
        }
      ],
      "stateMutability": "view",
      "type": "function"
    },
    {
      "inputs": [],
      "name": "numbersOfAddressesBatchMintERC20",
      "outputs": [
        {
          "internalType": "uint256",
          "name": "",
          "type": "uint256"
        }
      ],
      "stateMutability": "view",
      "type": "function"
    },
    {
      "inputs": [],
      "name": "owner",
      "outputs": [
        {
          "internalType": "address",
          "name": "",
          "type": "address"
        }
      ],
      "stateMutability": "view",
      "type": "function"
    },
    {
      "inputs": [
        {
          "internalType": "uint256",
          "name": "tokenId",
          "type": "uint256"
        }
      ],
      "name": "ownerOf",
      "outputs": [
        {
          "internalType": "address",
          "name": "",
          "type": "address"
        }
      ],
      "stateMutability": "view",
      "type": "function"
    },
    {
      "inputs": [],
      "name": "renounceOwnership",
      "outputs": [],
      "stateMutability": "nonpayable",
      "type": "function"
    },
    {
      "inputs": [
        {
          "internalType": "address",
          "name": "from",
          "type": "address"
        },
        {
          "internalType": "address",
          "name": "to",
          "type": "address"
        },
        {
          "internalType": "uint256",
          "name": "tokenId",
          "type": "uint256"
        }
      ],
      "name": "safeTransferFrom",
      "outputs": [],
      "stateMutability": "nonpayable",
      "type": "function"
    },
    {
      "inputs": [
        {
          "internalType": "address",
          "name": "from",
          "type": "address"
        },
        {
          "internalType": "address",
          "name": "to",
          "type": "address"
        },
        {
          "internalType": "uint256",
          "name": "tokenId",
          "type": "uint256"
        },
        {
          "internalType": "bytes",
          "name": "data",
          "type": "bytes"
        }
      ],
      "name": "safeTransferFrom",
      "outputs": [],
      "stateMutability": "nonpayable",
      "type": "function"
    },
    {
      "inputs": [
        {
          "internalType": "address",
          "name": "operator",
          "type": "address"
        },
        {
          "internalType": "bool",
          "name": "approved",
          "type": "bool"
        }
      ],
      "name": "setApprovalForAll",
      "outputs": [],
      "stateMutability": "nonpayable",
      "type": "function"
    },
    {
      "inputs": [
        {
          "internalType": "uint256",
          "name": "_price",
          "type": "uint256"
        }
      ],
      "name": "setBatchMintPriceWithERC20",
      "outputs": [],
      "stateMutability": "nonpayable",
      "type": "function"
    },
    {
      "inputs": [
        {
          "internalType": "address",
          "name": "_erc20Token",
          "type": "address"
        }
      ],
      "name": "setERC20Token",
      "outputs": [],
      "stateMutability": "nonpayable",
      "type": "function"
    },
    {
      "inputs": [
        {
          "internalType": "uint256",
          "name": "_newLimit",
          "type": "uint256"
        }
      ],
      "name": "setMintPer24Hours",
      "outputs": [],
      "stateMutability": "nonpayable",
      "type": "function"
    },
    {
      "inputs": [
        {
          "internalType": "uint256",
          "name": "_newPrice",
          "type": "uint256"
        }
      ],
      "name": "setMintPrice",
      "outputs": [],
      "stateMutability": "nonpayable",
      "type": "function"
    },
    {
      "inputs": [
        {
          "internalType": "uint256",
          "name": "_numberOfAddresses",
          "type": "uint256"
        }
      ],
      "name": "setNumbersOfAddressesBatchMintERC20",
      "outputs": [],
      "stateMutability": "nonpayable",
      "type": "function"
    },
    {
      "inputs": [
        {
          "internalType": "bool",
          "name": "_enabled",
          "type": "bool"
        }
      ],
      "name": "setTransfersEnabled",
      "outputs": [],
      "stateMutability": "nonpayable",
      "type": "function"
    },
    {
      "inputs": [
        {
          "internalType": "address",
          "name": "_newAddress",
          "type": "address"
        }
      ],
      "name": "setWhitelistAddress",
      "outputs": [],
      "stateMutability": "nonpayable",
      "type": "function"
    },
    {
      "inputs": [
        {
          "internalType": "bytes4",
          "name": "interfaceId",
          "type": "bytes4"
        }
      ],
      "name": "supportsInterface",
      "outputs": [
        {
          "internalType": "bool",
          "name": "",
          "type": "bool"
        }
      ],
      "stateMutability": "view",
      "type": "function"
    },
    {
      "inputs": [],
      "name": "symbol",
      "outputs": [
        {
          "internalType": "string",
          "name": "",
          "type": "string"
        }
      ],
      "stateMutability": "view",
      "type": "function"
    },
    {
      "inputs": [
        {
          "internalType": "uint256",
          "name": "tokenId",
          "type": "uint256"
        }
      ],
      "name": "tokenURI",
      "outputs": [
        {
          "internalType": "string",
          "name": "",
          "type": "string"
        }
      ],
      "stateMutability": "view",
      "type": "function"
    },
    {
      "inputs": [],
      "name": "totalBatchSalesERC20",
      "outputs": [
        {
          "internalType": "uint256",
          "name": "",
          "type": "uint256"
        }
      ],
      "stateMutability": "view",
      "type": "function"
    },
    {
      "inputs": [],
      "name": "totalBatchTransactions",
      "outputs": [
        {
          "internalType": "uint256",
          "name": "",
          "type": "uint256"
        }
      ],
      "stateMutability": "view",
      "type": "function"
    },
    {
      "inputs": [],
      "name": "totalETHTransactions",
      "outputs": [
        {
          "internalType": "uint256",
          "name": "",
          "type": "uint256"
        }
      ],
      "stateMutability": "view",
      "type": "function"
    },
    {
      "inputs": [],
      "name": "totalNFTsMintedWithERC20",
      "outputs": [
        {
          "internalType": "uint256",
          "name": "",
          "type": "uint256"
        }
      ],
      "stateMutability": "view",
      "type": "function"
    },
    {
      "inputs": [],
      "name": "totalNFTsMintedWithETH",
      "outputs": [
        {
          "internalType": "uint256",
          "name": "",
          "type": "uint256"
        }
      ],
      "stateMutability": "view",
      "type": "function"
    },
    {
      "inputs": [],
      "name": "totalSalesETH",
      "outputs": [
        {
          "internalType": "uint256",
          "name": "",
          "type": "uint256"
        }
      ],
      "stateMutability": "view",
      "type": "function"
    },
    {
      "inputs": [
        {
          "internalType": "address",
          "name": "from",
          "type": "address"
        },
        {
          "internalType": "address",
          "name": "to",
          "type": "address"
        },
        {
          "internalType": "uint256",
          "name": "tokenId",
          "type": "uint256"
        }
      ],
      "name": "transferFrom",
      "outputs": [],
      "stateMutability": "nonpayable",
      "type": "function"
    },
    {
      "inputs": [
        {
          "internalType": "address",
          "name": "newOwner",
          "type": "address"
        }
      ],
      "name": "transferOwnership",
      "outputs": [],
      "stateMutability": "nonpayable",
      "type": "function"
    },
    {
      "inputs": [],
      "name": "transfersEnabled",
      "outputs": [
        {
          "internalType": "bool",
          "name": "",
          "type": "bool"
        }
      ],
      "stateMutability": "view",
      "type": "function"
    },
    {
      "inputs": [],
      "name": "whitelist",
      "outputs": [
        {
          "internalType": "contract Whitelist",
          "name": "",
          "type": "address"
        }
      ],
      "stateMutability": "view",
      "type": "function"
    },
    {
      "inputs": [],
      "name": "withdraw",
      "outputs": [],
      "stateMutability": "nonpayable",
      "type": "function"
    }
  ],
  "bytecode": "0x60806040526003600d55600e805460ff19166001179055670de0b6b3a7640000600f5560026010556000601481905560158190556016819055601781905560188190556019553480156200005257600080fd5b506040516200325d3803806200325d83398101604081905262000075916200025a565b838360006200008583826200037e565b5060016200009482826200037e565b505050620000b1620000ab6200013f60201b60201c565b62000143565b60016008556001600160a01b038116620001115760405162461bcd60e51b815260206004820152601960248201527f496e76616c69642077686974656c697374206164647265737300000000000000604482015260640160405180910390fd5b600c91909155600a80546001600160a01b0319166001600160a01b03909216919091179055506200044a9050565b3390565b600780546001600160a01b038381166001600160a01b0319831681179093556040519116919082907f8be0079c531659141344cd1fd0a4f28419497f9722a3daafe3b4186f6b6457e090600090a35050565b634e487b7160e01b600052604160045260246000fd5b600082601f830112620001bd57600080fd5b81516001600160401b0380821115620001da57620001da62000195565b604051601f8301601f19908116603f0116810190828211818310171562000205576200020562000195565b816040528381526020925086838588010111156200022257600080fd5b600091505b8382101562000246578582018301518183018401529082019062000227565b600093810190920192909252949350505050565b600080600080608085870312156200027157600080fd5b84516001600160401b03808211156200028957600080fd5b6200029788838901620001ab565b95506020870151915080821115620002ae57600080fd5b50620002bd87828801620001ab565b60408701516060880151919550935090506001600160a01b0381168114620002e457600080fd5b939692955090935050565b600181811c908216806200030457607f821691505b6020821081036200032557634e487b7160e01b600052602260045260246000fd5b50919050565b601f8211156200037957600081815260208120601f850160051c81016020861015620003545750805b601f850160051c820191505b81811015620003755782815560010162000360565b5050505b505050565b81516001600160401b038111156200039a576200039a62000195565b620003b281620003ab8454620002ef565b846200032b565b602080601f831160018114620003ea5760008415620003d15750858301515b600019600386901b1c1916600185901b17855562000375565b600085815260208120601f198616915b828110156200041b57888601518255948401946001909101908401620003fa565b50858210156200043a5787850151600019600388901b60f8161c191681555b5050505050600190811b01905550565b612e03806200045a6000396000f3fe6080604052600436106102675760003560e01c80638a13eea711610144578063cdcf9435116100b6578063eacabe141161007a578063eacabe141461073a578063efc111ad1461074d578063f2fde38b1461076d578063f30f8b541461078d578063f36b5541146107a3578063f4a0a528146107b857600080fd5b8063cdcf9435146106a4578063cf35d7b0146106c4578063de562487146106da578063e486df15146106fa578063e985e9c51461071a57600080fd5b8063a224c74511610108578063a224c745146105f4578063a22cb46514610614578063b88d4fde14610634578063bd39884514610654578063bef97c871461066a578063c87b56dd1461068457600080fd5b80638a13eea71461056b5780638da5cb5b1461058b5780639238fe86146105a957806393e59dc1146105bf57806395d89b41146105df57600080fd5b80634084a268116101dd578063715018a6116101a1578063715018a6146104b8578063757ebff3146104cd5780637bbed93a146104e357806380955f70146104f957806383ea6e9714610519578063840e15d41461053057600080fd5b80634084a2681461042c57806342842e0e146104425780636352211e146104625780636817c76c1461048257806370a082311461049857600080fd5b806309fefdfc1161022f57806309fefdfc146103415780631eef9f40146103a157806323b872dd146103b757806326b9ce13146103d7578063391fac7e146103f75780633ccfd60b1461041757600080fd5b806301ffc9a71461026c57806306fdde03146102a1578063081812fc146102c3578063087c736e146102fb578063095ea7b31461031f575b600080fd5b34801561027857600080fd5b5061028c6102873660046125fc565b6107d8565b60405190151581526020015b60405180910390f35b3480156102ad57600080fd5b506102b66107e9565b6040516102989190612669565b3480156102cf57600080fd5b506102e36102de36600461267c565b61087b565b6040516001600160a01b039091168152602001610298565b34801561030757600080fd5b5061031160185481565b604051908152602001610298565b34801561032b57600080fd5b5061033f61033a3660046126b1565b6108a2565b005b34801561034d57600080fd5b50601454601554601654601754601854601954600c54600f54604080519889526020890197909752958701949094526060860192909252608085015260a084015260c083015260e082015261010001610298565b3480156103ad57600080fd5b50610311600f5481565b3480156103c357600080fd5b5061033f6103d23660046126db565b6109bc565b3480156103e357600080fd5b5061033f6103f2366004612725565b6109e9565b34801561040357600080fd5b5061033f610412366004612742565b610a39565b34801561042357600080fd5b5061033f611031565b34801561043857600080fd5b5061031160175481565b34801561044e57600080fd5b5061033f61045d3660046126db565b6110b8565b34801561046e57600080fd5b506102e361047d36600461267c565b6110e5565b34801561048e57600080fd5b50610311600c5481565b3480156104a457600080fd5b506103116104b33660046127b7565b611145565b3480156104c457600080fd5b5061033f6111cb565b3480156104d957600080fd5b5061031160155481565b3480156104ef57600080fd5b5061031160195481565b34801561050557600080fd5b5061033f61051436600461267c565b6111df565b34801561052557600080fd5b506103116201518081565b34801561053c57600080fd5b5061055061054b3660046127b7565b611284565b60408051938452602084019290925290820152606001610298565b34801561057757600080fd5b50600b546102e3906001600160a01b031681565b34801561059757600080fd5b506007546001600160a01b03166102e3565b3480156105b557600080fd5b5061031160105481565b3480156105cb57600080fd5b50600a546102e3906001600160a01b031681565b3480156105eb57600080fd5b506102b66112f8565b34801561060057600080fd5b5061033f61060f3660046127b7565b611307565b34801561062057600080fd5b5061033f61062f3660046127d2565b6113b3565b34801561064057600080fd5b5061033f61064f366004612895565b6113be565b34801561066057600080fd5b50610311600d5481565b34801561067657600080fd5b50600e5461028c9060ff1681565b34801561069057600080fd5b506102b661069f36600461267c565b6113f2565b3480156106b057600080fd5b5061033f6106bf36600461267c565b6113fd565b3480156106d057600080fd5b5061031160165481565b3480156106e657600080fd5b5061033f6106f53660046127b7565b61148a565b34801561070657600080fd5b506011546102e3906001600160a01b031681565b34801561072657600080fd5b5061028c610735366004612911565b61153e565b61033f610748366004612944565b61156c565b34801561075957600080fd5b5061033f61076836600461267c565b611888565b34801561077957600080fd5b5061033f6107883660046127b7565b611915565b34801561079957600080fd5b5061031160145481565b3480156107af57600080fd5b50601454610311565b3480156107c457600080fd5b5061033f6107d336600461267c565b61198e565b60006107e3826119cb565b92915050565b6060600080546107f8906129a6565b80601f0160208091040260200160405190810160405280929190818152602001828054610824906129a6565b80156108715780601f1061084657610100808354040283529160200191610871565b820191906000526020600020905b81548152906001019060200180831161085457829003601f168201915b5050505050905090565b6000610886826119f0565b506000908152600460205260409020546001600160a01b031690565b60006108ad826110e5565b9050806001600160a01b0316836001600160a01b03160361091f5760405162461bcd60e51b815260206004820152602160248201527f4552433732313a20617070726f76616c20746f2063757272656e74206f776e656044820152603960f91b60648201526084015b60405180910390fd5b336001600160a01b038216148061093b575061093b813361153e565b6109ad5760405162461bcd60e51b815260206004820152603d60248201527f4552433732313a20617070726f76652063616c6c6572206973206e6f7420746f60448201527f6b656e206f776e6572206f7220617070726f76656420666f7220616c6c0000006064820152608401610916565b6109b78383611a4f565b505050565b600e5460ff166109de5760405162461bcd60e51b8152600401610916906129e0565b6109b7838383611abd565b6109f1611aee565b600e805460ff19168215159081179091556040519081527fe1965432af4c9923f6ebb98f1721262967cfa6178008742d23041dc8ee74ee8f906020015b60405180910390a150565b600a5460405163032a184360e31b81523360048201526001600160a01b0390911690631950c21890602401602060405180830381865afa158015610a81573d6000803e3d6000fd5b505050506040513d601f19601f82011682018060405250810190610aa59190612a10565b610ae35760405162461bcd60e51b815260206004820152600f60248201526e139bdd081dda1a5d195b1a5cdd1959608a1b6044820152606401610916565b610aeb611b48565b600b546001600160a01b0316610b395760405162461bcd60e51b8152602060048201526013602482015272115490cc8c081d1bdad95b881b9bdd081cd95d606a1b6044820152606401610916565b8015801590610b4a57506010548111155b610b965760405162461bcd60e51b815260206004820152601c60248201527f496e76616c6964206e756d626572206f6620726563697069656e7473000000006044820152606401610916565b6011546001600160a01b0316610bee5760405162461bcd60e51b815260206004820152601e60248201527f455243323020636f6e74726163742061646472657373206e6f742073657400006044820152606401610916565b600f54600090610bff908390612a43565b600b546040516370a0823160e01b815233600482015291925082916001600160a01b03909116906370a0823190602401602060405180830381865afa158015610c4c573d6000803e3d6000fd5b505050506040513d601f19601f82011682018060405250810190610c709190612a5a565b1015610cbe5760405162461bcd60e51b815260206004820181905260248201527f496e73756666696369656e7420455243323020746f6b656e2062616c616e63656044820152606401610916565b600b54604051636eb1769f60e11b815233600482015230602482015282916001600160a01b03169063dd62ed3e90604401602060405180830381865afa158015610d0c573d6000803e3d6000fd5b505050506040513d601f19601f82011682018060405250810190610d309190612a5a565b1015610d895760405162461bcd60e51b815260206004820152602260248201527f496e73756666696369656e7420455243323020746f6b656e20616c6c6f77616e604482015261636560f01b6064820152608401610916565b600b546011546040516323b872dd60e01b81523360048201526001600160a01b039182166024820152604481018490529116906323b872dd906064016020604051808303816000875af1158015610de4573d6000803e3d6000fd5b505050506040513d601f19601f82011682018060405250810190610e089190612a10565b610e4c5760405162461bcd60e51b8152602060048201526015602482015274115490cc8c081d1c985b9cd9995c8819985a5b1959605a1b6044820152606401610916565b60008267ffffffffffffffff811115610e6757610e67612809565b604051908082528060200260200182016040528015610e90578160200160208202803683370190505b50905060005b83811015610f95576000858583818110610eb257610eb2612a73565b9050602002016020810190610ec791906127b7565b6001600160a01b031603610f195760405162461bcd60e51b8152602060048201526019602482015278496e76616c696420726563697069656e74206164647265737360381b6044820152606401610916565b6000610f2460095490565b9050610f34600980546001019055565b610f64868684818110610f4957610f49612a73565b9050602002016020810190610f5e91906127b7565b82611ba1565b80838381518110610f7757610f77612a73565b60209081029190910101525080610f8d81612a89565b915050610e96565b508160156000828254610fa89190612aa2565b909155505060178054849190600090610fc2908490612aa2565b909155505060198054906000610fd783612a89565b9190505550336001600160a01b03167f7a1f3e4a388ac3e1dc0419eb02df2b52d319ee221cd2a2b4e8ace7747bf8ccfa85858460405161101993929190612ab5565b60405180910390a2505061102d6001600855565b5050565b611039611aee565b478061107e5760405162461bcd60e51b81526020600482015260146024820152734e6f2066756e647320746f20776974686472617760601b6044820152606401610916565b6007546040516001600160a01b039091169082156108fc029083906000818181858888f1935050505015801561102d573d6000803e3d6000fd5b600e5460ff166110da5760405162461bcd60e51b8152600401610916906129e0565b6109b7838383611bbb565b6000818152600260205260408120546001600160a01b0316806107e35760405162461bcd60e51b8152602060048201526018602482015277115490cdcc8c4e881a5b9d985b1a59081d1bdad95b88125160421b6044820152606401610916565b60006001600160a01b0382166111af5760405162461bcd60e51b815260206004820152602960248201527f4552433732313a2061646472657373207a65726f206973206e6f7420612076616044820152683634b21037bbb732b960b91b6064820152608401610916565b506001600160a01b031660009081526003602052604090205490565b6111d3611aee565b6111dd6000611bd6565b565b6111e7611aee565b6000811180156111f8575060028111155b61124f5760405162461bcd60e51b815260206004820152602260248201527f4e756d626572206f6620616464726573736573206d7573742062652031206f72604482015261101960f11b6064820152608401610916565b60108190556040518181527f95e2a0c30a59952e4241d096c6adb218fa64122be761b2ec82e2acde248a6f0990602001610a2e565b6001600160a01b038116600090815260126020908152604080832054601390925282205482918291826112ba6201518083612aa2565b4211156112ca5750600d546112eb565b82600d54116112da5760006112e8565b82600d546112e89190612b3f565b90505b9196909550909350915050565b6060600180546107f8906129a6565b61130f611aee565b6001600160a01b0381166113655760405162461bcd60e51b815260206004820152601960248201527f496e76616c69642077686974656c6973742061646472657373000000000000006044820152606401610916565b600a80546001600160a01b0319166001600160a01b0383169081179091556040519081527f7d6c324a6caac2b03df779ee40edbef0a5410a7eec60184b142c1d4283f50ce190602001610a2e565b61102d338383611c28565b600e5460ff166113e05760405162461bcd60e51b8152600401610916906129e0565b6113ec84848484611cf6565b50505050565b60606107e382611d28565b611405611aee565b600081116114555760405162461bcd60e51b815260206004820152601c60248201527f4c696d6974206d7573742062652067726561746572207468616e2030000000006044820152606401610916565b600d8190556040518181527f9ae30a041b5f2244849dc754c675b09aef4ad230b48995476fd6e6415d1fe8ab90602001610a2e565b611492611aee565b6001600160a01b0381166114e85760405162461bcd60e51b815260206004820152601b60248201527f496e76616c696420455243323020746f6b656e206164647265737300000000006044820152606401610916565b600b80546001600160a01b0383166001600160a01b0319918216811790925560118054909116821790556040517f7d3c9565539ab2a2fbab89595563415671dab894bb5b4b6067bcca2735a0e94590600090a250565b6001600160a01b03918216600090815260056020908152604080832093909416825291909152205460ff1690565b600a5460405163032a184360e31b81523360048201526001600160a01b0390911690631950c21890602401602060405180830381865afa1580156115b4573d6000803e3d6000fd5b505050506040513d601f19601f820116820180604052508101906115d89190612a10565b6116165760405162461bcd60e51b815260206004820152600f60248201526e139bdd081dda1a5d195b1a5cdd1959608a1b6044820152606401610916565b61161e611b48565b600c543410156116675760405162461bcd60e51b8152602060048201526014602482015273125b9cdd59999a58da595b9d081c185e5b595b9d60621b6044820152606401610916565b6001600160a01b0382166116b95760405162461bcd60e51b8152602060048201526019602482015278496e76616c696420726563697069656e74206164647265737360381b6044820152606401610916565b336000908152601360205260409020546116d7906201518090612aa2565b421115611703573360009081526012602090815260408083206001905560139091529020429055611784565b600d5433600090815260126020526040902054106117635760405162461bcd60e51b815260206004820152601860248201527f4461696c79206d696e74206c696d6974207265616368656400000000000000006044820152606401610916565b33600090815260126020526040812080549161177e83612a89565b91905055505b600061178f60095490565b905061179f600980546001019055565b6117a98382611ba1565b6117b38183611e38565b34601460008282546117c59190612aa2565b9091555050601680549060006117da83612a89565b9091555050601880549060006117ef83612a89565b9190505550600c5434111561183b57600c5433906108fc906118119034612b3f565b6040518115909202916000818181858888f19350505050158015611839573d6000803e3d6000fd5b505b80836001600160a01b03167fd35bb95e09c04b219e35047ce7b7b300e3384264ef84a40456943dbc0fc17c14846040516118759190612669565b60405180910390a35061102d6001600855565b611890611aee565b600081116118e05760405162461bcd60e51b815260206004820152601c60248201527f5072696365206d7573742062652067726561746572207468616e2030000000006044820152606401610916565b600f8190556040518181527fe75259100e50e40f190e7105ddc6a58ecccc5a9d45d3667cb0850b182a626d8190602001610a2e565b61191d611aee565b6001600160a01b0381166119825760405162461bcd60e51b815260206004820152602660248201527f4f776e61626c653a206e6577206f776e657220697320746865207a65726f206160448201526564647265737360d01b6064820152608401610916565b61198b81611bd6565b50565b611996611aee565b600c8190556040518181527f25b1f9f6b6e61dfca5575239769e4450ed2e49176670837f5d1a82a9a2fc693f90602001610a2e565b60006001600160e01b03198216632483248360e11b14806107e357506107e382611f03565b6000818152600260205260409020546001600160a01b031661198b5760405162461bcd60e51b8152602060048201526018602482015277115490cdcc8c4e881a5b9d985b1a59081d1bdad95b88125160421b6044820152606401610916565b600081815260046020526040902080546001600160a01b0319166001600160a01b0384169081179091558190611a84826110e5565b6001600160a01b03167f8c5be1e5ebec7d5bd14f71427d1e84f3dd0314c0f7b2291e5b200ac8c7c3b92560405160405180910390a45050565b611ac73382611f53565b611ae35760405162461bcd60e51b815260040161091690612b52565b6109b7838383611fb1565b6007546001600160a01b031633146111dd5760405162461bcd60e51b815260206004820181905260248201527f4f776e61626c653a2063616c6c6572206973206e6f7420746865206f776e65726044820152606401610916565b600260085403611b9a5760405162461bcd60e51b815260206004820152601f60248201527f5265656e7472616e637947756172643a207265656e7472616e742063616c6c006044820152606401610916565b6002600855565b61102d828260405180602001604052806000815250612115565b6109b7838383604051806020016040528060008152506113be565b600780546001600160a01b038381166001600160a01b0319831681179093556040519116919082907f8be0079c531659141344cd1fd0a4f28419497f9722a3daafe3b4186f6b6457e090600090a35050565b816001600160a01b0316836001600160a01b031603611c895760405162461bcd60e51b815260206004820152601960248201527f4552433732313a20617070726f766520746f2063616c6c6572000000000000006044820152606401610916565b6001600160a01b03838116600081815260056020908152604080832094871680845294825291829020805460ff191686151590811790915591519182527f17307eab39ab6107e8899845ad3d59bd9653f200f220920489ca2b5937696c31910160405180910390a3505050565b611d003383611f53565b611d1c5760405162461bcd60e51b815260040161091690612b52565b6113ec84848484612148565b6060611d33826119f0565b60008281526006602052604081208054611d4c906129a6565b80601f0160208091040260200160405190810160405280929190818152602001828054611d78906129a6565b8015611dc55780601f10611d9a57610100808354040283529160200191611dc5565b820191906000526020600020905b815481529060010190602001808311611da857829003601f168201915b505050505090506000611de360408051602081019091526000815290565b90508051600003611df5575092915050565b815115611e27578082604051602001611e0f929190612b9f565b60405160208183030381529060405292505050919050565b611e308461217b565b949350505050565b6000828152600260205260409020546001600160a01b0316611eb35760405162461bcd60e51b815260206004820152602e60248201527f45524337323155524953746f726167653a2055524920736574206f66206e6f6e60448201526d32bc34b9ba32b73a103a37b5b2b760911b6064820152608401610916565b6000828152600660205260409020611ecb8282612c1c565b506040518281527ff8e1a15aba9398e019f0b49df1a4fde98ee17ae345cb5f6b5e2c27f5033e8ce79060200160405180910390a15050565b60006001600160e01b031982166380ac58cd60e01b1480611f3457506001600160e01b03198216635b5e139f60e01b145b806107e357506301ffc9a760e01b6001600160e01b03198316146107e3565b600080611f5f836110e5565b9050806001600160a01b0316846001600160a01b03161480611f865750611f86818561153e565b80611e305750836001600160a01b0316611f9f8461087b565b6001600160a01b031614949350505050565b826001600160a01b0316611fc4826110e5565b6001600160a01b031614611fea5760405162461bcd60e51b815260040161091690612cdc565b6001600160a01b03821661204c5760405162461bcd60e51b8152602060048201526024808201527f4552433732313a207472616e7366657220746f20746865207a65726f206164646044820152637265737360e01b6064820152608401610916565b826001600160a01b031661205f826110e5565b6001600160a01b0316146120855760405162461bcd60e51b815260040161091690612cdc565b600081815260046020908152604080832080546001600160a01b03199081169091556001600160a01b0387811680865260038552838620805460001901905590871680865283862080546001019055868652600290945282852080549092168417909155905184937fddf252ad1be2c89b69c2b068fc378daa952ba7f163c4a11628f55a4df523b3ef91a4505050565b61211f83836121ef565b61212c600084848461237a565b6109b75760405162461bcd60e51b815260040161091690612d21565b612153848484611fb1565b61215f8484848461237a565b6113ec5760405162461bcd60e51b815260040161091690612d21565b6060612186826119f0565b600061219d60408051602081019091526000815290565b905060008151116121bd57604051806020016040528060008152506121e8565b806121c78461247b565b6040516020016121d8929190612b9f565b6040516020818303038152906040525b9392505050565b6001600160a01b0382166122455760405162461bcd60e51b815260206004820181905260248201527f4552433732313a206d696e7420746f20746865207a65726f20616464726573736044820152606401610916565b6000818152600260205260409020546001600160a01b0316156122aa5760405162461bcd60e51b815260206004820152601c60248201527f4552433732313a20746f6b656e20616c7265616479206d696e746564000000006044820152606401610916565b6000818152600260205260409020546001600160a01b03161561230f5760405162461bcd60e51b815260206004820152601c60248201527f4552433732313a20746f6b656e20616c7265616479206d696e746564000000006044820152606401610916565b6001600160a01b038216600081815260036020908152604080832080546001019055848352600290915280822080546001600160a01b0319168417905551839291907fddf252ad1be2c89b69c2b068fc378daa952ba7f163c4a11628f55a4df523b3ef908290a45050565b60006001600160a01b0384163b1561247057604051630a85bd0160e11b81526001600160a01b0385169063150b7a02906123be903390899088908890600401612d73565b6020604051808303816000875af19250505080156123f9575060408051601f3d908101601f191682019092526123f691810190612db0565b60015b612456573d808015612427576040519150601f19603f3d011682016040523d82523d6000602084013e61242c565b606091505b50805160000361244e5760405162461bcd60e51b815260040161091690612d21565b805181602001fd5b6001600160e01b031916630a85bd0160e11b149050611e30565b506001949350505050565b606060006124888361250e565b600101905060008167ffffffffffffffff8111156124a8576124a8612809565b6040519080825280601f01601f1916602001820160405280156124d2576020820181803683370190505b5090508181016020015b600019016f181899199a1a9b1b9c1cb0b131b232b360811b600a86061a8153600a85049450846124dc57509392505050565b60008072184f03e93ff9f4daa797ed6e38ed64bf6a1f0160401b831061254d5772184f03e93ff9f4daa797ed6e38ed64bf6a1f0160401b830492506040015b6d04ee2d6d415b85acef81000000008310612579576d04ee2d6d415b85acef8100000000830492506020015b662386f26fc10000831061259757662386f26fc10000830492506010015b6305f5e10083106125af576305f5e100830492506008015b61271083106125c357612710830492506004015b606483106125d5576064830492506002015b600a83106107e35760010192915050565b6001600160e01b03198116811461198b57600080fd5b60006020828403121561260e57600080fd5b81356121e8816125e6565b60005b8381101561263457818101518382015260200161261c565b50506000910152565b60008151808452612655816020860160208601612619565b601f01601f19169290920160200192915050565b6020815260006121e8602083018461263d565b60006020828403121561268e57600080fd5b5035919050565b80356001600160a01b03811681146126ac57600080fd5b919050565b600080604083850312156126c457600080fd5b6126cd83612695565b946020939093013593505050565b6000806000606084860312156126f057600080fd5b6126f984612695565b925061270760208501612695565b9150604084013590509250925092565b801515811461198b57600080fd5b60006020828403121561273757600080fd5b81356121e881612717565b6000806020838503121561275557600080fd5b823567ffffffffffffffff8082111561276d57600080fd5b818501915085601f83011261278157600080fd5b81358181111561279057600080fd5b8660208260051b85010111156127a557600080fd5b60209290920196919550909350505050565b6000602082840312156127c957600080fd5b6121e882612695565b600080604083850312156127e557600080fd5b6127ee83612695565b915060208301356127fe81612717565b809150509250929050565b634e487b7160e01b600052604160045260246000fd5b600067ffffffffffffffff8084111561283a5761283a612809565b604051601f8501601f19908116603f0116810190828211818310171561286257612862612809565b8160405280935085815286868601111561287b57600080fd5b858560208301376000602087830101525050509392505050565b600080600080608085870312156128ab57600080fd5b6128b485612695565b93506128c260208601612695565b925060408501359150606085013567ffffffffffffffff8111156128e557600080fd5b8501601f810187136128f657600080fd5b6129058782356020840161281f565b91505092959194509250565b6000806040838503121561292457600080fd5b61292d83612695565b915061293b60208401612695565b90509250929050565b6000806040838503121561295757600080fd5b61296083612695565b9150602083013567ffffffffffffffff81111561297c57600080fd5b8301601f8101851361298d57600080fd5b61299c8582356020840161281f565b9150509250929050565b600181811c908216806129ba57607f821691505b6020821081036129da57634e487b7160e01b600052602260045260246000fd5b50919050565b602080825260169082015275151c985b9cd9995c9cc8185c9948191a5cd8589b195960521b604082015260600190565b600060208284031215612a2257600080fd5b81516121e881612717565b634e487b7160e01b600052601160045260246000fd5b80820281158282048414176107e3576107e3612a2d565b600060208284031215612a6c57600080fd5b5051919050565b634e487b7160e01b600052603260045260246000fd5b600060018201612a9b57612a9b612a2d565b5060010190565b808201808211156107e3576107e3612a2d565b6040808252810183905260008460608301825b86811015612af6576001600160a01b03612ae184612695565b16825260209283019290910190600101612ac8565b5060209150838103828501528085518083528383019150838701925060005b81811015612b3157835183529284019291840191600101612b15565b509098975050505050505050565b818103818111156107e3576107e3612a2d565b6020808252602d908201527f4552433732313a2063616c6c6572206973206e6f7420746f6b656e206f776e6560408201526c1c881bdc88185c1c1c9bdd9959609a1b606082015260800190565b60008351612bb1818460208801612619565b835190830190612bc5818360208801612619565b01949350505050565b601f8211156109b757600081815260208120601f850160051c81016020861015612bf55750805b601f850160051c820191505b81811015612c1457828155600101612c01565b505050505050565b815167ffffffffffffffff811115612c3657612c36612809565b612c4a81612c4484546129a6565b84612bce565b602080601f831160018114612c7f5760008415612c675750858301515b600019600386901b1c1916600185901b178555612c14565b600085815260208120601f198616915b82811015612cae57888601518255948401946001909101908401612c8f565b5085821015612ccc5787850151600019600388901b60f8161c191681555b5050505050600190811b01905550565b60208082526025908201527f4552433732313a207472616e736665722066726f6d20696e636f72726563742060408201526437bbb732b960d91b606082015260800190565b60208082526032908201527f4552433732313a207472616e7366657220746f206e6f6e20455243373231526560408201527131b2b4bb32b91034b6b83632b6b2b73a32b960711b606082015260800190565b6001600160a01b0385811682528416602082015260408101839052608060608201819052600090612da69083018461263d565b9695505050505050565b600060208284031215612dc257600080fd5b81516121e8816125e656fea26469706673582212208bd185e4b492fd2f13d6fd71e26f217abb832c3db5041d42c9c300196fbf646764736f6c63430008130033",
  "linkReferences": {},
  "deployedLinkReferences": {}
}