{
  "_format": "hh-sol-artifact-1",
  "contractName": "TokenMarketplace",
  "sourceName": "contracts/TokenMarketplace.sol",
  "abi": [
    {
      "inputs": [
        {
          "internalType": "address",
          "name": "_whitelistAddress",
          "type": "address"
        }
      ],
      "stateMutability": "nonpayable",
      "type": "constructor"
    },
    {
      "anonymous": false,
      "inputs": [
        {
          "indexed": true,
          "internalType": "uint256",
          "name": "listingId",
          "type": "uint256"
        },
        {
          "indexed": true,
          "internalType": "address",
          "name": "seller",
          "type": "address"
        }
      ],
      "name": "ListingCancelled",
      "type": "event"
    },
    {
      "anonymous": false,
      "inputs": [
        {
          "indexed": true,
          "internalType": "uint256",
          "name": "listingId",
          "type": "uint256"
        },
        {
          "indexed": true,
          "internalType": "address",
          "name": "seller",
          "type": "address"
        },
        {
          "indexed": true,
          "internalType": "address",
          "name": "tokenContract",
          "type": "address"
        },
        {
          "indexed": false,
          "internalType": "uint256",
          "name": "tokenId",
          "type": "uint256"
        },
        {
          "indexed": false,
          "internalType": "uint256",
          "name": "amount",
          "type": "uint256"
        },
        {
          "indexed": false,
          "internalType": "uint256",
          "name": "price",
          "type": "uint256"
        },
        {
          "indexed": false,
          "internalType": "enum TokenMarketplace.TokenType",
          "name": "tokenType",
          "type": "uint8"
        },
        {
          "indexed": false,
          "internalType": "address",
          "name": "allowedBuyer",
          "type": "address"
        }
      ],
      "name": "ListingCreated",
      "type": "event"
    },
    {
      "anonymous": false,
      "inputs": [
        {
          "indexed": false,
          "internalType": "uint256",
          "name": "newLimit",
          "type": "uint256"
        }
      ],
      "name": "ListingLimitChanged",
      "type": "event"
    },
    {
      "anonymous": false,
      "inputs": [
        {
          "indexed": true,
          "internalType": "uint256",
          "name": "listingId",
          "type": "uint256"
        },
        {
          "indexed": true,
          "internalType": "address",
          "name": "buyer",
          "type": "address"
        },
        {
          "indexed": true,
          "internalType": "address",
          "name": "seller",
          "type": "address"
        },
        {
          "indexed": false,
          "internalType": "uint256",
          "name": "price",
          "type": "uint256"
        }
      ],
      "name": "ListingPurchased",
      "type": "event"
    },
    {
      "anonymous": false,
      "inputs": [
        {
          "indexed": true,
          "internalType": "address",
          "name": "previousOwner",
          "type": "address"
        },
        {
          "indexed": true,
          "internalType": "address",
          "name": "newOwner",
          "type": "address"
        }
      ],
      "name": "OwnershipTransferred",
      "type": "event"
    },
    {
      "anonymous": false,
      "inputs": [
        {
          "indexed": false,
          "internalType": "uint256",
          "name": "newLimit",
          "type": "uint256"
        }
      ],
      "name": "PurchaseLimitChanged",
      "type": "event"
    },
    {
      "anonymous": false,
      "inputs": [
        {
          "indexed": false,
          "internalType": "address",
          "name": "newAddress",
          "type": "address"
        }
      ],
      "name": "WhitelistAddressChanged",
      "type": "event"
    },
    {
      "inputs": [],
      "name": "INTERACTION_PERIOD",
      "outputs": [
        {
          "internalType": "uint256",
          "name": "",
          "type": "uint256"
        }
      ],
      "stateMutability": "view",
      "type": "function"
    },
    {
      "inputs": [],
      "name": "activeListings",
      "outputs": [
        {
          "internalType": "uint256",
          "name": "",
          "type": "uint256"
        }
      ],
      "stateMutability": "view",
      "type": "function"
    },
    {
      "inputs": [
        {
          "internalType": "address",
          "name": "_user",
          "type": "address"
        }
      ],
      "name": "canUserCreateListing",
      "outputs": [
        {
          "internalType": "bool",
          "name": "canCreate",
          "type": "bool"
        },
        {
          "internalType": "uint256",
          "name": "remainingCreations",
          "type": "uint256"
        }
      ],
      "stateMutability": "view",
      "type": "function"
    },
    {
      "inputs": [
        {
          "internalType": "address",
          "name": "_user",
          "type": "address"
        }
      ],
      "name": "canUserPurchase",
      "outputs": [
        {
          "internalType": "bool",
          "name": "canPurchase",
          "type": "bool"
        },
        {
          "internalType": "uint256",
          "name": "remainingPurchases",
          "type": "uint256"
        }
      ],
      "stateMutability": "view",
      "type": "function"
    },
    {
      "inputs": [
        {
          "internalType": "uint256",
          "name": "_listingId",
          "type": "uint256"
        }
      ],
      "name": "cancelListing",
      "outputs": [],
      "stateMutability": "nonpayable",
      "type": "function"
    },
    {
      "inputs": [
        {
          "internalType": "address",
          "name": "_tokenContract",
          "type": "address"
        },
        {
          "internalType": "uint256",
          "name": "_tokenId",
          "type": "uint256"
        },
        {
          "internalType": "uint256",
          "name": "_amount",
          "type": "uint256"
        },
        {
          "internalType": "uint256",
          "name": "_price",
          "type": "uint256"
        },
        {
          "internalType": "address",
          "name": "_allowedBuyer",
          "type": "address"
        }
      ],
      "name": "createERC1155Listing",
      "outputs": [],
      "stateMutability": "nonpayable",
      "type": "function"
    },
    {
      "inputs": [
        {
          "internalType": "address",
          "name": "_tokenContract",
          "type": "address"
        },
        {
          "internalType": "uint256",
          "name": "_amount",
          "type": "uint256"
        },
        {
          "internalType": "uint256",
          "name": "_price",
          "type": "uint256"
        },
        {
          "internalType": "address",
          "name": "_allowedBuyer",
          "type": "address"
        }
      ],
      "name": "createERC20Listing",
      "outputs": [],
      "stateMutability": "nonpayable",
      "type": "function"
    },
    {
      "inputs": [
        {
          "internalType": "address",
          "name": "_tokenContract",
          "type": "address"
        },
        {
          "internalType": "uint256",
          "name": "_tokenId",
          "type": "uint256"
        },
        {
          "internalType": "uint256",
          "name": "_price",
          "type": "uint256"
        },
        {
          "internalType": "address",
          "name": "_allowedBuyer",
          "type": "address"
        }
      ],
      "name": "createERC721Listing",
      "outputs": [],
      "stateMutability": "nonpayable",
      "type": "function"
    },
    {
      "inputs": [
        {
          "internalType": "uint256",
          "name": "_listingId",
          "type": "uint256"
        }
      ],
      "name": "emergencyCancelListing",
      "outputs": [],
      "stateMutability": "nonpayable",
      "type": "function"
    },
    {
      "inputs": [],
      "name": "emergencyWithdraw",
      "outputs": [],
      "stateMutability": "nonpayable",
      "type": "function"
    },
    {
      "inputs": [
        {
          "internalType": "uint256",
          "name": "_start",
          "type": "uint256"
        },
        {
          "internalType": "uint256",
          "name": "_limit",
          "type": "uint256"
        }
      ],
      "name": "getActiveListingsPaginated",
      "outputs": [
        {
          "internalType": "uint256[]",
          "name": "listingIds",
          "type": "uint256[]"
        },
        {
          "internalType": "uint256",
          "name": "total",
          "type": "uint256"
        }
      ],
      "stateMutability": "view",
      "type": "function"
    },
    {
      "inputs": [],
      "name": "getContractInfo",
      "outputs": [
        {
          "internalType": "string",
          "name": "contractName",
          "type": "string"
        },
        {
          "internalType": "string",
          "name": "version",
          "type": "string"
        },
        {
          "internalType": "uint256",
          "name": "totalListingsEverCreated",
          "type": "uint256"
        },
        {
          "internalType": "uint256",
          "name": "currentActiveListings",
          "type": "uint256"
        }
      ],
      "stateMutability": "view",
      "type": "function"
    },
    {
      "inputs": [
        {
          "internalType": "uint256",
          "name": "_listingId",
          "type": "uint256"
        }
      ],
      "name": "getListing",
      "outputs": [
        {
          "components": [
            {
              "internalType": "address",
              "name": "seller",
              "type": "address"
            },
            {
              "internalType": "address",
              "name": "tokenContract",
              "type": "address"
            },
            {
              "internalType": "uint256",
              "name": "tokenId",
              "type": "uint256"
            },
            {
              "internalType": "uint256",
              "name": "amount",
              "type": "uint256"
            },
            {
              "internalType": "uint256",
              "name": "price",
              "type": "uint256"
            },
            {
              "internalType": "enum TokenMarketplace.TokenType",
              "name": "tokenType",
              "type": "uint8"
            },
            {
              "internalType": "address",
              "name": "allowedBuyer",
              "type": "address"
            },
            {
              "internalType": "bool",
              "name": "isActive",
              "type": "bool"
            }
          ],
          "internalType": "struct TokenMarketplace.Listing",
          "name": "listing",
          "type": "tuple"
        }
      ],
      "stateMutability": "view",
      "type": "function"
    },
    {
      "inputs": [],
      "name": "getMarketplaceStatistics",
      "outputs": [
        {
          "internalType": "uint256",
          "name": "totalSales",
          "type": "uint256"
        },
        {
          "internalType": "uint256",
          "name": "totalTxs",
          "type": "uint256"
        },
        {
          "internalType": "uint256",
          "name": "totalListingsCreated",
          "type": "uint256"
        },
        {
          "internalType": "uint256",
          "name": "currentActiveListings",
          "type": "uint256"
        },
        {
          "internalType": "uint256",
          "name": "erc20Sales",
          "type": "uint256"
        },
        {
          "internalType": "uint256",
          "name": "erc721Sales",
          "type": "uint256"
        },
        {
          "internalType": "uint256",
          "name": "erc1155Sales",
          "type": "uint256"
        }
      ],
      "stateMutability": "view",
      "type": "function"
    },
    {
      "inputs": [
        {
          "internalType": "uint256[]",
          "name": "_listingIds",
          "type": "uint256[]"
        }
      ],
      "name": "getMultipleListings",
      "outputs": [
        {
          "components": [
            {
              "internalType": "address",
              "name": "seller",
              "type": "address"
            },
            {
              "internalType": "address",
              "name": "tokenContract",
              "type": "address"
            },
            {
              "internalType": "uint256",
              "name": "tokenId",
              "type": "uint256"
            },
            {
              "internalType": "uint256",
              "name": "amount",
              "type": "uint256"
            },
            {
              "internalType": "uint256",
              "name": "price",
              "type": "uint256"
            },
            {
              "internalType": "enum TokenMarketplace.TokenType",
              "name": "tokenType",
              "type": "uint8"
            },
            {
              "internalType": "address",
              "name": "allowedBuyer",
              "type": "address"
            },
            {
              "internalType": "bool",
              "name": "isActive",
              "type": "bool"
            }
          ],
          "internalType": "struct TokenMarketplace.Listing[]",
          "name": "listingDetails",
          "type": "tuple[]"
        }
      ],
      "stateMutability": "view",
      "type": "function"
    },
    {
      "inputs": [],
      "name": "getTotalSalesETH",
      "outputs": [
        {
          "internalType": "uint256",
          "name": "",
          "type": "uint256"
        }
      ],
      "stateMutability": "view",
      "type": "function"
    },
    {
      "inputs": [
        {
          "internalType": "address",
          "name": "_seller",
          "type": "address"
        }
      ],
      "name": "getUserActiveListings",
      "outputs": [
        {
          "internalType": "uint256[]",
          "name": "listingIds",
          "type": "uint256[]"
        }
      ],
      "stateMutability": "view",
      "type": "function"
    },
    {
      "inputs": [
        {
          "internalType": "address",
          "name": "_user",
          "type": "address"
        }
      ],
      "name": "getUserInteractionStats",
      "outputs": [
        {
          "internalType": "uint256",
          "name": "listingCount",
          "type": "uint256"
        },
        {
          "internalType": "uint256",
          "name": "purchaseCount",
          "type": "uint256"
        },
        {
          "internalType": "uint256",
          "name": "lastListingTime",
          "type": "uint256"
        },
        {
          "internalType": "uint256",
          "name": "lastPurchaseTime",
          "type": "uint256"
        }
      ],
      "stateMutability": "view",
      "type": "function"
    },
    {
      "inputs": [],
      "name": "listingInteractionLimit",
      "outputs": [
        {
          "internalType": "uint256",
          "name": "",
          "type": "uint256"
        }
      ],
      "stateMutability": "view",
      "type": "function"
    },
    {
      "inputs": [
        {
          "internalType": "uint256",
          "name": "",
          "type": "uint256"
        }
      ],
      "name": "listings",
      "outputs": [
        {
          "internalType": "address",
          "name": "seller",
          "type": "address"
        },
        {
          "internalType": "address",
          "name": "tokenContract",
          "type": "address"
        },
        {
          "internalType": "uint256",
          "name": "tokenId",
          "type": "uint256"
        },
        {
          "internalType": "uint256",
          "name": "amount",
          "type": "uint256"
        },
        {
          "internalType": "uint256",
          "name": "price",
          "type": "uint256"
        },
        {
          "internalType": "enum TokenMarketplace.TokenType",
          "name": "tokenType",
          "type": "uint8"
        },
        {
          "internalType": "address",
          "name": "allowedBuyer",
          "type": "address"
        },
        {
          "internalType": "bool",
          "name": "isActive",
          "type": "bool"
        }
      ],
      "stateMutability": "view",
      "type": "function"
    },
    {
      "inputs": [],
      "name": "nextListingId",
      "outputs": [
        {
          "internalType": "uint256",
          "name": "",
          "type": "uint256"
        }
      ],
      "stateMutability": "view",
      "type": "function"
    },
    {
      "inputs": [
        {
          "internalType": "address",
          "name": "",
          "type": "address"
        },
        {
          "internalType": "address",
          "name": "",
          "type": "address"
        },
        {
          "internalType": "uint256[]",
          "name": "",
          "type": "uint256[]"
        },
        {
          "internalType": "uint256[]",
          "name": "",
          "type": "uint256[]"
        },
        {
          "internalType": "bytes",
          "name": "",
          "type": "bytes"
        }
      ],
      "name": "onERC1155BatchReceived",
      "outputs": [
        {
          "internalType": "bytes4",
          "name": "",
          "type": "bytes4"
        }
      ],
      "stateMutability": "pure",
      "type": "function"
    },
    {
      "inputs": [
        {
          "internalType": "address",
          "name": "",
          "type": "address"
        },
        {
          "internalType": "address",
          "name": "",
          "type": "address"
        },
        {
          "internalType": "uint256",
          "name": "",
          "type": "uint256"
        },
        {
          "internalType": "uint256",
          "name": "",
          "type": "uint256"
        },
        {
          "internalType": "bytes",
          "name": "",
          "type": "bytes"
        }
      ],
      "name": "onERC1155Received",
      "outputs": [
        {
          "internalType": "bytes4",
          "name": "",
          "type": "bytes4"
        }
      ],
      "stateMutability": "pure",
      "type": "function"
    },
    {
      "inputs": [],
      "name": "owner",
      "outputs": [
        {
          "internalType": "address",
          "name": "",
          "type": "address"
        }
      ],
      "stateMutability": "view",
      "type": "function"
    },
    {
      "inputs": [],
      "name": "purchaseInteractionLimit",
      "outputs": [
        {
          "internalType": "uint256",
          "name": "",
          "type": "uint256"
        }
      ],
      "stateMutability": "view",
      "type": "function"
    },
    {
      "inputs": [
        {
          "internalType": "uint256",
          "name": "_listingId",
          "type": "uint256"
        }
      ],
      "name": "purchaseListing",
      "outputs": [],
      "stateMutability": "payable",
      "type": "function"
    },
    {
      "inputs": [],
      "name": "renounceOwnership",
      "outputs": [],
      "stateMutability": "nonpayable",
      "type": "function"
    },
    {
      "inputs": [
        {
          "internalType": "enum TokenMarketplace.TokenType",
          "name": "",
          "type": "uint8"
        }
      ],
      "name": "salesByTokenType",
      "outputs": [
        {
          "internalType": "uint256",
          "name": "",
          "type": "uint256"
        }
      ],
      "stateMutability": "view",
      "type": "function"
    },
    {
      "inputs": [
        {
          "internalType": "address",
          "name": "",
          "type": "address"
        },
        {
          "internalType": "uint256",
          "name": "",
          "type": "uint256"
        }
      ],
      "name": "sellerListings",
      "outputs": [
        {
          "internalType": "uint256",
          "name": "",
          "type": "uint256"
        }
      ],
      "stateMutability": "view",
      "type": "function"
    },
    {
      "inputs": [
        {
          "internalType": "uint256",
          "name": "_newLimit",
          "type": "uint256"
        }
      ],
      "name": "setListingInteractionLimit",
      "outputs": [],
      "stateMutability": "nonpayable",
      "type": "function"
    },
    {
      "inputs": [
        {
          "internalType": "uint256",
          "name": "_newLimit",
          "type": "uint256"
        }
      ],
      "name": "setPurchaseInteractionLimit",
      "outputs": [],
      "stateMutability": "nonpayable",
      "type": "function"
    },
    {
      "inputs": [
        {
          "internalType": "address",
          "name": "_newAddress",
          "type": "address"
        }
      ],
      "name": "setWhitelistAddress",
      "outputs": [],
      "stateMutability": "nonpayable",
      "type": "function"
    },
    {
      "inputs": [],
      "name": "totalListings",
      "outputs": [
        {
          "internalType": "uint256",
          "name": "",
          "type": "uint256"
        }
      ],
      "stateMutability": "view",
      "type": "function"
    },
    {
      "inputs": [],
      "name": "totalSalesETH",
      "outputs": [
        {
          "internalType": "uint256",
          "name": "",
          "type": "uint256"
        }
      ],
      "stateMutability": "view",
      "type": "function"
    },
    {
      "inputs": [],
      "name": "totalTransactions",
      "outputs": [
        {
          "internalType": "uint256",
          "name": "",
          "type": "uint256"
        }
      ],
      "stateMutability": "view",
      "type": "function"
    },
    {
      "inputs": [
        {
          "internalType": "enum TokenMarketplace.TokenType",
          "name": "",
          "type": "uint8"
        }
      ],
      "name": "transactionsByTokenType",
      "outputs": [
        {
          "internalType": "uint256",
          "name": "",
          "type": "uint256"
        }
      ],
      "stateMutability": "view",
      "type": "function"
    },
    {
      "inputs": [
        {
          "internalType": "address",
          "name": "newOwner",
          "type": "address"
        }
      ],
      "name": "transferOwnership",
      "outputs": [],
      "stateMutability": "nonpayable",
      "type": "function"
    },
    {
      "inputs": [],
      "name": "whitelist",
      "outputs": [
        {
          "internalType": "contract Whitelist",
          "name": "",
          "type": "address"
        }
      ],
      "stateMutability": "view",
      "type": "function"
    }
  ],
  "bytecode": "0x608060405260016004556000600a556000600b556000600c556000600d55600360105560036011553480156200003457600080fd5b50604051620039e7380380620039e783398101604081905262000057916200013a565b60016000556200006733620000e8565b6001600160a01b038116620000c25760405162461bcd60e51b815260206004820152601960248201527f496e76616c69642077686974656c697374206164647265737300000000000000604482015260640160405180910390fd5b600280546001600160a01b0319166001600160a01b03929092169190911790556200016c565b600180546001600160a01b038381166001600160a01b0319831681179093556040519116919082907f8be0079c531659141344cd1fd0a4f28419497f9722a3daafe3b4186f6b6457e090600090a35050565b6000602082840312156200014d57600080fd5b81516001600160a01b03811681146200016557600080fd5b9392505050565b61386b806200017c6000396000f3fe6080604052600436106102255760003560e01c80639f45b23711610123578063c56370e9116100ab578063de74e57b1161006f578063de74e57b14610721578063f23a6e61146107ab578063f2fde38b146107d8578063f30f8b54146107f8578063f36b55411461080e57600080fd5b8063c56370e914610692578063c78b616c146106b2578063d3a17f29146106c8578063d4910254146106de578063db2e21bc1461070c57600080fd5b8063b3d86e63116100f2578063b3d86e63146105d1578063b9a60038146105fe578063bae4918d14610614578063bc197c811461062a578063c313d57f1461067257600080fd5b80639f45b23714610565578063a224c74514610585578063aaccf1ec146105a5578063b13b1843146105bb57600080fd5b80634d9f018a116101b15780638879c3f1116101755780638879c3f11461044f5780638abef1071461047c5780638da5cb5b1461049c5780638e58e4a2146104ce57806393e59dc11461054557600080fd5b80634d9f018a146103745780634e71b5e3146103be5780636d9def6f146103de578063715018a6146104155780637cc1f8671461042a57600080fd5b8063107a274a116101f8578063107a274a146102c757806313834bb8146102f4578063169d5a7d146103215780632173182814610334578063305a67a81461035457600080fd5b8063018217211461022a5780630193c5ea14610260578063054564f0146102855780630c317b77146102a5575b600080fd5b34801561023657600080fd5b5061024a610245366004613017565b610823565b6040516102579190613076565b60405180910390f35b34801561026c57600080fd5b506102776201518081565b604051908152602001610257565b34801561029157600080fd5b506102776102a0366004613089565b6109ed565b3480156102b157600080fd5b506102c56102c03660046130b5565b610a1e565b005b3480156102d357600080fd5b506102e76102e23660046130b5565b610a62565b604051610257919061316a565b34801561030057600080fd5b5061027761030f366004613179565b600e6020526000908152604090205481565b6102c561032f3660046130b5565b610b25565b34801561034057600080fd5b506102c561034f36600461319a565b611101565b34801561036057600080fd5b506102c561036f3660046130b5565b6115db565b34801561038057600080fd5b506103896118ae565b604080519788526020880196909652948601939093526060850191909152608084015260a083015260c082015260e001610257565b3480156103ca57600080fd5b506102c56103d93660046131f0565b61197f565b3480156103ea57600080fd5b506103fe6103f9366004613017565b611eee565b604080519215158352602083019190915201610257565b34801561042157600080fd5b506102c5611fe7565b34801561043657600080fd5b5061043f611ffb565b6040516102579493929190613280565b34801561045b57600080fd5b5061027761046a366004613179565b600f6020526000908152604090205481565b34801561048857600080fd5b506102c56104973660046131f0565b61204a565b3480156104a857600080fd5b506001546001600160a01b03165b6040516001600160a01b039091168152602001610257565b3480156104da57600080fd5b506105256104e9366004613017565b6001600160a01b031660009081526006602090815260408083205460088352818420546007845282852054600990945291909320549293909290565b604080519485526020850193909352918301526060820152608001610257565b34801561055157600080fd5b506002546104b6906001600160a01b031681565b34801561057157600080fd5b506103fe610580366004613017565b612583565b34801561059157600080fd5b506102c56105a0366004613017565b61266d565b3480156105b157600080fd5b5061027760045481565b3480156105c757600080fd5b5061027760115481565b3480156105dd57600080fd5b506105f16105ec3660046132fe565b612719565b6040516102579190613340565b34801561060a57600080fd5b50610277600b5481565b34801561062057600080fd5b5061027760105481565b34801561063657600080fd5b506106596106453660046133d1565b63bc197c8160e01b98975050505050505050565b6040516001600160e01b03199091168152602001610257565b34801561067e57600080fd5b506102c561068d3660046130b5565b61288b565b34801561069e57600080fd5b506102c56106ad3660046130b5565b6128c8565b3480156106be57600080fd5b50610277600c5481565b3480156106d457600080fd5b50610277600d5481565b3480156106ea57600080fd5b506106fe6106f9366004613490565b612b61565b6040516102579291906134b2565b34801561071857600080fd5b506102c5612cdf565b34801561072d57600080fd5b5061079761073c3660046130b5565b60036020819052600091825260409091208054600182015460028301549383015460048401546005909401546001600160a01b039384169592841694929391929160ff80831692610100810490921691600160a81b90041688565b6040516102579897969594939291906134d4565b3480156107b757600080fd5b506106596107c636600461352d565b63f23a6e6160e01b9695505050505050565b3480156107e457600080fd5b506102c56107f3366004613017565b612d68565b34801561080457600080fd5b50610277600a5481565b34801561081a57600080fd5b50600a54610277565b6001600160a01b038116600090815260056020908152604080832080548251818502810185019093528083526060949383018282801561088257602002820191906000526020600020905b81548152602001906001019080831161086e575b505050505090506000805b82518110156108f857600360008483815181106108ac576108ac6135a9565b6020026020010151815260200190815260200160002060050160159054906101000a900460ff16156108e657816108e2816135d5565b9250505b806108f0816135d5565b91505061088d565b508067ffffffffffffffff811115610912576109126135ee565b60405190808252806020026020018201604052801561093b578160200160208202803683370190505b5092506000805b83518110156109e45760036000858381518110610961576109616135a9565b6020026020010151815260200190815260200160002060050160159054906101000a900460ff16156109d25783818151811061099f5761099f6135a9565b60200260200101518583815181106109b9576109b96135a9565b6020908102919091010152816109ce816135d5565b9250505b806109dc816135d5565b915050610942565b50505050919050565b60056020528160005260406000208181548110610a0957600080fd5b90600052602060002001600091509150505481565b610a26612dde565b60118190556040518181527ff865f17ecc56da4c3b3223586316ee98769c6a1f6664b1ba34208ab3af89ac75906020015b60405180910390a150565b610a6a612fbd565b60008281526003602081815260409283902083516101008101855281546001600160a01b0390811682526001830154169281019290925260028082015494830194909452918201546060820152600482015460808201526005820154909260a084019160ff1690811115610ae057610ae06130ce565b6002811115610af157610af16130ce565b81526005919091015461010081046001600160a01b03166020830152600160a81b900460ff16151560409091015292915050565b610b2d612e38565b60025460405163032a184360e31b81523360048201526001600160a01b0390911690631950c21890602401602060405180830381865afa158015610b75573d6000803e3d6000fd5b505050506040513d601f19601f82011682018060405250810190610b999190613604565b610bbe5760405162461bcd60e51b8152600401610bb590613626565b60405180910390fd5b610bcd60086009601154612e91565b60008181526003602052604090206005810154600160a81b900460ff16610c065760405162461bcd60e51b8152600401610bb59061364f565b8060040154341015610c515760405162461bcd60e51b8152602060048201526014602482015273125b9cdd59999a58da595b9d081c185e5b595b9d60621b6044820152606401610bb5565b8054336001600160a01b0390911603610cac5760405162461bcd60e51b815260206004820152601b60248201527f43616e6e6f742062757920796f7572206f776e206c697374696e6700000000006044820152606401610bb5565b600581015461010090046001600160a01b031615610d3057600581015461010090046001600160a01b03163314610d305760405162461bcd60e51b815260206004820152602260248201527f4e6f7420617574686f72697a656420746f206275792074686973206c697374696044820152616e6760f01b6064820152608401610bb5565b60058101805460ff60a81b191690556004810154600a8054600090610d5690849061367b565b9091555050600b8054906000610d6b836135d5565b91905055506000600d5411610d81576000610d90565b6001600d54610d90919061368e565b600d5560048101546005820154600e9060009060ff166002811115610db757610db76130ce565b6002811115610dc857610dc86130ce565b81526020019081526020016000206000828254610de5919061367b565b90915550506005810154600f9060009060ff166002811115610e0957610e096130ce565b6002811115610e1a57610e1a6130ce565b81526020019081526020016000206000815480929190610e39906135d5565b9091555060019050600582015460ff166002811115610e5a57610e5a6130ce565b03610ecf57600181015460028201546040516323b872dd60e01b81526001600160a01b03909216916323b872dd91610e9891309133916004016136a1565b600060405180830381600087803b158015610eb257600080fd5b505af1158015610ec6573d6000803e3d6000fd5b50505050611020565b6000600582015460ff166002811115610eea57610eea6130ce565b03610f8d576001810154600382015460405163a9059cbb60e01b815233600482015260248101919091526001600160a01b039091169063a9059cbb906044016020604051808303816000875af1158015610f48573d6000803e3d6000fd5b505050506040513d601f19601f82011682018060405250810190610f6c9190613604565b610f885760405162461bcd60e51b8152600401610bb5906136c5565b611020565b6002600582015460ff166002811115610fa857610fa86130ce565b0361102057600181015460028201546003830154604051637921219560e11b81526001600160a01b039093169263f242432a92610fed923092339291906004016136f4565b600060405180830381600087803b15801561100757600080fd5b505af115801561101b573d6000803e3d6000fd5b505050505b805460048201546040516001600160a01b039092169181156108fc0291906000818181858888f1935050505015801561105d573d6000803e3d6000fd5b5080600401543411156110a957600481015433906108fc9061107f903461368e565b6040518115909202916000818181858888f193505050501580156110a7573d6000803e3d6000fd5b505b805460048201546040519081526001600160a01b0390911690339084907f05e16e5cf13eeb3ff32f51644ccd765a8ecfd4114beb5820ff29d0b3b1e91a849060200160405180910390a4506110fe6001600055565b50565b60025460405163032a184360e31b81523360048201526001600160a01b0390911690631950c21890602401602060405180830381865afa158015611149573d6000803e3d6000fd5b505050506040513d601f19601f8201168201806040525081019061116d9190613604565b6111895760405162461bcd60e51b8152600401610bb590613626565b61119860066007601054612e91565b600083116111e85760405162461bcd60e51b815260206004820152601d60248201527f416d6f756e74206d7573742062652067726561746572207468616e20300000006044820152606401610bb5565b600082116112085760405162461bcd60e51b8152600401610bb59061372c565b6001600160a01b03851661122e5760405162461bcd60e51b8152600401610bb590613763565b604051627eeac760e11b815233600482015260248101859052859084906001600160a01b0383169062fdd58e90604401602060405180830381865afa15801561127b573d6000803e3d6000fd5b505050506040513d601f19601f8201168201806040525081019061129f9190613793565b10156112ed5760405162461bcd60e51b815260206004820152601a60248201527f496e73756666696369656e7420746f6b656e2062616c616e63650000000000006044820152606401610bb5565b60405163e985e9c560e01b81523360048201523060248201526001600160a01b0382169063e985e9c590604401602060405180830381865afa158015611337573d6000803e3d6000fd5b505050506040513d601f19601f8201168201806040525081019061135b9190613604565b61139f5760405162461bcd60e51b815260206004820152601560248201527410dbdb9d1c9858dd081b9bdd08185c1c1c9bdd9959605a1b6044820152606401610bb5565b604051637921219560e11b81526001600160a01b0382169063f242432a906113d190339030908a908a906004016136f4565b600060405180830381600087803b1580156113eb57600080fd5b505af11580156113ff573d6000803e3d6000fd5b505060408051610100810182523381526001600160a01b038a811660208084019182528385018c8152606085018c8152608086018c8152600260a088018181528d881660c08a0152600160e08a018190526004805460009081526003988990529b909b208a518154908b166001600160a01b03199182161782559851818301805491909b16991698909817909855935186820155915193850193909355915195830195909555935160058201805494975091955093909260ff1916919084908111156114cd576114cd6130ce565b021790555060c08201516005918201805460e0909401511515600160a81b0260ff60a81b196001600160a01b039093166101000292909216610100600160b01b0319909416939093171790915533600090815260209182526040812060045481546001810183559183529282200191909155600c80549161154d836135d5565b9091555050600d8054906000611562836135d5565b9190505550856001600160a01b0316336001600160a01b03166004547f24a3dddf540fcf1f55426099b6a41f4751e72868ba9a8c84253207c5ca8f9d858888886002896040516115b69594939291906137ac565b60405180910390a4600480549060006115ce836135d5565b9190505550505050505050565b6115e3612e38565b60008181526003602052604090206005810154600160a81b900460ff1661161c5760405162461bcd60e51b8152600401610bb59061364f565b80546001600160a01b031633146116665760405162461bcd60e51b815260206004820152600e60248201526d2737ba103a34329039b2b63632b960911b6044820152606401610bb5565b60058101805460ff60a81b19169055600d54611683576000611692565b6001600d54611692919061368e565b600d556001600582015460ff1660028111156116b0576116b06130ce565b0361172557600181015460028201546040516323b872dd60e01b81526001600160a01b03909216916323b872dd916116ee91309133916004016136a1565b600060405180830381600087803b15801561170857600080fd5b505af115801561171c573d6000803e3d6000fd5b50505050611876565b6000600582015460ff166002811115611740576117406130ce565b036117e3576001810154600382015460405163a9059cbb60e01b815233600482015260248101919091526001600160a01b039091169063a9059cbb906044016020604051808303816000875af115801561179e573d6000803e3d6000fd5b505050506040513d601f19601f820116820180604052508101906117c29190613604565b6117de5760405162461bcd60e51b8152600401610bb5906136c5565b611876565b6002600582015460ff1660028111156117fe576117fe6130ce565b0361187657600181015460028201546003830154604051637921219560e11b81526001600160a01b039093169263f242432a92611843923092339291906004016136f4565b600060405180830381600087803b15801561185d57600080fd5b505af1158015611871573d6000803e3d6000fd5b505050505b604051339083907f8e25282255ab31897df2b0456bb993ac7f84d376861aefd84901d2d63a7428a290600090a3506110fe6001600055565b6000806000806000806000600a54600b54600c54600d54600e60008060028111156118db576118db6130ce565b60028111156118ec576118ec6130ce565b815260200190815260200160002054600e600060016002811115611912576119126130ce565b6002811115611923576119236130ce565b815260200190815260200160002054600e6000600280811115611948576119486130ce565b6002811115611959576119596130ce565b815260200190815260200160002054965096509650965096509650965090919293949596565b60025460405163032a184360e31b81523360048201526001600160a01b0390911690631950c21890602401602060405180830381865afa1580156119c7573d6000803e3d6000fd5b505050506040513d601f19601f820116820180604052508101906119eb9190613604565b611a075760405162461bcd60e51b8152600401610bb590613626565b611a1660066007601054612e91565b60008211611a365760405162461bcd60e51b8152600401610bb59061372c565b6001600160a01b038416611a5c5760405162461bcd60e51b8152600401610bb590613763565b6040516331a9108f60e11b815260048101849052849033906001600160a01b03831690636352211e90602401602060405180830381865afa158015611aa5573d6000803e3d6000fd5b505050506040513d601f19601f82011682018060405250810190611ac991906137e9565b6001600160a01b031614611b185760405162461bcd60e51b8152602060048201526016602482015275165bdd48191bdb89dd081bdddb881d1a1a5cc813919560521b6044820152606401610bb5565b60405163e985e9c560e01b81523360048201523060248201526001600160a01b0382169063e985e9c590604401602060405180830381865afa158015611b62573d6000803e3d6000fd5b505050506040513d601f19601f82011682018060405250810190611b869190613604565b80611c02575060405163020604bf60e21b81526004810185905230906001600160a01b0383169063081812fc90602401602060405180830381865afa158015611bd3573d6000803e3d6000fd5b505050506040513d601f19601f82011682018060405250810190611bf791906137e9565b6001600160a01b0316145b611c5c5760405162461bcd60e51b815260206004820152602560248201527f436f6e7472616374206e6f7420617070726f76656420746f207472616e7366656044820152641c8813919560da1b6064820152608401610bb5565b6040516323b872dd60e01b81526001600160a01b038216906323b872dd90611c8c903390309089906004016136a1565b600060405180830381600087803b158015611ca657600080fd5b505af1158015611cba573d6000803e3d6000fd5b50505050604051806101000160405280336001600160a01b03168152602001866001600160a01b031681526020018581526020016001815260200184815260200160016002811115611d0e57611d0e6130ce565b8152602001836001600160a01b031681526020016001151581525060036000600454815260200190815260200160002060008201518160000160006101000a8154816001600160a01b0302191690836001600160a01b0316021790555060208201518160010160006101000a8154816001600160a01b0302191690836001600160a01b0316021790555060408201518160020155606082015181600301556080820151816004015560a08201518160050160006101000a81548160ff02191690836002811115611de057611de06130ce565b021790555060c08201516005918201805460e0909401511515600160a81b0260ff60a81b196001600160a01b039093166101000292909216610100600160b01b0319909416939093171790915533600090815260209182526040812060045481546001810183559183529282200191909155600c805491611e60836135d5565b9091555050600d8054906000611e75836135d5565b9190505550846001600160a01b0316336001600160a01b03166004547f24a3dddf540fcf1f55426099b6a41f4751e72868ba9a8c84253207c5ca8f9d8587600188600189604051611eca9594939291906137ac565b60405180910390a460048054906000611ee2836135d5565b91905055505050505050565b60025460405163032a184360e31b81526001600160a01b0383811660048301526000928392911690631950c21890602401602060405180830381865afa158015611f3c573d6000803e3d6000fd5b505050506040513d601f19601f82011682018060405250810190611f609190613604565b611f6f57506000928392509050565b6001600160a01b038316600090815260066020908152604080832054600790925290912054611fa1620151808261367b565b421115611fb8576001601054935093505050915091565b60008260105411611fca576000611fd8565b82601054611fd8919061368e565b80151597909650945050505050565b611fef612dde565b611ff96000612f6b565b565b606080600080600c54600d546040518060600160405280602f8152602001613807602f91396040805180820190915260058152640312e302e360dc1b6020820152909790965091945092509050565b60025460405163032a184360e31b81523360048201526001600160a01b0390911690631950c21890602401602060405180830381865afa158015612092573d6000803e3d6000fd5b505050506040513d601f19601f820116820180604052508101906120b69190613604565b6120d25760405162461bcd60e51b8152600401610bb590613626565b6120e160066007601054612e91565b600083116121315760405162461bcd60e51b815260206004820152601d60248201527f416d6f756e74206d7573742062652067726561746572207468616e20300000006044820152606401610bb5565b600082116121515760405162461bcd60e51b8152600401610bb59061372c565b6001600160a01b0384166121775760405162461bcd60e51b8152600401610bb590613763565b6040516370a0823160e01b8152336004820152849084906001600160a01b038316906370a0823190602401602060405180830381865afa1580156121bf573d6000803e3d6000fd5b505050506040513d601f19601f820116820180604052508101906121e39190613793565b10156122315760405162461bcd60e51b815260206004820152601a60248201527f496e73756666696369656e7420746f6b656e2062616c616e63650000000000006044820152606401610bb5565b604051636eb1769f60e11b815233600482015230602482015284906001600160a01b0383169063dd62ed3e90604401602060405180830381865afa15801561227d573d6000803e3d6000fd5b505050506040513d601f19601f820116820180604052508101906122a19190613793565b10156122e85760405162461bcd60e51b8152602060048201526016602482015275496e73756666696369656e7420616c6c6f77616e636560501b6044820152606401610bb5565b6040516323b872dd60e01b81526001600160a01b038216906323b872dd90612318903390309089906004016136a1565b6020604051808303816000875af1158015612337573d6000803e3d6000fd5b505050506040513d601f19601f8201168201806040525081019061235b9190613604565b6123775760405162461bcd60e51b8152600401610bb5906136c5565b604051806101000160405280336001600160a01b03168152602001866001600160a01b0316815260200160008152602001858152602001848152602001600060028111156123c7576123c76130ce565b8152602001836001600160a01b031681526020016001151581525060036000600454815260200190815260200160002060008201518160000160006101000a8154816001600160a01b0302191690836001600160a01b0316021790555060208201518160010160006101000a8154816001600160a01b0302191690836001600160a01b0316021790555060408201518160020155606082015181600301556080820151816004015560a08201518160050160006101000a81548160ff02191690836002811115612499576124996130ce565b021790555060c08201516005918201805460e0909401511515600160a81b0260ff60a81b196001600160a01b039093166101000292909216610100600160b01b0319909416939093171790915533600090815260209182526040812060045481546001810183559183529282200191909155600c805491612519836135d5565b9091555050600d805490600061252e836135d5565b9190505550846001600160a01b0316336001600160a01b03166004547f24a3dddf540fcf1f55426099b6a41f4751e72868ba9a8c84253207c5ca8f9d8560008888600089604051611eca9594939291906137ac565b60025460405163032a184360e31b81526001600160a01b0383811660048301526000928392911690631950c21890602401602060405180830381865afa1580156125d1573d6000803e3d6000fd5b505050506040513d601f19601f820116820180604052508101906125f59190613604565b61260457506000928392509050565b6001600160a01b038316600090815260086020908152604080832054600990925290912054612636620151808261367b565b42111561264d576001601154935093505050915091565b6000826011541161265f576000611fd8565b82601154611fd8919061368e565b612675612dde565b6001600160a01b0381166126cb5760405162461bcd60e51b815260206004820152601d60248201527f496e76616c6964206e65772077686974656c69737420616464726573730000006044820152606401610bb5565b600280546001600160a01b0319166001600160a01b0383169081179091556040519081527f7d6c324a6caac2b03df779ee40edbef0a5410a7eec60184b142c1d4283f50ce190602001610a57565b60608167ffffffffffffffff811115612734576127346135ee565b60405190808252806020026020018201604052801561276d57816020015b61275a612fbd565b8152602001906001900390816127525790505b50905060005b828110156128835760036000858584818110612791576127916135a9565b6020908102929092013583525081810192909252604090810160002081516101008101835281546001600160a01b039081168252600183015416938101939093526002808201549284019290925260038101546060840152600481015460808401526005810154909160a084019160ff1690811115612812576128126130ce565b6002811115612823576128236130ce565b81526005919091015461010081046001600160a01b03166020830152600160a81b900460ff1615156040909101528251839083908110612865576128656135a9565b6020026020010181905250808061287b906135d5565b915050612773565b505b92915050565b612893612dde565b60108190556040518181527ffc6a3d8a9b7dc21f79c0d39f23cdff9495723935d08713b93c3766df4d45b34790602001610a57565b6128d0612dde565b60008181526003602052604090206005810154600160a81b900460ff166129095760405162461bcd60e51b8152600401610bb59061364f565b60058101805460ff60a81b19169055600d54612926576000612935565b6001600d54612935919061368e565b600d556001600582015460ff166002811115612953576129536130ce565b036129cd576001810154815460028301546040516323b872dd60e01b81526001600160a01b03938416936323b872dd9361299693309392909116916004016136a1565b600060405180830381600087803b1580156129b057600080fd5b505af11580156129c4573d6000803e3d6000fd5b50505050612b24565b6000600582015460ff1660028111156129e8576129e86130ce565b03612a8e5760018101548154600383015460405163a9059cbb60e01b81526001600160a01b039283166004820152602481019190915291169063a9059cbb906044016020604051808303816000875af1158015612a49573d6000803e3d6000fd5b505050506040513d601f19601f82011682018060405250810190612a6d9190613604565b612a895760405162461bcd60e51b8152600401610bb5906136c5565b612b24565b6002600582015460ff166002811115612aa957612aa96130ce565b03612b24576001810154815460028301546003840154604051637921219560e11b81526001600160a01b039485169463f242432a94612af194309491909216926004016136f4565b600060405180830381600087803b158015612b0b57600080fd5b505af1158015612b1f573d6000803e3d6000fd5b505050505b80546040516001600160a01b039091169083907f8e25282255ab31897df2b0456bb993ac7f84d376861aefd84901d2d63a7428a290600090a35050565b606060008060015b600454811015612bb457600081815260036020526040902060050154600160a81b900460ff1615612ba25781612b9e816135d5565b9250505b80612bac816135d5565b915050612b69565b50809150808510612bd657506040805160008152602081019091529150612cd8565b6000612be2858761367b565b905081811115612bef5750805b6000612bfb878361368e565b90508067ffffffffffffffff811115612c1657612c166135ee565b604051908082528060200260200182016040528015612c3f578160200160208202803683370190505b50945060008060015b60045481108015612c5857508382105b15612cd157600081815260036020526040902060050154600160a81b900460ff1615612cbf57898310612cb15780888381518110612c9857612c986135a9565b602090810291909101015281612cad816135d5565b9250505b82612cbb816135d5565b9350505b80612cc9816135d5565b915050612c48565b5050505050505b9250929050565b612ce7612dde565b4780612d2a5760405162461bcd60e51b81526020600482015260126024820152714e6f2045544820746f20776974686472617760701b6044820152606401610bb5565b6001546040516001600160a01b039091169082156108fc029083906000818181858888f19350505050158015612d64573d6000803e3d6000fd5b5050565b612d70612dde565b6001600160a01b038116612dd55760405162461bcd60e51b815260206004820152602660248201527f4f776e61626c653a206e6577206f776e657220697320746865207a65726f206160448201526564647265737360d01b6064820152608401610bb5565b6110fe81612f6b565b6001546001600160a01b03163314611ff95760405162461bcd60e51b815260206004820181905260248201527f4f776e61626c653a2063616c6c6572206973206e6f7420746865206f776e65726044820152606401610bb5565b600260005403612e8a5760405162461bcd60e51b815260206004820152601f60248201527f5265656e7472616e637947756172643a207265656e7472616e742063616c6c006044820152606401610bb5565b6002600055565b33600090815260208390526040902054612eaf90620151809061367b565b421115612ed657503360009081526020928352604080822060019055919092529020429055565b336000908152602084905260409020548111612f465760405162461bcd60e51b815260206004820152602960248201527f496e746572616374696f6e206c696d6974207265616368656420666f722074686044820152681a5cc81c195c9a5bd960ba1b6064820152608401610bb5565b336000908152602084905260408120805491612f61836135d5565b9190505550505050565b600180546001600160a01b038381166001600160a01b0319831681179093556040519116919082907f8be0079c531659141344cd1fd0a4f28419497f9722a3daafe3b4186f6b6457e090600090a35050565b604080516101008101825260008082526020820181905291810182905260608101829052608081018290529060a0820190815260006020820181905260409091015290565b6001600160a01b03811681146110fe57600080fd5b60006020828403121561302957600080fd5b813561303481613002565b9392505050565b600081518084526020808501945080840160005b8381101561306b5781518752958201959082019060010161304f565b509495945050505050565b602081526000613034602083018461303b565b6000806040838503121561309c57600080fd5b82356130a781613002565b946020939093013593505050565b6000602082840312156130c757600080fd5b5035919050565b634e487b7160e01b600052602160045260246000fd5b6003811061310257634e487b7160e01b600052602160045260246000fd5b9052565b60018060a01b0380825116835280602083015116602084015260408201516040840152606082015160608401526080820151608084015260a082015161314f60a08501826130e4565b5060c0828101519091169083015260e0908101511515910152565b61010081016128858284613106565b60006020828403121561318b57600080fd5b81356003811061303457600080fd5b600080600080600060a086880312156131b257600080fd5b85356131bd81613002565b945060208601359350604086013592506060860135915060808601356131e281613002565b809150509295509295909350565b6000806000806080858703121561320657600080fd5b843561321181613002565b93506020850135925060408501359150606085013561322f81613002565b939692955090935050565b6000815180845260005b8181101561326057602081850181015186830182015201613244565b506000602082860101526020601f19601f83011685010191505092915050565b608081526000613293608083018761323a565b82810360208401526132a5818761323a565b604084019590955250506060015292915050565b60008083601f8401126132cb57600080fd5b50813567ffffffffffffffff8111156132e357600080fd5b6020830191508360208260051b8501011115612cd857600080fd5b6000806020838503121561331157600080fd5b823567ffffffffffffffff81111561332857600080fd5b613334858286016132b9565b90969095509350505050565b6020808252825182820181905260009190848201906040850190845b818110156133835761336f838551613106565b92840192610100929092019160010161335c565b50909695505050505050565b60008083601f8401126133a157600080fd5b50813567ffffffffffffffff8111156133b957600080fd5b602083019150836020828501011115612cd857600080fd5b60008060008060008060008060a0898b0312156133ed57600080fd5b88356133f881613002565b9750602089013561340881613002565b9650604089013567ffffffffffffffff8082111561342557600080fd5b6134318c838d016132b9565b909850965060608b013591508082111561344a57600080fd5b6134568c838d016132b9565b909650945060808b013591508082111561346f57600080fd5b5061347c8b828c0161338f565b999c989b5096995094979396929594505050565b600080604083850312156134a357600080fd5b50508035926020909101359150565b6040815260006134c5604083018561303b565b90508260208301529392505050565b6001600160a01b038981168252888116602083015260408201889052606082018790526080820186905261010082019061351160a08401876130e4565b9390931660c082015290151560e0909101529695505050505050565b60008060008060008060a0878903121561354657600080fd5b863561355181613002565b9550602087013561356181613002565b94506040870135935060608701359250608087013567ffffffffffffffff81111561358b57600080fd5b61359789828a0161338f565b979a9699509497509295939492505050565b634e487b7160e01b600052603260045260246000fd5b634e487b7160e01b600052601160045260246000fd5b6000600182016135e7576135e76135bf565b5060010190565b634e487b7160e01b600052604160045260246000fd5b60006020828403121561361657600080fd5b8151801515811461303457600080fd5b6020808252600f908201526e139bdd081dda1a5d195b1a5cdd1959608a1b604082015260600190565b6020808252601290820152714c697374696e67206e6f742061637469766560701b604082015260600190565b80820180821115612885576128856135bf565b81810381811115612885576128856135bf565b6001600160a01b039384168152919092166020820152604081019190915260600190565b602080825260159082015274151bdad95b881d1c985b9cd9995c8819985a5b1959605a1b604082015260600190565b6001600160a01b0394851681529290931660208301526040820152606081019190915260a06080820181905260009082015260c00190565b6020808252601c908201527f5072696365206d7573742062652067726561746572207468616e203000000000604082015260600190565b602080825260169082015275125b9d985b1a59081d1bdad95b8818dbdb9d1c9858dd60521b604082015260600190565b6000602082840312156137a557600080fd5b5051919050565b858152602081018590526040810184905260a081016137ce60608301856130e4565b6001600160a01b039290921660809190910152949350505050565b6000602082840312156137fb57600080fd5b81516130348161300256fe546f6b656e4d61726b6574706c616365202d204d756c74692d546f6b656e2054726164696e6720506c6174666f726da264697066735822122014b7dad7548061afc9799bea89e4aa14a56377b0f5deca4f1e7b37b628b54e0664736f6c63430008130033",
  "linkReferences": {},
  "deployedLinkReferences": {}
}