{
  "_format": "hh-sol-artifact-1",
  "contractName": "TrackingContract",
  "sourceName": "contracts/TrackingContract.sol",
  "abi": [
    {
      "inputs": [
        {
          "internalType": "address",
          "name": "_whitelistAddress",
          "type": "address"
        },
        {
          "internalType": "address",
          "name": "_erc20Address",
          "type": "address"
        },
        {
          "internalType": "address",
          "name": "_erc721PredefinedAddress",
          "type": "address"
        },
        {
          "internalType": "address",
          "name": "_erc721CustomAddress",
          "type": "address"
        }
      ],
      "stateMutability": "nonpayable",
      "type": "constructor"
    },
    {
      "anonymous": false,
      "inputs": [
        {
          "indexed": false,
          "internalType": "address",
          "name": "whitelist",
          "type": "address"
        },
        {
          "indexed": false,
          "internalType": "address",
          "name": "erc20",
          "type": "address"
        },
        {
          "indexed": false,
          "internalType": "address",
          "name": "erc721Predefined",
          "type": "address"
        },
        {
          "indexed": false,
          "internalType": "address",
          "name": "erc721Custom",
          "type": "address"
        }
      ],
      "name": "ContractsUpdated",
      "type": "event"
    },
    {
      "anonymous": false,
      "inputs": [
        {
          "indexed": true,
          "internalType": "address",
          "name": "previousOwner",
          "type": "address"
        },
        {
          "indexed": true,
          "internalType": "address",
          "name": "newOwner",
          "type": "address"
        }
      ],
      "name": "OwnershipTransferred",
      "type": "event"
    },
    {
      "anonymous": false,
      "inputs": [
        {
          "indexed": false,
          "internalType": "uint256",
          "name": "erc20Points",
          "type": "uint256"
        },
        {
          "indexed": false,
          "internalType": "uint256",
          "name": "nftPredefinedPoints",
          "type": "uint256"
        },
        {
          "indexed": false,
          "internalType": "uint256",
          "name": "nftCustomPoints",
          "type": "uint256"
        }
      ],
      "name": "PointsConfigChanged",
      "type": "event"
    },
    {
      "anonymous": false,
      "inputs": [
        {
          "indexed": true,
          "internalType": "address",
          "name": "user",
          "type": "address"
        }
      ],
      "name": "UserAdded",
      "type": "event"
    },
    {
      "anonymous": false,
      "inputs": [
        {
          "indexed": true,
          "internalType": "address",
          "name": "user",
          "type": "address"
        },
        {
          "indexed": false,
          "internalType": "uint256",
          "name": "totalPoints",
          "type": "uint256"
        }
      ],
      "name": "UserStatsUpdated",
      "type": "event"
    },
    {
      "inputs": [],
      "name": "UPDATE_COOLDOWN",
      "outputs": [
        {
          "internalType": "uint256",
          "name": "",
          "type": "uint256"
        }
      ],
      "stateMutability": "view",
      "type": "function"
    },
    {
      "inputs": [
        {
          "internalType": "address[]",
          "name": "_users",
          "type": "address[]"
        }
      ],
      "name": "batchUpdateUserStats",
      "outputs": [],
      "stateMutability": "nonpayable",
      "type": "function"
    },
    {
      "inputs": [
        {
          "internalType": "address",
          "name": "_user",
          "type": "address"
        }
      ],
      "name": "canUserUpdate",
      "outputs": [
        {
          "internalType": "bool",
          "name": "canUpdate",
          "type": "bool"
        },
        {
          "internalType": "uint256",
          "name": "timeUntilUpdate",
          "type": "uint256"
        }
      ],
      "stateMutability": "view",
      "type": "function"
    },
    {
      "inputs": [
        {
          "internalType": "uint256",
          "name": "",
          "type": "uint256"
        },
        {
          "internalType": "uint256",
          "name": "",
          "type": "uint256"
        }
      ],
      "name": "emergencyUpdateAllUsers",
      "outputs": [],
      "stateMutability": "view",
      "type": "function"
    },
    {
      "inputs": [],
      "name": "erc20Token",
      "outputs": [
        {
          "internalType": "contract IERC20",
          "name": "",
          "type": "address"
        }
      ],
      "stateMutability": "view",
      "type": "function"
    },
    {
      "inputs": [],
      "name": "erc721Custom",
      "outputs": [
        {
          "internalType": "contract IERC721",
          "name": "",
          "type": "address"
        }
      ],
      "stateMutability": "view",
      "type": "function"
    },
    {
      "inputs": [],
      "name": "erc721Predefined",
      "outputs": [
        {
          "internalType": "contract IERC721",
          "name": "",
          "type": "address"
        }
      ],
      "stateMutability": "view",
      "type": "function"
    },
    {
      "inputs": [
        {
          "internalType": "address",
          "name": "_user",
          "type": "address"
        }
      ],
      "name": "getCurrentUserBalances",
      "outputs": [
        {
          "internalType": "uint256",
          "name": "erc20Balance",
          "type": "uint256"
        },
        {
          "internalType": "uint256",
          "name": "erc721PredefinedBalance",
          "type": "uint256"
        },
        {
          "internalType": "uint256",
          "name": "erc721CustomBalance",
          "type": "uint256"
        },
        {
          "internalType": "uint256",
          "name": "calculatedPoints",
          "type": "uint256"
        }
      ],
      "stateMutability": "view",
      "type": "function"
    },
    {
      "inputs": [
        {
          "internalType": "uint256",
          "name": "_limit",
          "type": "uint256"
        }
      ],
      "name": "getLeaderboard",
      "outputs": [
        {
          "internalType": "address[]",
          "name": "addresses",
          "type": "address[]"
        },
        {
          "internalType": "uint256[]",
          "name": "points",
          "type": "uint256[]"
        }
      ],
      "stateMutability": "view",
      "type": "function"
    },
    {
      "inputs": [],
      "name": "getTotalTrackedUsers",
      "outputs": [
        {
          "internalType": "uint256",
          "name": "",
          "type": "uint256"
        }
      ],
      "stateMutability": "view",
      "type": "function"
    },
    {
      "inputs": [
        {
          "internalType": "address",
          "name": "_user",
          "type": "address"
        }
      ],
      "name": "getUserStats",
      "outputs": [
        {
          "components": [
            {
              "internalType": "uint256",
              "name": "erc20Balance",
              "type": "uint256"
            },
            {
              "internalType": "uint256",
              "name": "erc721PredefinedBalance",
              "type": "uint256"
            },
            {
              "internalType": "uint256",
              "name": "erc721CustomBalance",
              "type": "uint256"
            },
            {
              "internalType": "uint256",
              "name": "totalPoints",
              "type": "uint256"
            },
            {
              "internalType": "uint256",
              "name": "lastUpdateTime",
              "type": "uint256"
            },
            {
              "internalType": "bool",
              "name": "isActive",
              "type": "bool"
            }
          ],
          "internalType": "struct TrackingContract.UserStats",
          "name": "",
          "type": "tuple"
        }
      ],
      "stateMutability": "view",
      "type": "function"
    },
    {
      "inputs": [
        {
          "internalType": "address",
          "name": "",
          "type": "address"
        }
      ],
      "name": "isUserTracked",
      "outputs": [
        {
          "internalType": "bool",
          "name": "",
          "type": "bool"
        }
      ],
      "stateMutability": "view",
      "type": "function"
    },
    {
      "inputs": [],
      "name": "owner",
      "outputs": [
        {
          "internalType": "address",
          "name": "",
          "type": "address"
        }
      ],
      "stateMutability": "view",
      "type": "function"
    },
    {
      "inputs": [],
      "name": "pointsPerERC20",
      "outputs": [
        {
          "internalType": "uint256",
          "name": "",
          "type": "uint256"
        }
      ],
      "stateMutability": "view",
      "type": "function"
    },
    {
      "inputs": [],
      "name": "pointsPerERC721Custom",
      "outputs": [
        {
          "internalType": "uint256",
          "name": "",
          "type": "uint256"
        }
      ],
      "stateMutability": "view",
      "type": "function"
    },
    {
      "inputs": [],
      "name": "pointsPerERC721Predefined",
      "outputs": [
        {
          "internalType": "uint256",
          "name": "",
          "type": "uint256"
        }
      ],
      "stateMutability": "view",
      "type": "function"
    },
    {
      "inputs": [
        {
          "internalType": "address",
          "name": "_user",
          "type": "address"
        }
      ],
      "name": "removeUser",
      "outputs": [],
      "stateMutability": "nonpayable",
      "type": "function"
    },
    {
      "inputs": [],
      "name": "renounceOwnership",
      "outputs": [],
      "stateMutability": "nonpayable",
      "type": "function"
    },
    {
      "inputs": [
        {
          "internalType": "uint256",
          "name": "_pointsPerERC20",
          "type": "uint256"
        },
        {
          "internalType": "uint256",
          "name": "_pointsPerERC721Predefined",
          "type": "uint256"
        },
        {
          "internalType": "uint256",
          "name": "_pointsPerERC721Custom",
          "type": "uint256"
        }
      ],
      "name": "setPointsConfiguration",
      "outputs": [],
      "stateMutability": "nonpayable",
      "type": "function"
    },
    {
      "inputs": [
        {
          "internalType": "uint256",
          "name": "",
          "type": "uint256"
        }
      ],
      "name": "trackedUsers",
      "outputs": [
        {
          "internalType": "address",
          "name": "",
          "type": "address"
        }
      ],
      "stateMutability": "view",
      "type": "function"
    },
    {
      "inputs": [
        {
          "internalType": "address",
          "name": "newOwner",
          "type": "address"
        }
      ],
      "name": "transferOwnership",
      "outputs": [],
      "stateMutability": "nonpayable",
      "type": "function"
    },
    {
      "inputs": [
        {
          "internalType": "address",
          "name": "_whitelist",
          "type": "address"
        },
        {
          "internalType": "address",
          "name": "_erc20",
          "type": "address"
        },
        {
          "internalType": "address",
          "name": "_erc721Predefined",
          "type": "address"
        },
        {
          "internalType": "address",
          "name": "_erc721Custom",
          "type": "address"
        }
      ],
      "name": "updateContracts",
      "outputs": [],
      "stateMutability": "nonpayable",
      "type": "function"
    },
    {
      "inputs": [
        {
          "internalType": "address",
          "name": "_user",
          "type": "address"
        }
      ],
      "name": "updateUserStats",
      "outputs": [],
      "stateMutability": "nonpayable",
      "type": "function"
    },
    {
      "inputs": [
        {
          "internalType": "address",
          "name": "",
          "type": "address"
        }
      ],
      "name": "userStats",
      "outputs": [
        {
          "internalType": "uint256",
          "name": "erc20Balance",
          "type": "uint256"
        },
        {
          "internalType": "uint256",
          "name": "erc721PredefinedBalance",
          "type": "uint256"
        },
        {
          "internalType": "uint256",
          "name": "erc721CustomBalance",
          "type": "uint256"
        },
        {
          "internalType": "uint256",
          "name": "totalPoints",
          "type": "uint256"
        },
        {
          "internalType": "uint256",
          "name": "lastUpdateTime",
          "type": "uint256"
        },
        {
          "internalType": "bool",
          "name": "isActive",
          "type": "bool"
        }
      ],
      "stateMutability": "view",
      "type": "function"
    },
    {
      "inputs": [],
      "name": "whitelist",
      "outputs": [
        {
          "internalType": "contract Whitelist",
          "name": "",
          "type": "address"
        }
      ],
      "stateMutability": "view",
      "type": "function"
    }
  ],
  "bytecode": "0x60806040526001600955600a8055601e600b553480156200001f57600080fd5b506040516200215138038062002151833981016040819052620000429162000280565b6200004d3362000213565b600180556001600160a01b038416620000ad5760405162461bcd60e51b815260206004820152601960248201527f496e76616c69642077686974656c69737420616464726573730000000000000060448201526064015b60405180910390fd5b6001600160a01b038316620001055760405162461bcd60e51b815260206004820152601560248201527f496e76616c6964204552433230206164647265737300000000000000000000006044820152606401620000a4565b6001600160a01b038216620001675760405162461bcd60e51b815260206004820152602160248201527f496e76616c69642045524337323120707265646566696e6564206164647265736044820152607360f81b6064820152608401620000a4565b6001600160a01b038116620001bf5760405162461bcd60e51b815260206004820152601d60248201527f496e76616c69642045524337323120637573746f6d20616464726573730000006044820152606401620000a4565b600280546001600160a01b039586166001600160a01b0319918216179091556003805494861694821694909417909355600480549285169284169290921790915560058054919093169116179055620002dd565b600080546001600160a01b038381166001600160a01b0319831681178455604051919092169283917f8be0079c531659141344cd1fd0a4f28419497f9722a3daafe3b4186f6b6457e09190a35050565b80516001600160a01b03811681146200027b57600080fd5b919050565b600080600080608085870312156200029757600080fd5b620002a28562000263565b9350620002b26020860162000263565b9250620002c26040860162000263565b9150620002d26060860162000263565b905092959194509250565b611e6480620002ed6000396000f3fe608060405234801561001057600080fd5b50600436106101735760003560e01c80638a65d874116100de578063a34b46fe11610097578063e95ff33611610071578063e95ff336146103f4578063ed8954d5146103fc578063f2fde38b1461040f578063f7d959b51461042257600080fd5b8063a34b46fe146103b7578063b8f298fe146103d8578063d854dcaf146103e157600080fd5b80638a65d874146102ef5780638da5cb5b1461036457806393e59dc11461037557806398575188146103885780639be78c8d1461039b5780639d5739e7146103ae57600080fd5b80634e43603a116101305780634e43603a14610244578063560ac526146102a557806365873240146102b8578063715018a6146102c157806378f78ec1146102c95780638a13eea7146102dc57600080fd5b8063069d3e45146101785780630b751279146101945780630d9228ee146101a95780631ec249a1146101d35780632a8f06941461020657806339ae3f7514610231575b600080fd5b610181600a5481565b6040519081526020015b60405180910390f35b6101a76101a2366004611b5d565b610455565b005b6101bc6101b7366004611bb1565b610657565b60408051921515835260208301919091520161018b565b6101f66101e1366004611bb1565b60086020526000908152604090205460ff1681565b604051901515815260200161018b565b600454610219906001600160a01b031681565b6040516001600160a01b03909116815260200161018b565b61021961023f366004611bd3565b6106b0565b610257610252366004611bb1565b6106da565b60405161018b9190600060c082019050825182526020830151602083015260408301516040830152606083015160608301526080830151608083015260a0830151151560a083015292915050565b6101a76102b3366004611bec565b61077c565b61018160095481565b6101a76107d9565b600554610219906001600160a01b031681565b600354610219906001600160a01b031681565b6103356102fd366004611bb1565b600660205260009081526040902080546001820154600283015460038401546004850154600590950154939492939192909160ff1686565b6040805196875260208701959095529385019290925260608401526080830152151560a082015260c00161018b565b6000546001600160a01b0316610219565b600254610219906001600160a01b031681565b6101a7610396366004611bb1565b6107ed565b6101a76103a9366004611bb1565b610874565b610181610e1081565b6103ca6103c5366004611bd3565b610ce9565b60405161018b929190611c18565b610181600b5481565b6101a76103ef366004611c9c565b6111fc565b600754610181565b6101a761040a366004611cbe565b611272565b6101a761041d366004611bb1565b611869565b610435610430366004611bb1565b6118e2565b60408051948552602085019390935291830152606082015260800161018b565b61045d611a97565b6001600160a01b0384166104b85760405162461bcd60e51b815260206004820152601960248201527f496e76616c69642077686974656c69737420616464726573730000000000000060448201526064015b60405180910390fd5b6001600160a01b0383166105065760405162461bcd60e51b8152602060048201526015602482015274496e76616c6964204552433230206164647265737360581b60448201526064016104af565b6001600160a01b0382166105665760405162461bcd60e51b815260206004820152602160248201527f496e76616c69642045524337323120707265646566696e6564206164647265736044820152607360f81b60648201526084016104af565b6001600160a01b0381166105bc5760405162461bcd60e51b815260206004820152601d60248201527f496e76616c69642045524337323120637573746f6d206164647265737300000060448201526064016104af565b600280546001600160a01b038681166001600160a01b031992831681179093556003805487831690841681179091556004805487841690851681179091556005805493871693909416831790935560408051948552602085019190915283019190915260608201527f5fa24fea85a5ce115f424d206cd07e10fe6c52fd86d013949fea9654d3f62ca09060800160405180910390a150505050565b6001600160a01b0381166000908152600660205260408120600401548190819061068490610e1090611d49565b905080421061069a575060019360009350915050565b60006106a64283611d62565b9250925050915091565b600781815481106106c057600080fd5b6000918252602090912001546001600160a01b0316905081565b6107156040518060c0016040528060008152602001600081526020016000815260200160008152602001600081526020016000151581525090565b506001600160a01b0316600090815260066020908152604091829020825160c08101845281548152600182015492810192909252600281015492820192909252600382015460608201526004820154608082015260059091015460ff16151560a082015290565b610784611a97565b6009839055600a829055600b81905560408051848152602081018490529081018290527fe917bdf44f95901de58f834b8122bb38cc90894b6bf25540a889ca2b5815e4739060600160405180910390a1505050565b6107e1611a97565b6107eb6000611af1565b565b6107f5611a97565b6001600160a01b03811660009081526008602052604090205460ff166108505760405162461bcd60e51b815260206004820152601060248201526f155cd95c881b9bdd081d1c9858dad95960821b60448201526064016104af565b6001600160a01b03166000908152600660205260409020600501805460ff19169055565b60025460405163032a184360e31b81526001600160a01b03838116600483015290911690631950c21890602401602060405180830381865afa1580156108be573d6000803e3d6000fd5b505050506040513d601f19601f820116820180604052508101906108e29190611d75565b6109255760405162461bcd60e51b8152602060048201526014602482015273155cd95c881b9bdd081dda1a5d195b1a5cdd195960621b60448201526064016104af565b6001600160a01b03811660009081526006602052604090206004015461094e90610e1090611d49565b4210156109965760405162461bcd60e51b815260206004820152601660248201527555706461746520636f6f6c646f776e2061637469766560501b60448201526064016104af565b6001600160a01b03811660009081526008602052604090205460ff16610a43576007805460018082019092557fa66cc928b5edb82af9bd49922954155ab7b0942694bea4ce44661d9a8736c6880180546001600160a01b0319166001600160a01b038416908117909155600081815260086020526040808220805460ff1916909417909355915190917f19ef9a4877199f89440a26acb26895ec02ed86f2df1aeaa90dc18041b892f71f91a25b6003546040516370a0823160e01b81526001600160a01b03838116600483015260009216906370a0823190602401602060405180830381865afa158015610a8e573d6000803e3d6000fd5b505050506040513d601f19601f82011682018060405250810190610ab29190611d97565b600480546040516370a0823160e01b81526001600160a01b03868116938201939093529293506000929116906370a0823190602401602060405180830381865afa158015610b04573d6000803e3d6000fd5b505050506040513d601f19601f82011682018060405250810190610b289190611d97565b6005546040516370a0823160e01b81526001600160a01b038681166004830152929350600092909116906370a0823190602401602060405180830381865afa158015610b78573d6000803e3d6000fd5b505050506040513d601f19601f82011682018060405250810190610b9c9190611d97565b90506000610bb2670de0b6b3a764000085611db0565b90506000600b5483610bc49190611dd2565b600a54610bd19086611dd2565b600954610bde9085611dd2565b610be89190611d49565b610bf29190611d49565b90506040518060c001604052808681526020018581526020018481526020018281526020014281526020016001151581525060066000886001600160a01b03166001600160a01b03168152602001908152602001600020600082015181600001556020820151816001015560408201518160020155606082015181600301556080820151816004015560a08201518160050160006101000a81548160ff021916908315150217905550905050856001600160a01b03167f222f134341ff4c5badfcd5efb1f96d64419216770ca6ab0f25e36941e9205f5282604051610cd991815260200190565b60405180910390a2505050505050565b60075460609081906000819003610d1a57505060408051600080825260208201908152818301909252939092509050565b60008167ffffffffffffffff811115610d3557610d35611de9565b604051908082528060200260200182016040528015610d5e578160200160208202803683370190505b50905060008267ffffffffffffffff811115610d7c57610d7c611de9565b604051908082528060200260200182016040528015610da5578160200160208202803683370190505b5090506000805b84811015610edc576006600060078381548110610dcb57610dcb611dff565b60009182526020808320909101546001600160a01b0316835282019290925260400190206005015460ff1615610eca5760078181548110610e0e57610e0e611dff565b9060005260206000200160009054906101000a90046001600160a01b0316848381518110610e3e57610e3e611dff565b60200260200101906001600160a01b031690816001600160a01b0316815250506006600060078381548110610e7557610e75611dff565b60009182526020808320909101546001600160a01b031683528201929092526040019020600301548351849084908110610eb157610eb1611dff565b602090810291909101015281610ec681611e15565b9250505b80610ed481611e15565b915050610dac565b5060005b610eeb600183611d62565b8110156110b35760005b6001610f018385611d62565b610f0b9190611d62565b8110156110a05783610f1e826001611d49565b81518110610f2e57610f2e611dff565b6020026020010151848281518110610f4857610f48611dff565b6020026020010151101561108e576000848281518110610f6a57610f6a611dff565b6020026020010151905084826001610f829190611d49565b81518110610f9257610f92611dff565b6020026020010151858381518110610fac57610fac611dff565b60209081029190910101528085610fc4846001611d49565b81518110610fd457610fd4611dff565b6020026020010181815250506000868381518110610ff457610ff4611dff565b602002602001015190508683600161100c9190611d49565b8151811061101c5761101c611dff565b602002602001015187848151811061103657611036611dff565b6001600160a01b0390921660209283029190910190910152808761105b856001611d49565b8151811061106b5761106b611dff565b60200260200101906001600160a01b031690816001600160a01b03168152505050505b8061109881611e15565b915050610ef5565b50806110ab81611e15565b915050610ee0565b5060008782106110c357876110c5565b815b90508067ffffffffffffffff8111156110e0576110e0611de9565b604051908082528060200260200182016040528015611109578160200160208202803683370190505b5096508067ffffffffffffffff81111561112557611125611de9565b60405190808252806020026020018201604052801561114e578160200160208202803683370190505b50955060005b818110156111f15784818151811061116e5761116e611dff565b602002602001015188828151811061118857611188611dff565b60200260200101906001600160a01b031690816001600160a01b0316815250508381815181106111ba576111ba611dff565b60200260200101518782815181106111d4576111d4611dff565b6020908102919091010152806111e981611e15565b915050611154565b505050505050915091565b611204611a97565b60405162461bcd60e51b815260206004820152603860248201527f557365206261746368557064617465557365725374617473207769746820737060448201527f6563696669632061646472657373657320696e7374656164000000000000000060648201526084016104af565b60005b81811015611864576002546001600160a01b0316631950c2188484848181106112a0576112a0611dff565b90506020020160208101906112b59190611bb1565b6040516001600160e01b031960e084901b1681526001600160a01b039091166004820152602401602060405180830381865afa1580156112f9573d6000803e3d6000fd5b505050506040513d601f19601f8201168201806040525081019061131d9190611d75565b80156113845750610e106006600085858581811061133d5761133d611dff565b90506020020160208101906113529190611bb1565b6001600160a01b03166001600160a01b03168152602001908152602001600020600401546113809190611d49565b4210155b15611852576008600084848481811061139f5761139f611dff565b90506020020160208101906113b49190611bb1565b6001600160a01b0316815260208101919091526040016000205460ff166114e25760078383838181106113e9576113e9611dff565b90506020020160208101906113fe9190611bb1565b81546001808201845560009384526020842090910180546001600160a01b0319166001600160a01b0393909316929092179091559060089085858581811061144857611448611dff565b905060200201602081019061145d9190611bb1565b6001600160a01b031681526020810191909152604001600020805460ff191691151591909117905582828281811061149757611497611dff565b90506020020160208101906114ac9190611bb1565b6001600160a01b03167f19ef9a4877199f89440a26acb26895ec02ed86f2df1aeaa90dc18041b892f71f60405160405180910390a25b6003546000906001600160a01b03166370a0823185858581811061150857611508611dff565b905060200201602081019061151d9190611bb1565b6040516001600160e01b031960e084901b1681526001600160a01b039091166004820152602401602060405180830381865afa158015611561573d6000803e3d6000fd5b505050506040513d601f19601f820116820180604052508101906115859190611d97565b6004549091506000906001600160a01b03166370a082318686868181106115ae576115ae611dff565b90506020020160208101906115c39190611bb1565b6040516001600160e01b031960e084901b1681526001600160a01b039091166004820152602401602060405180830381865afa158015611607573d6000803e3d6000fd5b505050506040513d601f19601f8201168201806040525081019061162b9190611d97565b6005549091506000906001600160a01b03166370a0823187878781811061165457611654611dff565b90506020020160208101906116699190611bb1565b6040516001600160e01b031960e084901b1681526001600160a01b039091166004820152602401602060405180830381865afa1580156116ad573d6000803e3d6000fd5b505050506040513d601f19601f820116820180604052508101906116d19190611d97565b905060006116e7670de0b6b3a764000085611db0565b90506000600b54836116f99190611dd2565b600a546117069086611dd2565b6009546117139085611dd2565b61171d9190611d49565b6117279190611d49565b90506040518060c0016040528086815260200185815260200184815260200182815260200142815260200160011515815250600660008a8a8a81811061176f5761176f611dff565b90506020020160208101906117849190611bb1565b6001600160a01b031681526020808201929092526040908101600020835181559183015160018301558201516002820155606082015160038201556080820151600482015560a0909101516005909101805460ff19169115159190911790558787878181106117f5576117f5611dff565b905060200201602081019061180a9190611bb1565b6001600160a01b03167f222f134341ff4c5badfcd5efb1f96d64419216770ca6ab0f25e36941e9205f528260405161184491815260200190565b60405180910390a250505050505b8061185c81611e15565b915050611275565b505050565b611871611a97565b6001600160a01b0381166118d65760405162461bcd60e51b815260206004820152602660248201527f4f776e61626c653a206e6577206f776e657220697320746865207a65726f206160448201526564647265737360d01b60648201526084016104af565b6118df81611af1565b50565b6003546040516370a0823160e01b81526001600160a01b03838116600483015260009283928392839216906370a0823190602401602060405180830381865afa158015611933573d6000803e3d6000fd5b505050506040513d601f19601f820116820180604052508101906119579190611d97565b600480546040516370a0823160e01b81526001600160a01b038981169382019390935292965016906370a0823190602401602060405180830381865afa1580156119a5573d6000803e3d6000fd5b505050506040513d601f19601f820116820180604052508101906119c99190611d97565b6005546040516370a0823160e01b81526001600160a01b0388811660048301529295509116906370a0823190602401602060405180830381865afa158015611a15573d6000803e3d6000fd5b505050506040513d601f19601f82011682018060405250810190611a399190611d97565b91506000611a4f670de0b6b3a764000086611db0565b9050600b5483611a5f9190611dd2565b600a54611a6c9086611dd2565b600954611a799084611dd2565b611a839190611d49565b611a8d9190611d49565b9150509193509193565b6000546001600160a01b031633146107eb5760405162461bcd60e51b815260206004820181905260248201527f4f776e61626c653a2063616c6c6572206973206e6f7420746865206f776e657260448201526064016104af565b600080546001600160a01b038381166001600160a01b0319831681178455604051919092169283917f8be0079c531659141344cd1fd0a4f28419497f9722a3daafe3b4186f6b6457e09190a35050565b80356001600160a01b0381168114611b5857600080fd5b919050565b60008060008060808587031215611b7357600080fd5b611b7c85611b41565b9350611b8a60208601611b41565b9250611b9860408601611b41565b9150611ba660608601611b41565b905092959194509250565b600060208284031215611bc357600080fd5b611bcc82611b41565b9392505050565b600060208284031215611be557600080fd5b5035919050565b600080600060608486031215611c0157600080fd5b505081359360208301359350604090920135919050565b604080825283519082018190526000906020906060840190828701845b82811015611c5a5781516001600160a01b031684529284019290840190600101611c35565b5050508381038285015284518082528583019183019060005b81811015611c8f57835183529284019291840191600101611c73565b5090979650505050505050565b60008060408385031215611caf57600080fd5b50508035926020909101359150565b60008060208385031215611cd157600080fd5b823567ffffffffffffffff80821115611ce957600080fd5b818501915085601f830112611cfd57600080fd5b813581811115611d0c57600080fd5b8660208260051b8501011115611d2157600080fd5b60209290920196919550909350505050565b634e487b7160e01b600052601160045260246000fd5b80820180821115611d5c57611d5c611d33565b92915050565b81810381811115611d5c57611d5c611d33565b600060208284031215611d8757600080fd5b81518015158114611bcc57600080fd5b600060208284031215611da957600080fd5b5051919050565b600082611dcd57634e487b7160e01b600052601260045260246000fd5b500490565b8082028115828204841417611d5c57611d5c611d33565b634e487b7160e01b600052604160045260246000fd5b634e487b7160e01b600052603260045260246000fd5b600060018201611e2757611e27611d33565b506001019056fea2646970667358221220c21b97b056d41ec3793819ae1bc77fb6cecb671cbfafe298d30c102a66fcd2f464736f6c63430008130033",
  "linkReferences": {},
  "deployedLinkReferences": {}
}