{
  "_format": "hh-sol-artifact-1",
  "contractName": "Whitelist",
  "sourceName": "contracts/Whitelist.sol",
  "abi": [
    {
      "inputs": [],
      "stateMutability": "nonpayable",
      "type": "constructor"
    },
    {
      "anonymous": false,
      "inputs": [
        {
          "indexed": true,
          "internalType": "address",
          "name": "admin",
          "type": "address"
        }
      ],
      "name": "AdminAdded",
      "type": "event"
    },
    {
      "anonymous": false,
      "inputs": [
        {
          "indexed": true,
          "internalType": "address",
          "name": "admin",
          "type": "address"
        }
      ],
      "name": "AdminRemoved",
      "type": "event"
    },
    {
      "anonymous": false,
      "inputs": [
        {
          "indexed": false,
          "internalType": "address[]",
          "name": "users",
          "type": "address[]"
        }
      ],
      "name": "BatchWhitelistAdded",
      "type": "event"
    },
    {
      "anonymous": false,
      "inputs": [
        {
          "indexed": false,
          "internalType": "address[]",
          "name": "users",
          "type": "address[]"
        }
      ],
      "name": "BatchWhitelistRemoved",
      "type": "event"
    },
    {
      "anonymous": false,
      "inputs": [
        {
          "indexed": true,
          "internalType": "address",
          "name": "previousOwner",
          "type": "address"
        },
        {
          "indexed": true,
          "internalType": "address",
          "name": "newOwner",
          "type": "address"
        }
      ],
      "name": "OwnershipTransferred",
      "type": "event"
    },
    {
      "anonymous": false,
      "inputs": [
        {
          "indexed": true,
          "internalType": "address",
          "name": "user",
          "type": "address"
        }
      ],
      "name": "UserBlacklisted",
      "type": "event"
    },
    {
      "anonymous": false,
      "inputs": [
        {
          "indexed": true,
          "internalType": "address",
          "name": "user",
          "type": "address"
        }
      ],
      "name": "UserRemovedFromBlacklist",
      "type": "event"
    },
    {
      "anonymous": false,
      "inputs": [
        {
          "indexed": true,
          "internalType": "address",
          "name": "user",
          "type": "address"
        }
      ],
      "name": "UserRemovedFromWhitelist",
      "type": "event"
    },
    {
      "anonymous": false,
      "inputs": [
        {
          "indexed": true,
          "internalType": "address",
          "name": "user",
          "type": "address"
        }
      ],
      "name": "UserWhitelisted",
      "type": "event"
    },
    {
      "inputs": [
        {
          "internalType": "address",
          "name": "_admin",
          "type": "address"
        }
      ],
      "name": "addAdmin",
      "outputs": [],
      "stateMutability": "nonpayable",
      "type": "function"
    },
    {
      "inputs": [
        {
          "internalType": "address",
          "name": "_user",
          "type": "address"
        }
      ],
      "name": "addToBlacklist",
      "outputs": [],
      "stateMutability": "nonpayable",
      "type": "function"
    },
    {
      "inputs": [
        {
          "internalType": "address",
          "name": "_user",
          "type": "address"
        }
      ],
      "name": "addToWhitelist",
      "outputs": [],
      "stateMutability": "nonpayable",
      "type": "function"
    },
    {
      "inputs": [
        {
          "internalType": "address",
          "name": "",
          "type": "address"
        }
      ],
      "name": "admins",
      "outputs": [
        {
          "internalType": "bool",
          "name": "",
          "type": "bool"
        }
      ],
      "stateMutability": "view",
      "type": "function"
    },
    {
      "inputs": [
        {
          "internalType": "address[]",
          "name": "_users",
          "type": "address[]"
        }
      ],
      "name": "batchAddToWhitelist",
      "outputs": [],
      "stateMutability": "nonpayable",
      "type": "function"
    },
    {
      "inputs": [
        {
          "internalType": "address[]",
          "name": "_users",
          "type": "address[]"
        }
      ],
      "name": "batchCheckWhitelist",
      "outputs": [
        {
          "internalType": "bool[]",
          "name": "statuses",
          "type": "bool[]"
        }
      ],
      "stateMutability": "view",
      "type": "function"
    },
    {
      "inputs": [
        {
          "internalType": "address[]",
          "name": "_users",
          "type": "address[]"
        }
      ],
      "name": "batchRemoveFromWhitelist",
      "outputs": [],
      "stateMutability": "nonpayable",
      "type": "function"
    },
    {
      "inputs": [
        {
          "internalType": "address",
          "name": "",
          "type": "address"
        }
      ],
      "name": "blacklist",
      "outputs": [
        {
          "internalType": "bool",
          "name": "",
          "type": "bool"
        }
      ],
      "stateMutability": "view",
      "type": "function"
    },
    {
      "inputs": [
        {
          "internalType": "address",
          "name": "_user",
          "type": "address"
        }
      ],
      "name": "checkBlacklist",
      "outputs": [
        {
          "internalType": "bool",
          "name": "",
          "type": "bool"
        }
      ],
      "stateMutability": "view",
      "type": "function"
    },
    {
      "inputs": [
        {
          "internalType": "address",
          "name": "_user",
          "type": "address"
        }
      ],
      "name": "checkWhitelist",
      "outputs": [
        {
          "internalType": "bool",
          "name": "",
          "type": "bool"
        }
      ],
      "stateMutability": "view",
      "type": "function"
    },
    {
      "inputs": [],
      "name": "getContractInfo",
      "outputs": [
        {
          "internalType": "string",
          "name": "contractName",
          "type": "string"
        },
        {
          "internalType": "string",
          "name": "version",
          "type": "string"
        }
      ],
      "stateMutability": "pure",
      "type": "function"
    },
    {
      "inputs": [],
      "name": "getTotalBlacklistedUsers",
      "outputs": [
        {
          "internalType": "uint256",
          "name": "",
          "type": "uint256"
        }
      ],
      "stateMutability": "view",
      "type": "function"
    },
    {
      "inputs": [],
      "name": "getTotalWhitelistedUsers",
      "outputs": [
        {
          "internalType": "uint256",
          "name": "",
          "type": "uint256"
        }
      ],
      "stateMutability": "view",
      "type": "function"
    },
    {
      "inputs": [
        {
          "internalType": "address",
          "name": "_user",
          "type": "address"
        }
      ],
      "name": "getUserStatus",
      "outputs": [
        {
          "internalType": "bool",
          "name": "isWhitelisted",
          "type": "bool"
        },
        {
          "internalType": "bool",
          "name": "isBlacklisted",
          "type": "bool"
        },
        {
          "internalType": "bool",
          "name": "isActive",
          "type": "bool"
        }
      ],
      "stateMutability": "view",
      "type": "function"
    },
    {
      "inputs": [],
      "name": "getWhitelistStats",
      "outputs": [
        {
          "internalType": "uint256",
          "name": "totalWhitelisted",
          "type": "uint256"
        },
        {
          "internalType": "uint256",
          "name": "totalBlacklisted",
          "type": "uint256"
        },
        {
          "internalType": "uint256",
          "name": "totalEverAdded",
          "type": "uint256"
        }
      ],
      "stateMutability": "view",
      "type": "function"
    },
    {
      "inputs": [
        {
          "internalType": "uint256",
          "name": "_start",
          "type": "uint256"
        },
        {
          "internalType": "uint256",
          "name": "_limit",
          "type": "uint256"
        }
      ],
      "name": "getWhitelistedUsersPaginated",
      "outputs": [
        {
          "internalType": "address[]",
          "name": "users",
          "type": "address[]"
        },
        {
          "internalType": "uint256",
          "name": "total",
          "type": "uint256"
        }
      ],
      "stateMutability": "view",
      "type": "function"
    },
    {
      "inputs": [
        {
          "internalType": "address",
          "name": "_address",
          "type": "address"
        }
      ],
      "name": "isAdmin",
      "outputs": [
        {
          "internalType": "bool",
          "name": "",
          "type": "bool"
        }
      ],
      "stateMutability": "view",
      "type": "function"
    },
    {
      "inputs": [],
      "name": "owner",
      "outputs": [
        {
          "internalType": "address",
          "name": "",
          "type": "address"
        }
      ],
      "stateMutability": "view",
      "type": "function"
    },
    {
      "inputs": [],
      "name": "recalculateCounters",
      "outputs": [],
      "stateMutability": "nonpayable",
      "type": "function"
    },
    {
      "inputs": [
        {
          "internalType": "address",
          "name": "_admin",
          "type": "address"
        }
      ],
      "name": "removeAdmin",
      "outputs": [],
      "stateMutability": "nonpayable",
      "type": "function"
    },
    {
      "inputs": [
        {
          "internalType": "address",
          "name": "_user",
          "type": "address"
        }
      ],
      "name": "removeFromBlacklist",
      "outputs": [],
      "stateMutability": "nonpayable",
      "type": "function"
    },
    {
      "inputs": [
        {
          "internalType": "address",
          "name": "_user",
          "type": "address"
        }
      ],
      "name": "removeFromWhitelist",
      "outputs": [],
      "stateMutability": "nonpayable",
      "type": "function"
    },
    {
      "inputs": [],
      "name": "renounceOwnership",
      "outputs": [],
      "stateMutability": "nonpayable",
      "type": "function"
    },
    {
      "inputs": [],
      "name": "totalBlacklistedUsers",
      "outputs": [
        {
          "internalType": "uint256",
          "name": "",
          "type": "uint256"
        }
      ],
      "stateMutability": "view",
      "type": "function"
    },
    {
      "inputs": [],
      "name": "totalWhitelistedUsers",
      "outputs": [
        {
          "internalType": "uint256",
          "name": "",
          "type": "uint256"
        }
      ],
      "stateMutability": "view",
      "type": "function"
    },
    {
      "inputs": [
        {
          "internalType": "address",
          "name": "newOwner",
          "type": "address"
        }
      ],
      "name": "transferOwnership",
      "outputs": [],
      "stateMutability": "nonpayable",
      "type": "function"
    },
    {
      "inputs": [
        {
          "internalType": "address",
          "name": "",
          "type": "address"
        }
      ],
      "name": "whitelist",
      "outputs": [
        {
          "internalType": "bool",
          "name": "",
          "type": "bool"
        }
      ],
      "stateMutability": "view",
      "type": "function"
    },
    {
      "inputs": [
        {
          "internalType": "uint256",
          "name": "",
          "type": "uint256"
        }
      ],
      "name": "whitelistedUsers",
      "outputs": [
        {
          "internalType": "address",
          "name": "",
          "type": "address"
        }
      ],
      "stateMutability": "view",
      "type": "function"
    }
  ],
  "bytecode": "0x60806040526000600755600060085534801561001a57600080fd5b506100243361002d565b6001805561007d565b600080546001600160a01b038381166001600160a01b0319831681178455604051919092169283917f8be0079c531659141344cd1fd0a4f28419497f9722a3daafe3b4186f6b6457e09190a35050565b6118d38061008c6000396000f3fe608060405234801561001057600080fd5b50600436106101c45760003560e01c80637cc1f867116100f9578063da2a58c511610097578063ea0d5dcd11610071578063ea0d5dcd14610418578063f1995c751461044a578063f2fde38b14610452578063f9f92be41461046557600080fd5b8063da2a58c5146103d1578063e43252d7146103d9578063e6807ca9146103ec57600080fd5b806389e406a8116100d357806389e406a8146103815780638ab1d6811461038a5780638da5cb5b1461039d5780639b19251a146103ae57600080fd5b80637cc1f867146103205780638165e93214610336578063856682751461035657600080fd5b8063429b62e511610166578063704802751161014057806370480275146102dc578063715018a6146102ef578063745d9c3d146102f757806376afae2d146102ff57600080fd5b8063429b62e51461029357806344337ea1146102b6578063537df3b6146102c957600080fd5b80631950c218116101a25780631950c2181461021a57806324d7806c1461023d5780632db6fa36146102695780633c2fe0be1461027c57600080fd5b8063045fb888146101c9578063085e8876146101de5780631785f53c14610207575b600080fd5b6101dc6101d7366004611531565b610488565b005b600754600854600554604080519384526020840192909252908201526060015b60405180910390f35b6101dc6102153660046115c2565b610600565b61022d6102283660046115c2565b6106a8565b60405190151581526020016101fe565b61022d61024b3660046115c2565b6001600160a01b031660009081526004602052604090205460ff1690565b6101dc610277366004611531565b6106ef565b61028560085481565b6040519081526020016101fe565b61022d6102a13660046115c2565b60046020526000908152604090205460ff1681565b6101dc6102c43660046115c2565b6108fa565b6101dc6102d73660046115c2565b610a92565b6101dc6102ea3660046115c2565b610b6e565b6101dc610c44565b600854610285565b61031261030d3660046115e4565b610c58565b6040516101fe929190611606565b610328610e12565b6040516101fe92919061169d565b610349610344366004611531565b610e54565b6040516101fe91906116cb565b610369610364366004611711565b610f7a565b6040516001600160a01b0390911681526020016101fe565b61028560075481565b6101dc6103983660046115c2565b610fa4565b6000546001600160a01b0316610369565b61022d6103bc3660046115c2565b60026020526000908152604090205460ff1681565b600754610285565b6101dc6103e73660046115c2565b6110cb565b61022d6103fa3660046115c2565b6001600160a01b031660009081526003602052604090205460ff1690565b61042b6104263660046115c2565b6112f0565b60408051931515845291151560208401521515908201526060016101fe565b6101dc611330565b6101dc6104603660046115c2565b61140e565b61022d6104733660046115c2565b60036020526000908152604090205460ff1681565b3361049b6000546001600160a01b031690565b6001600160a01b031614806104bf57503360009081526004602052604090205460ff165b6104e45760405162461bcd60e51b81526004016104db9061172a565b60405180910390fd5b60005b818110156105c257600083838381811061050357610503611761565b905060200201602081019061051891906115c2565b6001600160a01b03811660009081526002602052604090205490915060ff16156105af576001600160a01b0381166000908152600260205260409020805460ff191690556007541561057a57600780549060006105748361178d565b91905055505b6040516001600160a01b038216907fe285bb51ee9ef78b36fb9eca52aede9c9f4234d2bb72917200f87005edb25a5590600090a25b50806105ba816117a4565b9150506104e7565b507f34e872427ae9de26be42433090db5c64f60ae3921171e335045d7735077b301782826040516105f49291906117bd565b60405180910390a15050565b610608611487565b6001600160a01b03811660009081526004602052604090205460ff1661065f5760405162461bcd60e51b815260206004820152600c60248201526b2737ba1030b71030b236b4b760a11b60448201526064016104db565b6001600160a01b038116600081815260046020526040808220805460ff19169055517fa3b62bc36326052d97ea62d63c3d60308ed4c3ea8ac079dd8499f1e9c4f80c0f9190a250565b6001600160a01b03811660009081526002602052604081205460ff1680156106e957506001600160a01b03821660009081526003602052604090205460ff16155b92915050565b336107026000546001600160a01b031690565b6001600160a01b0316148061072657503360009081526004602052604090205460ff165b6107425760405162461bcd60e51b81526004016104db9061172a565b60005b818110156108c857600083838381811061076157610761611761565b905060200201602081019061077691906115c2565b90506001600160a01b038116158015906107a957506001600160a01b03811660009081526003602052604090205460ff16155b80156107ce57506001600160a01b03811660009081526002602052604090205460ff16155b156108b5576001600160a01b0381166000908152600260209081526040808320805460ff19166001179055600690915290205460ff16610880576005805460018082019092557f036b6384b5eca791c62761152d0c79bb0604c104a5fb6f4eb0703f3154bb3db00180546001600160a01b0319166001600160a01b0384169081179091556000908152600660205260408120805460ff1916909217909155600780549161087a836117a4565b91905055505b6040516001600160a01b038216907f7409cb8e690bcd1487fd4fd27dad3fa92388d201ba6f953631d6d6b26299f84990600090a25b50806108c0816117a4565b915050610745565b507fa09f1ccb0ba846ba005ce07a059b203c45bfb582864d4e66b2f54e8f7d01eb3282826040516105f49291906117bd565b610902611487565b6001600160a01b0381166109285760405162461bcd60e51b81526004016104db90611809565b6001600160a01b03811660009081526003602052604090205460ff16156109915760405162461bcd60e51b815260206004820152601860248201527f5573657220616c726561647920626c61636b6c6973746564000000000000000060448201526064016104db565b6001600160a01b03811660009081526002602052604090205460ff1615610a25576001600160a01b0381166000908152600260205260409020805460ff19169055600754156109f057600780549060006109ea8361178d565b91905055505b6040516001600160a01b038216907fe285bb51ee9ef78b36fb9eca52aede9c9f4234d2bb72917200f87005edb25a5590600090a25b6001600160a01b0381166000908152600360205260408120805460ff191660011790556008805491610a56836117a4565b90915550506040516001600160a01b038216907f7f8b7dc89dae85811a7a85800b892b5816ad5d381c856f1b56490f8fc470c9cb90600090a250565b610a9a611487565b6001600160a01b03811660009081526003602052604090205460ff16610af95760405162461bcd60e51b8152602060048201526014602482015273155cd95c881b9bdd08189b1858dadb1a5cdd195960621b60448201526064016104db565b6001600160a01b0381166000908152600360205260409020805460ff1916905560085415610b375760088054906000610b318361178d565b91905055505b6040516001600160a01b038216907f35bef39900b57de8fa0e0c77219a7f3d0f1e79ca057d456e02a590e8631413cf90600090a250565b610b76611487565b6001600160a01b038116610b9c5760405162461bcd60e51b81526004016104db90611809565b6001600160a01b03811660009081526004602052604090205460ff1615610bf85760405162461bcd60e51b815260206004820152601060248201526f20b63932b0b23c9030b71030b236b4b760811b60448201526064016104db565b6001600160a01b038116600081815260046020526040808220805460ff19166001179055517f44d6d25963f097ad14f29f06854a01f575648a1ef82f30e562ccd3889717e3399190a250565b610c4c611487565b610c5660006114e1565b565b600554606090808410610c7b576040805160008152602081019091529150610e0b565b6000610c878486611848565b905081811115610c945750805b6000610ca0868361185b565b90508067ffffffffffffffff811115610cbb57610cbb611832565b604051908082528060200260200182016040528015610ce4578160200160208202803683370190505b5093506000865b8381108015610cf957508282105b15610e05576002600060058381548110610d1557610d15611761565b60009182526020808320909101546001600160a01b0316835282019290925260400190205460ff168015610d8557506003600060058381548110610d5b57610d5b611761565b60009182526020808320909101546001600160a01b0316835282019290925260400190205460ff16155b15610df35760058181548110610d9d57610d9d611761565b9060005260206000200160009054906101000a90046001600160a01b0316868381518110610dcd57610dcd611761565b6001600160a01b039092166020928302919091019091015281610def816117a4565b9250505b80610dfd816117a4565b915050610ceb565b50845250505b9250929050565b6060806040518060600160405280602f815260200161186f602f9139604051806040016040528060058152602001640322e302e360dc1b815250915091509091565b60608167ffffffffffffffff811115610e6f57610e6f611832565b604051908082528060200260200182016040528015610e98578160200160208202803683370190505b50905060005b82811015610f735760026000858584818110610ebc57610ebc611761565b9050602002016020810190610ed191906115c2565b6001600160a01b0316815260208101919091526040016000205460ff168015610f3f575060036000858584818110610f0b57610f0b611761565b9050602002016020810190610f2091906115c2565b6001600160a01b0316815260208101919091526040016000205460ff16155b828281518110610f5157610f51611761565b9115156020928302919091019091015280610f6b816117a4565b915050610e9e565b5092915050565b60058181548110610f8a57600080fd5b6000918252602090912001546001600160a01b0316905081565b33610fb76000546001600160a01b031690565b6001600160a01b03161480610fdb57503360009081526004602052604090205460ff165b610ff75760405162461bcd60e51b81526004016104db9061172a565b6001600160a01b03811660009081526002602052604090205460ff166110565760405162461bcd60e51b8152602060048201526014602482015273155cd95c881b9bdd081dda1a5d195b1a5cdd195960621b60448201526064016104db565b6001600160a01b0381166000908152600260205260409020805460ff1916905560075415611094576007805490600061108e8361178d565b91905055505b6040516001600160a01b038216907fe285bb51ee9ef78b36fb9eca52aede9c9f4234d2bb72917200f87005edb25a5590600090a250565b336110de6000546001600160a01b031690565b6001600160a01b0316148061110257503360009081526004602052604090205460ff165b61111e5760405162461bcd60e51b81526004016104db9061172a565b6001600160a01b0381166111445760405162461bcd60e51b81526004016104db90611809565b6001600160a01b03811660009081526003602052604090205460ff16156111a35760405162461bcd60e51b8152602060048201526013602482015272155cd95c881a5cc8189b1858dadb1a5cdd1959606a1b60448201526064016104db565b6001600160a01b03811660009081526002602052604090205460ff161561120c5760405162461bcd60e51b815260206004820152601860248201527f5573657220616c72656164792077686974656c6973746564000000000000000060448201526064016104db565b6001600160a01b0381166000908152600260209081526040808320805460ff19166001179055600690915290205460ff166112b9576005805460018082019092557f036b6384b5eca791c62761152d0c79bb0604c104a5fb6f4eb0703f3154bb3db00180546001600160a01b0319166001600160a01b0384169081179091556000908152600660205260408120805460ff191690921790915560078054916112b3836117a4565b91905055505b6040516001600160a01b038216907f7409cb8e690bcd1487fd4fd27dad3fa92388d201ba6f953631d6d6b26299f84990600090a250565b6001600160a01b038116600090815260026020908152604080832054600390925282205460ff91821692911690828015611328575081155b929491935050565b611338611487565b60008060005b6005548110156114025760006005828154811061135d5761135d611761565b60009182526020808320909101546001600160a01b0316808352600290915260409091205490915060ff1680156113ad57506001600160a01b03811660009081526003602052604090205460ff16155b156113c057836113bc816117a4565b9450505b6001600160a01b03811660009081526003602052604090205460ff16156113ef57826113eb816117a4565b9350505b50806113fa816117a4565b91505061133e565b50600791909155600855565b611416611487565b6001600160a01b03811661147b5760405162461bcd60e51b815260206004820152602660248201527f4f776e61626c653a206e6577206f776e657220697320746865207a65726f206160448201526564647265737360d01b60648201526084016104db565b611484816114e1565b50565b6000546001600160a01b03163314610c565760405162461bcd60e51b815260206004820181905260248201527f4f776e61626c653a2063616c6c6572206973206e6f7420746865206f776e657260448201526064016104db565b600080546001600160a01b038381166001600160a01b0319831681178455604051919092169283917f8be0079c531659141344cd1fd0a4f28419497f9722a3daafe3b4186f6b6457e09190a35050565b6000806020838503121561154457600080fd5b823567ffffffffffffffff8082111561155c57600080fd5b818501915085601f83011261157057600080fd5b81358181111561157f57600080fd5b8660208260051b850101111561159457600080fd5b60209290920196919550909350505050565b80356001600160a01b03811681146115bd57600080fd5b919050565b6000602082840312156115d457600080fd5b6115dd826115a6565b9392505050565b600080604083850312156115f757600080fd5b50508035926020909101359150565b604080825283519082018190526000906020906060840190828701845b828110156116485781516001600160a01b031684529284019290840190600101611623565b50505092019290925292915050565b6000815180845260005b8181101561167d57602081850181015186830182015201611661565b506000602082860101526020601f19601f83011685010191505092915050565b6040815260006116b06040830185611657565b82810360208401526116c28185611657565b95945050505050565b6020808252825182820181905260009190848201906040850190845b818110156117055783511515835292840192918401916001016116e7565b50909695505050505050565b60006020828403121561172357600080fd5b5035919050565b6020808252601c908201527f43616c6c6572206973206e6f74206f776e6572206f722061646d696e00000000604082015260600190565b634e487b7160e01b600052603260045260246000fd5b634e487b7160e01b600052601160045260246000fd5b60008161179c5761179c611777565b506000190190565b6000600182016117b6576117b6611777565b5060010190565b60208082528181018390526000908460408401835b868110156117fe576001600160a01b036117eb846115a6565b16825291830191908301906001016117d2565b509695505050505050565b6020808252600f908201526e496e76616c6964206164647265737360881b604082015260600190565b634e487b7160e01b600052604160045260246000fd5b808201808211156106e9576106e9611777565b818103818111156106e9576106e961177756fe57686974656c697374202d20557365722041636365737320436f6e74726f6c20776974682041646d696e20526f6c65a2646970667358221220597bb164a9af3240f1bc0e68db6c54f00fc4087eb3ad8970163b08c69d14649764736f6c63430008130033",
  "linkReferences": {},
  "deployedLinkReferences": {}
}